:100000000C94AE000C94D6000C94D6000C94D60040
:100010000C94D6000C94D6000C94D6000C94D60008
:100020000C94D6000C94D6000C94D6000C94D600F8
:100030000C94D6000C94D6000C94D6000C94D600E8
:100040000C9457040C94D6000C94A2060C94DE0673
:100050000C94D6000C94D6000C94D6000C94D600C8
:100060000C94D6000C94D60008000000BE922449DF
:10007000123EABAAAA2ABECDCCCC4C3E00000080DA
:10008000BEABAAAAAA3E00000000BF000000803F4D
:100090000000000000084178D3BB4387D1133D190D
:1000A0000E3CC3BD4282AD2B3E68EC8276BED98F3A
:1000B000E1A93E4C80EFFFBE01C4FF7F3F0000007E
:1000C0000000000000070002010000030406000019
:1000D000000000000000010204081020408001021E
:1000E000040810200102040810200404040404047D
:1000F00004040202020202020303030303030000DA
:100100000000230026002900000000002500280030
:100110002B0000000000240027002A00494E464919
:100120004E4954594E414E000020410000C8420043
:10013000401C4620BCBE4CCA1B0E5AAEC59D74CD99
:10014000CCCC3D0AD7233C17B7D13877CC2B32958E
:1001500095E6241FB14F0A001F04990711241FBE02
:10016000CFEFD8E0DEBFCDBF11E0A0E0B1E0E4ED1D
:10017000F0E202C005900D92A03BB107D9F712E062
:10018000A0EBB1E001C01D92A738B107E1F711E083
:10019000CCE5D1E004C02297FE010E946410C8356E
:1001A000D107C9F70E94E9070C94BF0B0C9400001B
:1001B000CF93DF9320E044E162E08CEB91E00E947A
:1001C000E10A61E0809113010E94720560E0809174
:1001D00011010E947205CFE0D1E061E088810E94A8
:1001E000720561E088810E94AA0560E080910D019E
:1001F0000E94720560E080910B010E947205C9E0C7
:10020000D1E061E088810E94720561E088810E94EE
:10021000AA058CEB91E00E94DA0A40E855E260E022
:1002200070E08EED91E0DF91CF910C941907682F6B
:10023000809109010E94AA051092B9011092B8019B
:100240000895EF92FF920F931F93CF93DF938091C6
:10025000B101811136C0809111010E94E1058C012C
:1002600080910D010E94E1057C018091D101909166
:10027000D2010817190739F42091D3013091D40124
:10028000E216F30699F0892B89F40130110571F417
:10029000C091D301D091D401D195C195D109CC0F92
:1002A000DD1F219681E00E94170102C0C0E0D0E06E
:1002B0001093D2010093D101F092D401E092D301C6
:1002C00002C0C0E0D0E0CE01DF91CF911F910F912D
:1002D000FF90EF9008958091BA010E943604BC010E
:1002E000882777FD8095982F0E94F10C9B01AC0127
:1002F00060E071E284E097E40E94560C20E030E078
:1003000044E052E40E94ED0B20E030E044E052E48F
:100310000E94560C0E94AA0D2AEE38E94BE551E4E2
:100320000E94EE0B9B01AC0160E070EA8FE795E460
:100330000E94560C20E030E848E853E40E94ED0BA0
:1003400008954F925F926F927F928F929F92AF9299
:10035000BF92CF92DF92EF92FF928091B101811113
:100360003DC0C090B201D090B301E090B401F090D4
:10037000B5018090050190900601A0900701B09012
:1003800008014090000150900101609002017090BE
:100390000301A3019201C501B4010E94ED0B9B0171
:1003A000AC01C701B6010E94520C87FF09C061E091
:1003B000809113010E94AA0581E08093B00115C0CD
:1003C000A3019201C501B4010E94EE0B9B01AC0197
:1003D000C701B6010E94A10D18163CF460E080919F
:1003E00013010E94AA051092B001FF90EF90DF90D8
:1003F000CF90BF90AF909F908F907F906F905F90C5
:100400004F90089520910401233491F020E030E0D2
:1004100040E151E40E94EA0D20E030E040EA50E47F
:100420000E94560C20E030E040E052E40E94EE0BC7
:10043000089540E060E08CEB91E00E94AA0A6EE132
:1004400071E08CEB91E00E942E086091B2017091F6
:10045000B3018091B4019091B5010E940202AB01F9
:10046000BC0122E030E08CEB91E00E94950967E24C
:1004700071E08CEB91E00E942E08609104018CEBFE
:1004800091E00E94300862E471E08CEB91E00E9400
:100490002E0841E060E08CEB91E00E94AA0A809176
:1004A000B101882319F06AE271E026C06BE371E0C4
:1004B0008CEB91E00E942E0860910501709106017D
:1004C00080910701909108010E940202AB01BC01DA
:1004D00022E030E08CEB91E00E94950967E271E048
:1004E0008CEB91E00E942E08609104018CEB91E06E
:1004F0000E94300862E471E08CEB91E00C942E08CD
:100500000E946B016093B2017093B3018093B401B8
:100510009093B50180910B010E94E105892B91F028
:1005200081E00E94170181E09091B101911180E07A
:100530008093B1010E94190264EF71E080E090E0C5
:100540000E94DD040E942101BC01882777FD80956F
:10055000982F0E94F10C20E030E040E05FE30E9421
:10056000EA0D9B01AC01609105017091060180913B
:100570000701909108010E94EE0B609305017093B2
:10058000060180930701909308018091B601909134
:10059000B701883E9340D9F48091B8019091B90198
:1005A0008436910519F480E00E9417018091B8010A
:1005B0009091B90101969093B9018093B8010E947E
:1005C00019020E94A1011092B7011092B601809108
:1005D000B6019091B70101969093B7018093B6014F
:1005E0000895CF92DF92EF92FF92CF93DF93CDB732
:1005F000DEB76F970FB6F894DEBF0FBECDBF48EEE3
:1006000053E060E070E08EED91E00E94C7094CE09D
:1006100050E0BE016F5F7F4F8EED91E00E94CD09EB
:100620000C970CF4FFC01D868981813609F0FAC051
:100630001D8E1E8E1F8E8A818D8F8B818E8F62E91B
:1006400071E0CE014D960E94CA0B009709F0EAC0F6
:100650001F8AFE013496DE011E96CE010D96219171
:100660002D93E817F907D9F764E471E0CE010E96EF
:100670000E94D30B892B79F06EE471E08EED91E04E
:100680000E942E084091B2015091B3016091B401D3
:100690007091B50131C069E571E0CE010E960E94FE
:1006A000D30B892B09F44FC07E0187E1E80EF11CC2
:1006B00086E0F70111928A95E9F78A898F8B8B89F9
:1006C000888F8C89898F8D898A8F8E898B8F64E83A
:1006D00071E0C7010E94D30B892BA9F066E571E098
:1006E0008EED91E00E942E08409105015091060187
:1006F000609107017091080122E030E08EED91E0F9
:100700000E9495098FC0C7010E94BB0B6B017C0141
:1007100020E030E040E050E40E94A10D1816F4F60D
:1007200020E030E040EF51E4C701B6010E94520CD6
:1007300087FFD4CFC0920501D0920601E092070155
:10074000F0920801CBCF61E671E0CE010E960E94D7
:10075000D30B892B09F44BC07E01F7E1EF0EF11C9E
:1007600086E0F70111928A95E9F78A898F8B8B8948
:10077000888F8C89898F8D898A8F8E898B8F64E889
:1007800071E0C7010E94D30B892BC1F06EE571E0C7
:100790008EED91E00E942E088091B1014AE050E078
:1007A000882319F060E070E002C061E070E08EED37
:1007B00091E00E94DF0865E871E030C06DE671E00D
:1007C000C7010E94D30B892B29F01092B10166E674
:1007D00071E024C06AE771E0C7010E94D30B892B46
:1007E00009F181E08093B10163E771E017C060E82F
:1007F00071E0CE010E960E94D30B892B99F06AE826
:1008000071E08EED91E00E942E088091B001882366
:1008100019F06DE671E002C06AE771E08EED91E0DB
:100820000E942E086F960FB6F894DEBF0FBECDBFA4
:10083000DF91CF91FF90EF90DF90CF900895AF922E
:10084000CF92EF920F9392E0A92E23E0C22E34E0D4
:10085000E32E05E02AE04BE06CE08CEB91E00E9497
:10086000950B0F91EF90CF90AF9008958E3008F0D8
:100870008E5087702091150140E4249F900111242F
:10088000822B80937C0080917A00806480937A0030
:1008900080917A0086FDFCCF20917800309179001C
:1008A000932F80E0AC01422B9A01C90108951F9259
:1008B0000F920FB60F9211242F933F938F939F9314
:1008C000AF93BF938091D5019091D601A091D701AC
:1008D000B091D8013091DD01232F2D5F2D3720F409
:1008E0000196A11DB11D05C0232F2A570296A11DF7
:1008F000B11D2093DD018093D5019093D601A09383
:10090000D701B093D8018091D9019091DA01A091DB
:10091000DB01B091DC010196A11DB11D8093D901CD
:100920009093DA01A093DB01B093DC01BF91AF910A
:100930009F918F913F912F910F900FBE0F901F901D
:1009400018950F931F938FB7F8940091D5011091CC
:10095000D6012091D7013091D8018FBFB801C901CC
:100960001F910F9108950F931F939FB7F8940091D3
:10097000D9011091DA012091DB013091DC0186B5BB
:10098000A89B06C08F3F21F00F5F1F4F2F4F3F4F97
:100990009FBF322F212F102F0027080F111D211D5F
:1009A000311D42E0000F111F221F331F4A95D1F75E
:1009B000B801C9011F910F910895CF92DF92EF9274
:1009C000FF92CF93DF936B017C010E94B304EB0194
:1009D0000EC00E94B3046C1B7D0B683E734038F060
:1009E00081E0C81AD108E108F108C851DC4FC114F0
:1009F000D104E104F10469F7DF91CF91FF90EF900A
:100A0000DF90CF900895019739F0880F991F880FD4
:100A1000991F02970197F1F70895789484B5826041
:100A200084BD84B5816084BD85B5826085BD85B592
:100A3000816085BDEEE6F0E0808181608083E1E841
:100A4000F0E0108280818260808380818160808379
:100A5000E0E8F0E0808181608083E1EBF0E080817C
:100A600084608083E0EBF0E0808181608083EAE74E
:100A7000F0E08081846080838081826080838081D7
:100A8000816080838081806880831092C100089596
:100A9000833069F028F48130A1F0823011F514C060
:100AA0008630B1F08730C1F08430D9F404C0809131
:100AB00080008F7703C0809180008F7D80938000BD
:100AC000089584B58F7702C084B58F7D84BD089565
:100AD0008091B0008F7703C08091B0008F7D8093AC
:100AE000B0000895CF93DF9390E0FC01EA52FF4FEE
:100AF0004491FC01E651FF4F8491882341F190E03D
:100B0000880F991FFC01EE5EFE4F25913491D901AB
:100B1000885F9E4FFC0185919491C82FD92F9FB774
:100B2000F8948C91611106C0409584238C93888140
:100B3000842308C0623041F4242F209582238C93B3
:100B40008881842B888302C0842B8C939FBFDF9184
:100B5000CF9108950F931F93CF93DF931F92CDB73B
:100B6000DEB7282F30E0F901EE53FF4F8491F901F1
:100B7000EA52FF4F1491F901E651FF4F049100230F
:100B8000D1F0882321F069830E9448056981E02F14
:100B9000F0E0EE0FFF1FE85FFE4F85919491DC01BE
:100BA0009FB7F8948C91611103C01095812301C007
:100BB000812B8C939FBF0F90DF91CF911F910F914D
:100BC0000895CF93DF93282F30E0F901EE53FF4FC4
:100BD0008491F901EA52FF4FD491F901E651FF4F98
:100BE000C491CC2389F081110E944805EC2FF0E0DC
:100BF000EE0FFF1FE250FF4F85919491DC018C9125
:100C00008D2321E030E011F420E030E0C901DF91D4
:100C1000CF910895FC0184859585FC01E05CFF4F30
:100C200020813181FC01EE5BFF4F80819181281B87
:100C3000390B2F733327C9010895FC0184859585ED
:100C4000FC01E05CFF4F40815181FC01EE5BFF4FF6
:100C5000208131814217530741F00190F081E02D4E
:100C6000E80FF91F208130E002C02FEF3FEFC901EC
:100C70000895FC0184859585FC01E05CFF4F40816F
:100C80005181FC01EE5BFF4F2081318142175307F8
:100C900071F0A081B181A80FB91F2C918081918141
:100CA00001968F7399279183808330E002C02FEFE4
:100CB0003FEFC9010895FC0186859785FC01E05C42
:100CC000FF4FDC01AE5BBF4F408151812D913C91C4
:100CD000119742175307C1F70895CF93DF93FC0193
:100CE00026853785D901A05CBF4F8D919C911197C6
:100CF00001968F739927E901CE5BDF4F48815981B7
:100D000084179507D9F30D90BC91A02DA20FB31FA6
:100D10006C93A685B785A05CBF4F11969C938E936C
:100D2000A689B7892C9181E090E0058C02C0880FDC
:100D3000991F0A94E2F7282B2C9381E090E0DF9131
:100D4000CF9108951F920F920FB60F9211242F93F7
:100D50003F934F938F939F93EF93FF934091C600E0
:100D6000809181029091820201968F739927209140
:100D70008302309184028217930759F0E091810237
:100D8000F0918202EF5BFD4F40839093820280934B
:100D90008102FF91EF919F918F914F913F912F9100
:100DA0000F900FBE0F901F9018958EED91E00E944E
:100DB0000A06892B11F00C94F10208951F920F92EC
:100DC0000FB60F9211242F933F938F939F93EF931E
:100DD000FF9320913D0230913E0280913F0290911D
:100DE00040022817390731F48091C1008F7D80932C
:100DF000C10014C0E0913F02F0914002E350FE4F69
:100E0000208180913F029091400201968F73992733
:100E10009093400280933F022093C600FF91EF9190
:100E20009F918F913F912F910F900FBE0F901F9028
:100E30001895CF92DF92EF92FF92CF93DF93EC0160
:100E40006A017B01411581EE580761057105F9F0D2
:100E5000EC89FD8981E090E00E8C02C0880F991F1B
:100E60000A94E2F7808360E079E08DE390E0A701E7
:100E700096010E94FD0F21503109410951095695F3
:100E8000479537952795211580E1380798F0EC892B
:100E9000FD89108260E874E88EE190E0A701960178
:100EA0000E94FD0F2150310941095109569547957E
:100EB00037952795E889F9893083EA89FB8920836A
:100EC000EE89FF89408181E090E09C010A8C02C09C
:100ED000220F331F0A94E2F7422B4083EE89FF89E9
:100EE00040819C010B8C02C0220F331F0A94E2F751
:100EF000422B4083EE89FF8940819C010C8C02C00B
:100F0000220F331F0A94E2F7422B4083EE89FF89B8
:100F100020810D8C02C0880F991F0A94E2F78095FA
:100F200082238083DF91CF91FF90EF90DF90CF906D
:100F300008951092E1011092E00188EE93E0A0E0A4
:100F4000B0E08093E2019093E301A093E401B093B9
:100F5000E50189E991E09093DF018093DE0181E46E
:100F600092E09093EB018093EA018DEF91E09093F2
:100F7000ED018093EC0185EC90E09093EF0180937C
:100F8000EE0184EC90E09093F1018093F00180EC0D
:100F900090E09093F3018093F20181EC90E09093C4
:100FA000F5018093F40186EC90E09093F701809333
:100FB000F60184E08093F80183E08093F90187E0F3
:100FC0008093FA0185E08093FB0181E08093FC012E
:100FD00008950E940D050E94D800C5EDD6E00E943C
:100FE00080022097E1F30E94D506F9CFCF92DF92DD
:100FF000EF92FF920F931F93CF93DF936C01EB015E
:101000007A01E60EF71E00E010E00BC06991D601F0
:10101000ED91FC910190F081E02DC6010995080F3A
:10102000191FCE15DF0591F7C801DF91CF911F91F0
:101030000F91FF90EF90DF90CF900895DB010D901E
:101040000020E9F7AD0141505109461B570BDC0167
:10105000ED91FC910280F381E02D09940C941E081F
:10106000DC01ED91FC910190F081E02D09945F92FB
:101070006F927F928F929F92AF92BF92CF92DF92A8
:10108000EF92FF920F931F93CF93DF93CDB7DEB70D
:10109000A1970FB6F894DEBF0FBECDBF3C016A0129
:1010A0007B01522E19A281E0821710F08AE0582E9F
:1010B0008E010F5D1F4F852C912CA12CB12CC701E7
:1010C000B601A50194010E94FD0F8C2D529E80193E
:1010D0001124015011098A3014F4805D01C0895C2B
:1010E000F801808369017A01C114D104E104F1049B
:1010F00031F7B801C3010E941E08A1960FB6F894FB
:10110000DEBF0FBECDBFDF91CF911F910F91FF903A
:10111000EF90DF90CF90BF90AF909F908F907F9097
:101120006F905F900895CF92DF92EF92FF920F93AE
:101130001F93CF93DF93EC016A017B0121153105E9
:1011400079F4E881F9810190F081E02D642FDF913D
:10115000CF911F910F91FF90EF90DF90CF90099466
:101160002A30310519F477FD0EC02AE0B701A60137
:10117000CE01DF91CF911F910F91FF90EF90DF9003
:10118000CF900C9437086DE20E9430088C01442700
:101190005527BA014C195D096E097F092AE0CE0175
:1011A0000E9437089C01200F311FC901DF91CF91A8
:1011B0001F910F91FF90EF90DF90CF9008959A01CB
:1011C000AB01662757FD6095762F0C9493084F92DC
:1011D0005F926F927F928F929F92AF92BF92CF92C7
:1011E000DF92EF92FF920F931F93CF933C014A013E
:1011F0005B01C22F20E030E0A901C501B4010E94CB
:10120000520C87FF0AC06DE2C3010E9430082C0116
:10121000B7FAB094B7F8B09402C0412C512C10E04A
:1012200060E070E080E09FE307C020E030E040E253
:1012300051E40E94560C1F5F1C13F7CF262F372F47
:10124000482F592FC501B4010E94EE0B962EA72EF0
:10125000B82EC92E0E94C30CD62EE72EF82E192FB9
:101260000E94EF0C9B01AC01692D7A2D8B2D9C2DDA
:101270000E94ED0BC62EB72EA82E992E2AE04D2DDA
:101280005E2D6F2D712FC3010E9437088C01040D54
:10129000151DCC23B9F165EA71E0C3010E941E0857
:1012A000080F191F2FC020E030E040E251E46C2D00
:1012B0007B2D8A2D992D0E94EA0D4B015C01792D21
:1012C0009B2D0E94BE0C6B01EE24D7FCE094FE2CFB
:1012D0002AE030E0B701A601C3010E949308080F7D
:1012E000191FC701B6010E94F10C9B01AC01682DCA
:1012F000792D8A2D9B2D0E94ED0BC62EB72EA82E80
:10130000992EC150C111CFCFC801CF911F910F911C
:10131000FF90EF90DF90CF90BF90AF909F908F9015
:101320007F906F905F904F9008950C94E7080F9313
:101330001F93CF93DF93EC010E94A1046887798704
:101340008A879B87E881F9810680F781E02DCE01AD
:1013500009959C0197FF15C00E94A1040885198575
:101360002A853B85601B710B820B930B0C811D81C1
:101370002E813F81601771078207930718F32FEFC3
:101380003FEFC901DF91CF911F910F910895FC01AB
:1013900044835583668377830895CF92DF92EF92DB
:1013A000FF920F931F93CF93DF937C018B016A0110
:1013B000C0E0D0E009C0C7010E94970997FD07C0AF
:1013C000F80181938F012196CC15DD05A1F7CE019F
:1013D000DF91CF911F910F91FF90EF90DF90CF9011
:1013E0000895CF93DF93EC0160E08E810E94AA05FF
:1013F00081E090E00E94030561E08E810E94AA05D1
:1014000081E090E00E94030560E08E810E94AA05C1
:1014100084E690E0DF91CF910C940305CF92DF92A8
:10142000EF92FF920F931F93CF93DF937C01C0E065
:10143000D0E0C62ED12C87010C0F1D1F61E0F801F2
:1014400087810E947205B6010C2E02C075956795C2
:101450000A94E2F761707727F80187810E94AA0554
:101460002196C430D10539F7C701DF91CF911F9183
:101470000F91FF90EF90DF90CF900C94F109CF92F5
:10148000DF92EF92FF920F931F93CF93DF937C0134
:10149000C0E0D0E0C62ED12C87010C0F1D1F61E0EB
:1014A000F80187810E947205B6010C2E02C0759565
:1014B00067950A94E2F761707727F80187810E94A7
:1014C000AA052196C830D10539F7C701DF91CF9120
:1014D0001F910F91FF90EF90DF90CF900C94F10946
:1014E0001F93CF93DF93EC01162F642F8C810E9402
:1014F000AA058D818F3F19F060E00E94AA058F85B3
:10150000612F84FF06C0CE01DF91CF911F910C9413
:101510003F0A70E084E0759567958A95E1F7CE0102
:101520000E940E0A612FCE01DF91CF911F910C9482
:101530000E0A41E00E94700A81E090E0089540E0C8
:101540000C94700AFC016089262F2460208B6C604B
:101550000C949F0ACF93DF93CDB7DEB728970FB6D1
:10156000F894DEBF0FBECDBF28E0E6E1F1E0DE017A
:10157000119601900D922A95E1F7FC0123894217FB
:1015800010F0422F4150E1E0F0E0EC0FFD1F22E0AF
:10159000429FE00DF11D11242081260F2068622F4B
:1015A00028960FB6F894DEBF0FBECDBFDF91CF9166
:1015B0000C949F0A61E00E949F0A80ED97E00C94D2
:1015C0000305CF93DF93EC01423018F08F858860DC
:1015D0008F874B8B1C8A222329F0413019F48F8589
:1015E00084608F8780E593EC0E94030560E08C8126
:1015F0000E94AA0560E08E810E94AA058D818F3F1E
:1016000019F060E00E94AA056F8564FD1DC063E0CB
:10161000CE010E940E0A84E991E10E94030563E075
:10162000CE010E940E0A84E991E10E94030563E065
:10163000CE010E940E0A86E990E00E94030562E056
:10164000CE010E940E0A16C06062CE010E949F0A5F
:1016500084E991E10E9403056F856062CE010E94DA
:101660009F0A86E990E00E9403056F856062CE01C3
:101670000E949F0A6F856062CE010E949F0A84E0EB
:10168000888BCE010E94A20ACE010E94DA0A82E073
:10169000898B66E0CE01DF91CF910C949F0A6F9207
:1016A0007F928F92AF92CF92EF920F931F93CF932F
:1016B000DF93CDB7DEB73C01162F842F5D854E85B5
:1016C0003F859889F301848325830683E782C0865A
:1016D000A1868286538744873587968761E00E947A
:1016E0007205F30185818F3F19F061E00E94720558
:1016F00061E0F30186810E947205112319F0F30164
:10170000178603C080E1F301878720E041E060E1B4
:10171000C301DF91CF911F910F91EF90CF90AF90C8
:101720008F907F906F900C94E10A8F92AF92CF923E
:10173000EF920F93DC0113961C921E921297EBEA24
:10174000F1E0ED93FC931F921F921F921F928A2C3F
:10175000AC2CCE2CE02E022F242F462F61E00E94CD
:101760004F0B0F900F900F900F900F91EF90CF9025
:10177000AF908F900895662777270C944D0EF894BC
:101780000C9468109111E0C3803219F08950855093
:10179000D0F70895FB01DC018D91019080190110B3
:1017A000D9F3990B0895FB0151915523A9F0BF017D
:1017B000DC014D9145174111E1F759F4CD0101903C
:1017C000002049F04D9140154111C9F3FB01411131
:1017D000EFCF81E090E0019708955058BB27AA27EA
:1017E0000ED075C166D130F06BD120F031F49F3F3F
:1017F00011F41EF45BC10EF4E095E7FB51C1E92F33
:1018000077D180F3BA17620773078407950718F03A
:1018100071F49EF58FC10EF4E0950B2EBA2FA02D1A
:101820000B01B90190010C01CA01A0011124FF278D
:10183000591B99F0593F50F4503E68F11A16F04088
:10184000A22F232F342F4427585FF3CF4695379587
:101850002795A795F0405395C9F77EF41F16BA0B4C
:10186000620B730B840BBAF09150A1F0FF0FBB1FFA
:10187000661F771F881FC2F70EC0BA0F621F731F43
:10188000841F48F4879577956795B795F7959E3FA0
:1018900008F0B3CF9395880F08F09927EE0F97952E
:1018A00087950895D9D008F481E008950CD00FC130
:1018B00007D140F0FED030F021F45F3F19F0F0C0C6
:1018C000511139C1F3C014D198F39923C9F35523A9
:1018D000B1F3951B550BBB27AA2762177307840723
:1018E00038F09F5F5F4F220F331F441FAA1FA9F3D9
:1018F00033D00E2E3AF0E0E830D091505040E695CB
:10190000001CCAF729D0FE2F27D0660F771F881F2B
:10191000BB1F261737074807AB07B0E809F0BB0B1A
:10192000802DBF01FF2793585F4F2AF09E3F51053E
:1019300068F0B6C000C15F3FECF3983EDCF38695DB
:1019400077956795B795F7959F5FC9F7880F911DB4
:101950009695879597F90895E1E0660F771F881FA0
:10196000BB1F621773078407BA0720F0621B730B53
:10197000840BBA0BEE1F88F7E095089504D06894A5
:10198000B111D9C00895BCD088F09F5790F0B92FFD
:101990009927B751A0F0D1F0660F771F881F991FC4
:1019A0001AF0BA95C9F712C0B13081F0C3D0B1E0D6
:1019B0000895C0C0672F782F8827B85F39F0B93FE6
:1019C000CCF3869577956795B395D9F73EF49095C6
:1019D0008095709561957F4F8F4F9F4F0895E89444
:1019E00009C097FB3EF490958095709561957F4F67
:1019F0008F4F9F4F9923A9F0F92F96E9BB27939515
:101A0000F695879577956795B795F111F8CFFAF424
:101A1000BB0F11F460FF1BC06F5F7F4F8F4F9F4F55
:101A200016C0882311F096E911C0772321F09EE8B3
:101A3000872F762F05C0662371F096E8862F70E019
:101A400060E02AF09A95660F771F881FDAF7880FF3
:101A50009695879597F90895990F0008550FAA0B49
:101A6000E0E8FEEF16161706E807F907C0F01216B1
:101A70001306E407F50798F0621B730B840B950BB4
:101A800039F40A2661F0232B242B252B21F4089509
:101A90000A2609F4A140A6958FEF811D811D0895A6
:101AA00097F99F6780E870E060E008959FEF80EC11
:101AB000089500240A9416161706180609060895B4
:101AC00000240A9412161306140605060895092E1A
:101AD0000394000C11F4882352F0BB0F40F4BF2B89
:101AE00011F460FF04C06F5F7F4F8F4F9F4F0895C9
:101AF00057FD9058440F551F59F05F3F71F04795BF
:101B0000880F97FB991F61F09F3F79F087950895A3
:101B1000121613061406551FF2CF4695F1DF08C0C2
:101B2000161617061806991FF1CF869571056105DF
:101B300008940895E894BB2766277727CB0197F987
:101B400008958ADF08F48FEF08950EF018C2AECF23
:101B50006894A6CFD5DFC8F39923D1F3C6F3DF93FA
:101B6000CF931F930F93FF92C92FDD2788232AF06D
:101B70002197660F771F881FDAF720E030E040E8F2
:101B80005FEB9FE3883920F0803E30F021968F771D
:101B900025DEE8E6F0E003C021DEE5E9F0E0FDD176
:101BA0008B01BE01EC01FB2E6F5771097595771FF4
:101BB000880B990B16DF28E132E741E35FE316D08B
:101BC000AF2D9801AE01FF900F911F91CF91DF9142
:101BD00016DE7DCF0BD07BCF6CDF28F071DF18F0E5
:101BE000952309F05DCF62CF1124A5CF81DFA0F34B
:101BF000959FD1F3950F50E0551F629FF001729FA2
:101C0000BB27F00DB11D639FAA27F00DB11DAA1FC0
:101C1000649F6627B00DA11D661F829F2227B00D0D
:101C2000A11D621F739FB00DA11D621F839FA00D98
:101C3000611D221F749F3327A00D611D231F849FE8
:101C4000600D211D822F762F6A2F11249F5750403F
:101C50008AF0E1F088234AF0EE0FFF1FBB1F661FDA
:101C6000771F881F91505040A9F79E3F510570F093
:101C700017CF61CF5F3FECF3983EDCF38695779505
:101C80006795B795F795E7959F5FC1F7FE2B880F8E
:101C9000911D9695879597F90895A0E0B0E0E3E54A
:101CA000FEE00C9425108B016115710519F0FB0104
:101CB000808391837C01F701C1907F01EF018C2D1E
:101CC00090E00E94C20B892BB1F7FDE2CF1204C055
:101CD000C990DD24D39405C02BE2C21201C0C99083
:101CE000D12C7E0141E0E41AF10843E050E06CE1C0
:101CF00071E0C7010E94A70F892BE9F47E0182E001
:101D0000E80EF11C45E050E06FE171E0C7010E9470
:101D1000A70F892B21F47E01E7E0EE0EF11C0115DF
:101D2000110519F0F801F182E08210E0D0E0C0E87E
:101D3000D110FBC0FFC043E050E064E271E0C70196
:101D40000E94A70F892B49F40115110509F4EFC072
:101D50002296F801D183C083EAC060E070E0CB0135
:101D6000E12CF12CEC2DE053EA3048F5FD2DF2602A
:101D70002D2D2870D2FE06C0211127C02FEFE21AA8
:101D8000F20A23C0222319F041E0E41AF108A5E089
:101D9000B0E09B01AC010E94F20F660F771F881F15
:101DA000991F6E0F711D811D911D6839E9E97E072C
:101DB0008E07E9E19E0748F0FD2DF66006C0EE3F74
:101DC00039F4D3FC3DC0FD2DF860C990DF2ECACF99
:101DD000E53311F0E531A1F5A881AD3219F4F0E158
:101DE000DF2A06C0AB3221F0219621E030E004C0AA
:101DF000A981229622E030E0A053AA3018F0C21B3D
:101E0000D30B1EC0FE0120E030E020384CE0340748
:101E10005CF4A901440F551F440F551F240F351FB3
:101E2000220F331F2A0F311DA191A053EF01AA30B9
:101E300060F3D4FE03C0319521953109E20EF31E03
:101E4000D1FE07C00115110521F02197F801D183BA
:101E5000C0830E94EF0C2D2D2370233029F0162F04
:101E6000D72FC82F092F07C0DC01CB01B058182F7E
:101E7000D92FCA2F0B2F20E030E0A901612F7D2F31
:101E80008C2F902F0E94520C882309F454C0F7FE27
:101E900008C0F194E194F10833E5C32E31E0D32E6C
:101EA00004C02BE3C22E21E0D22E4601F8E18F1AA6
:101EB000910890E2A92EB12C15C0F60145915591DB
:101EC00065917491242F352F462F572F612F7D2F29
:101ED0008C2F902F0E94EA0D162FD72FC82F092F75
:101EE000EA18FB08EA14FB0444F724E0C21AD108FC
:101EF000B594A794C814D904A9F7612F7D2F8C2F0E
:101F0000902F282F220F292F221F2F3F39F020E05A
:101F100030E0A9010E94520C81110DC082E290E0D4
:101F2000909386028093850206C00FEF04C010E0F4
:101F3000D0E0C0EC0FE7612F7D2F8C2F902FCDB715
:101F4000DEB7ECE00C944110992788270895FB0137
:101F5000DC014150504088F08D9181341CF08B356C
:101F60000CF4805E659161341CF06B350CF4605E9E
:101F7000861B611171F3990B0895881BFCCF9F3F5D
:101F800031F0915020F4879577956795B795880F34
:101F9000911D9695879597F90895DF93CF931F9399
:101FA0000F93FF92EF92DF927B018C01689405C042
:101FB000DA2EEF011BDEFE01E894A5912591359103
:101FC00045915591AEF3EF011ADCFE019701A8018E
:101FD000DA9479F7DF90EF90FF900F911F91CF91F6
:101FE000DF9108950E945610A59F900DB49F900D0B
:101FF000A49F800D911D11240895A1E21A2EAA1B01
:10200000BB1BFD010DC0AA1FBB1FEE1FFF1FA217A8
:10201000B307E407F50720F0A21BB30BE40BF50BA5
:10202000661F771F881F991F1A9469F7609570952E
:10203000809590959B01AC01BD01CF0108952F9231
:102040003F924F925F926F927F928F929F92AF9248
:10205000BF92CF92DF92EF92FF920F931F93CF9395
:10206000DF93CDB7DEB7CA1BDB0B0FB6F894DEBF2C
:102070000FBECDBF09942A88398848885F846E8452
:102080007D848C849B84AA84B984C884DF80EE809C
:10209000FD800C811B81AA81B981CE0FD11D0FB6A5
:1020A000F894DEBF0FBECDBFED010895A29FB00131
:1020B000B39FC001A39F01D0B29F700D811D112459
:1020C000911D0895EE0FFF1F0590F491E02D0994E6
:0420D000F894FFCFB2
:1020D4000000803E430000A0410D000700110008ED
:1020E4000006001000010000400014005400416389
:1020F4007475616C3A2000206F002A2A2A2A484508
:102104004154204F46462A2A2A2A005365743A200D
:102114002020200052544D502D2D2D2D2D00615482
:102124005352544D500061545354544D5000615413
:1021340053535441540061545353544154312D2D3D
:102144002D2D0061545353544154302D2D2D2D0009
:1021540052454C412D2D2D2D2D0061545352454C8B
:102164004100545300000000006D06F6070A0639CA
:10217400061D065B062E0000000000990AF6070003
:00000001FF
