:100000000C94AE000C94D6000C94D6000C94D60040
:100010000C94D6000C94D6000C94D6000C94D60008
:100020000C94D6000C94D6000C94D6000C94D600F8
:100030000C94D6000C94D6000C94D6000C94D600E8
:100040000C942C050C94D6000C9477070C94B307F1
:100050000C94D6000C94D6000C94D6000C94D600C8
:100060000C94D6000C94D60008000000BE922449DF
:10007000123EABAAAA2ABECDCCCC4C3E00000080DA
:10008000BEABAAAAAA3E00000000BF000000803F4D
:100090000000000000084178D3BB4387D1133D190D
:1000A0000E3CC3BD4282AD2B3E68EC8276BED98F3A
:1000B000E1A93E4C80EFFFBE01C4FF7F3F0000007E
:1000C0000000000000070002010000030406000019
:1000D000000000000000010204081020408001021E
:1000E000040810200102040810200404040404047D
:1000F00004040202020202020303030303030000DA
:100100000000230026002900000000002500280030
:100110002B0000000000240027002A00494E464919
:100120004E4954594E414ECDCCCC3D0AD7233C17B5
:10013000B7D13877CC2B329595E6241FB14F0A0002
:100140000020410000C84200401C4620BCBE4CCAF2
:100150001B0E5AAEC59D7400F4046E0811241FBE18
:10016000CFEFD8E0DEBFCDBF12E0A0E0B1E0EAE122
:10017000F3E202C005900D92A030B107D9F712E06A
:10018000A0E0B2E001C01D92A73DB107E1F711E088
:10019000CCE5D1E004C02297FE010E948711C8354A
:1001A000D107C9F70E94BE080C94940C0C9400006F
:1001B000CF93DF93C0E0D2E0CE0162E044E120E0E3
:1001C0000E94B60B8091A10161E00E9447068091D8
:1001D000A30160E00E9447068091A50161E00E94B2
:1001E00047068091A50161E00E947F068091A701EA
:1001F00060E00E9447068091A90160E00E944706E6
:100200008091AB0161E00E9447068091AB0161E003
:100210000E947F06CE010E94AF0B8EE292E040E882
:1002200055E260E070E00E94EE07DF91CF91089503
:10023000682F8091AB010E947F06109218021092E5
:1002400017020895EF92FF920F931F93CF93DF93BE
:1002500080911F028823B1F58091A3010E94B60608
:100260008C018091A7010E94B6067C018091230237
:10027000909124020817190739F420912102309136
:100280002202E216F30699F0009789F40130110575
:1002900071F4C0912102D0912202D095C195DF4F17
:1002A000CC0FDD1F219681E00E94180102C0C0E042
:1002B000D0E01093240200932302F0922202E092F5
:1002C000210202C0C0E0D0E0CE01DF91CF911F91AA
:1002D0000F91FF90EF900895809115020E940B05F9
:1002E0009C01B901882777FD8095982F0E94E70D22
:1002F0009B01AC0160E071E284E097E40E944C0D48
:1003000020E030E044E052E40E94E30C20E030E0E2
:1003100044E052E40E944C0D0E94A00E2AEE38E9FF
:100320004BE551E40E94E40C9B01AC0160E070EAF3
:100330008FE795E40E944C0D20E030E848E853E454
:100340000E94E30C08956F927F928F929F92AF92DA
:10035000BF92CF92DF92EF92FF920F931F93809103
:100360001F028823E9F560901B0270901C028090A8
:100370001D0290901E02E090AD01F090AE01009140
:10038000AF011091B001A090B201B090B301C09044
:10039000B401D090B501C801B701A60195010E9432
:1003A000E30C9B01AC01C401B3010E94480D87FF1F
:1003B00009C08091A10161E00E947F0681E08093E5
:1003C000200215C0C801B701A60195010E94E40CE6
:1003D0009B01AC01C401B3010E94970E18163CF4B6
:1003E0008091A10160E00E947F06109220021F917F
:1003F0000F91FF90EF90DF90CF90BF90AF909F90C4
:100400008F907F906F9008952091B101233491F0E7
:1004100020E030E040E151E40E94E00E20E030E0D6
:1004200040EA50E40E944C0D20E030E040E052E40D
:100430000E94E40C089580E092E060E040E00E94B9
:100440007F0B80E092E060E071E00E940309609120
:100450001B0270911C0280911D0290911E020E944D
:100460000402AB01BC0180E092E022E030E00E9497
:100470006A0A80E092E069E071E00E94030980E08E
:1004800092E06091B1010E94050980E092E06CE089
:1004900071E00E94030980E092E060E041E00E9488
:1004A0007F0B80911F02882329F080E092E06EE0AC
:1004B00071E028C080E092E06FE171E00E940309E2
:1004C0006091AD017091AE018091AF019091B0014A
:1004D0000E940402AB01BC0180E092E022E030E027
:1004E0000E946A0A80E092E069E071E00E940309DC
:1004F00080E092E06091B1010E94050980E092E005
:100500006CE071E00E94030908950E946C01609301
:100510001B0270931C0280931D0290931E02809117
:10052000A9010E94B606009791F081E00E9418018F
:1005300081E090911F02911180E080931F020E9440
:100540001B0264EF71E080E090E00E94B2050E941F
:1005500022019C01B901882777FD8095982F0E9480
:10056000E70D20E030E040E05FE30E94E00E9B01F9
:10057000AC016091AD017091AE018091AF0190919D
:10058000B0010E94E40C6093AD017093AE018093C2
:10059000AF019093B0018091190290911A0233E05B
:1005A000883E9307D9F480911702909118028436FF
:1005B000910519F480E00E94180180911702909132
:1005C0001802019690931802809317020E941B0252
:1005D0000E94A30110921A0210921902809119022E
:1005E00090911A02019690931A028093190208952D
:1005F0004F925F926F927F928F929F92AF92BF9233
:10060000CF92DF92EF92FF920F931F93DF93CF93DE
:10061000CDB7DEB7A4970FB6F894DEBF0FBECDBF3F
:10062000782E692E4A015B012901DE011196EFEB5C
:10063000F1E084E201900D928150E1F7C501B4012F
:100640000E94B40DF62EC72ED82EE92E862F9C2D93
:10065000672D762D4AE050E00E94C20C9301832F53
:10066000922F8C01FC01208101962223D1F78EE28A
:1006700080836F2D7C2D8D2D9E2D0E94E70D9B017B
:10068000AC01C501B4010E94E30C6B017C01F201D5
:10069000EE0FFF1FEE0FFF1FEC0FFD1F6181728138
:1006A000838194810E94E70D9B01AC01C701B601D3
:1006B0000E94E00E24E13EEA47E45FE30E94E40C7E
:1006C0000E94B40D262F372F482F592FDA01C90168
:1006D000B7FF07C0B095A095909581959F4FAF4FFC
:1006E000BF4FB8016F5F7F4F4AE050E00E94C20CDD
:1006F000872D962DA4960FB6F894DEBF0FBECDBF02
:10070000CF91DF911F910F91FF90EF90DF90CF90ED
:10071000BF90AF909F908F907F906F905F904F9021
:100720000895EF92FF920F931F93DF93CF93CDB76E
:10073000DEB7A3970FB6F894DEBF0FBECDBF8EE233
:1007400092E048EE53E060E070E00E949C0A8EE286
:1007500092E0BE01695E7F4F4CE050E00E94A20A29
:100760008C3091050CF433C11BA28F89813609F0BE
:100770002EC1CE01019623E0FC0111922A95E9F7E2
:10078000288D2983298D2A8363EE71E00E949F0CB6
:10079000009709F01CC11D86FE017A96DE011496B1
:1007A000CE01839621912D93E817F907D9F78E0191
:1007B0000C5F1F4FC80168E271E00E94A80C00970F
:1007C000D9F1DE011D96E7E9F1E08AE001900D9292
:1007D0008150E1F78E01035F1F4F40911B02509142
:1007E0001C0260911D0270911E02C80122E030E0DF
:1007F0000E94F802F80101900020E9F70E1B1F0B80
:100800000A5F1F4F1016110654F4FE017396CF01B4
:10081000801B910B2DE22293E817F907E1F71A8A62
:100820008EE292E062E371E00E9403098EE292E0C0
:10083000BE01635F7F4FC9C0C8016AE371E00E94D7
:10084000A80C009709F44DC08E01035F1F4F86E08E
:10085000F80111928A95E9F788858D8789858E87B9
:100860008A858F878B85888B8C85898BC8016FE300
:1008700071E00E94A80C0097F9F4C8010E94900C46
:100880007B018C0120E030E040E251E40E94970EB1
:10089000181694F4C801B70120E030E040EF51E4AD
:1008A0000E94480D87FF08C0E092AD01F092AE01B2
:1008B0000093AF011093B0018EE292E065E471E025
:1008C0000E9403094091AD015091AE016091AF01CA
:1008D0007091B0018EE292E022E030E00E946A0A5C
:1008E00076C0C8016DE471E00E94A80C009709F47D
:1008F00052C08E01035F1F4F86E0F80111928A9566
:10090000E9F788858D8789858E878A858F878B858E
:10091000888B8C85898BC8016FE371E00E94A80CDD
:100920000097E1F08EE292E062E571E00E94030937
:1009300080911F02882329F08EE292E060E070E04F
:1009400004C08EE292E061E070E04AE050E00E9474
:10095000B4098EE292E06AE571E037C0C8016FE544
:1009600071E00E94A80C009739F010921F028EE2ED
:1009700092E065E671E029C0C80162E771E00E947B
:10098000A80C009721F181E080931F028EE292E093
:1009900068E771E01AC0C80165E871E00E94A80C20
:1009A0000097A9F08EE292E06FE871E00E940309DF
:1009B00080912002882329F08EE292E06FE571E0B9
:1009C00004C08EE292E062E771E00E940309A39600
:1009D0000FB6F894DEBF0FBECDBFCF91DF911F9150
:1009E0000F91FF90EF900895AF92CF92EF920F93F7
:1009F00080E092E06CE04BE02AE005E074E0E72E56
:100A000053E0C52E32E0A32E0E946A0C0F91EF90A6
:100A1000CF90AF9008958E3008F08E50877020915F
:100A2000B60140E4249F90011124822B80937C0026
:100A300080917A00806480937A0080917A0086FDAC
:100A4000FCCF2091780030917900932F80E0AC01A9
:100A5000422B9A01C90108951F920F920FB60F926F
:100A600011242F933F938F939F93AF93BF938091C4
:100A7000250290912602A0912702B0912802309180
:100A80002D02232F2D5F2D3720F40196A11DB11DBE
:100A900005C0232F2A570296A11DB11D20932D02B8
:100AA0008093250290932602A0932702B0932802F8
:100AB0008091290290912A02A0912B02B0912C02E0
:100AC0000196A11DB11D8093290290932A02A09343
:100AD0002B02B0932C02BF91AF919F918F913F91C8
:100AE0002F910F900FBE0F901F9018950F931F938B
:100AF0008FB7F894009125021091260220912702C9
:100B0000309128028FBFB801C9011F910F9108953C
:100B10000F931F939FB7F8940091290210912A0216
:100B200020912B0230912C0286B5A89B06C08F3FE6
:100B300021F00F5F1F4F2F4F3F4F9FBF322F212FAD
:100B4000102F0027080F111D211D311D42E0000F3D
:100B5000111F221F331F4A95D1F7B801C9011F91F8
:100B60000F910895CF92DF92EF92FF92CF93DF9390
:100B70006B017C010E948805EB010EC00E94880574
:100B80006C1B7D0B683E734038F081E0C81AD108B9
:100B9000E108F108C851DC4FC114D104E104F104AB
:100BA00069F7DF91CF91FF90EF90DF90CF9008959C
:100BB000019739F0880F991F880F991F02970197A5
:100BC000F1F70895789484B5826084BD84B581601E
:100BD00084BD85B5826085BD85B5816085BDEEE645
:100BE000F0E0808181608083E1E8F0E01082808124
:100BF00082608083808181608083E0E8F0E0808192
:100C000081608083E1EBF0E0808184608083E0EBB1
:100C1000F0E0808181608083EAE7F0E08081846099
:100C200080838081826080838081816080838081F5
:100C3000806880831092C1000895833069F028F4A1
:100C40008130A1F0823011F514C08630B1F08730C8
:100C5000C1F08430D9F404C0809180008F7703C044
:100C6000809180008F7D80938000089584B58F7778
:100C700002C084B58F7D84BD08958091B0008F77C8
:100C800003C08091B0008F7D8093B0000895CF9312
:100C9000DF9390E0FC01EA52FF4F4491FC01E651E2
:100CA000FF4F8491882341F190E0880F991FFC0148
:100CB000EE5EFE4F25913491D901885F9E4FFC0175
:100CC00085919491C82FD92F9FB7F8948C91611179
:100CD00006C0409584238C938881842308C06230A9
:100CE00041F4242F209582238C938881842B888340
:100CF00002C0842B8C939FBFDF91CF9108950F93F7
:100D00001F93CF93DF931F92CDB7DEB7282F30E02C
:100D1000F901EE53FF4F8491F901EA52FF4F14910C
:100D2000F901E651FF4F04910023D1F0882321F00F
:100D300069830E941D066981E02FF0E0EE0FFF1F1E
:100D4000E85FFE4F85919491DC019FB7F8948C91F8
:100D5000611103C01095812301C0812B8C939FBF2B
:100D60000F90DF91CF911F910F910895CF93DF9353
:100D7000282F30E0F901EE53FF4F8491F901EA5238
:100D8000FF4FD491F901E651FF4FC491CC2389F074
:100D900081110E941D06EC2FF0E0EE0FFF1FE250C4
:100DA000FF4F85919491DC018C918D2321E030E0FF
:100DB00011F420E030E0C901DF91CF910895FC01EA
:100DC00084859585FC01E05CFF4F20813181FC0129
:100DD000EE5BFF4F80819181281B390B2F733327E6
:100DE000C9010895FC0184859585FC01E05CFF4FF5
:100DF00040815181FC01EE5BFF4F20813181421720
:100E0000530741F00190F081E02DE80FF91F208198
:100E100030E002C02FEF3FEFC9010895FC01848547
:100E20009585FC01E05CFF4F40815181FC01EE5B48
:100E3000FF4F208131814217530771F0A081B181AA
:100E4000A80FB91F2C918081918101968F739927EA
:100E50009183808330E002C02FEF3FEFC9010895F6
:100E6000FC0186859785FC01E05CFF4FDC01AE5BF1
:100E7000BF4F408151812D913C91119742175307EB
:100E8000C1F70895CF93DF93FC0126853785D901FB
:100E9000A05CBF4F8D919C91119701968F739927FC
:100EA000E901CE5BDF4F4881598184179507D9F35B
:100EB0000D90BC91A02DA20FB31F6C93A685B78592
:100EC000A05CBF4F11969C938E93A689B7892C91F5
:100ED00081E090E0058C02C0880F991F0A94E2F728
:100EE000282B2C9381E090E0DF91CF9108951F9201
:100EF0000F920FB60F9211242F933F934F938F931E
:100F00009F93EF93FF934091C6008091D1029091FF
:100F1000D20201968F7399272091D3023091D40287
:100F20008217930759F0E091D102F091D202EF5667
:100F3000FD4F40839093D2028093D102FF91EF91B5
:100F40009F918F914F913F912F910F900FBE0F90D6
:100F50001F9018958EE292E00E94DF06892B11F017
:100F60000C94910308951F920F920FB60F921124C3
:100F70002F933F938F939F93EF93FF9320918D0235
:100F800030918E0280918F0290919002281739073C
:100F900031F48091C1008F7D8093C10014C0E09135
:100FA0008F02F0919002E35BFD4F208180918F02D0
:100FB0009091900201968F7399279093900280935D
:100FC0008F022093C600FF91EF919F918F913F91E7
:100FD0002F910F900FBE0F901F901895CF92DF9218
:100FE000EF92FF92CF93DF93EC016A017B014115F1
:100FF00081EE580761057105F9F0EC89FD8981E002
:1010000090E00E8C02C0880F991F0A94E2F780834B
:1010100060E079E08DE390E0A70196010E942C1139
:101020002150310941095109569547953795279522
:10103000211580E1380798F0EC89FD89108260E87D
:1010400074E88EE190E0A70196010E942C112150D6
:101050003109410951095695479537952795E889F2
:10106000F9893083EA89FB892083EE89FF894081F1
:1010700081E090E09C010A8C02C0220F331F0A9489
:10108000E2F7422B4083EE89FF8940819C010B8C63
:1010900002C0220F331F0A94E2F7422B4083EE89ED
:1010A000FF8940819C010C8C02C0220F331F0A94DF
:1010B000E2F7422B4083EE89FF8920810D8C02C02C
:1010C000880F991F0A94E2F7809582238083DF912D
:1010D000CF91FF90EF90DF90CF9008951092310262
:1010E0001092300288EE93E0A0E0B0E080933202EC
:1010F00090933302A0933402B09335028AEE91E0CC
:1011000090932F0280932E0281E992E090933B020C
:1011100080933A028DE492E090933D0280933C02EA
:1011200085EC90E090933F0280933E0284EC90E047
:10113000909341028093400280EC90E090934302B0
:101140008093420281EC90E09093450280934402A8
:1011500086EC90E0909347028093460284E080936F
:10116000480283E08093490287E080934A0285E049
:1011700080934B0281E080934C0208950E94E20527
:101180000E94D800CAEAD7E00E9485022097E1F3C6
:101190000E94AA07F9CFCF92DF92EF92FF920F93AE
:1011A0001F93CF93DF936C01EB017A01E60EF71EDC
:1011B00000E010E00BC06991D601ED91FC91019027
:1011C000F081E02DC6010995080F191FCE15DF0526
:1011D00091F7C801DF91CF911F910F91FF90EF9090
:1011E000DF90CF900895DB010D900020E9F7AD016D
:1011F00041505109461B570BDC01ED91FC910280D7
:10120000F381E02D09940C94F308DC01ED91FC913D
:101210000190F081E02D09945F926F927F928F92FE
:101220009F92AF92BF92CF92DF92EF92FF920F9375
:101230001F93CF93DF93CDB7DEB7A1970FB6F89486
:10124000DEBF0FBECDBF3C016A017B01522E19A249
:1012500081E0821710F08AE0582E8E010F5D1F4F3B
:10126000852C912CA12CB12CC701B601A5019401AC
:101270000E942C118C2D529E8019112401501109AD
:101280008A3014F4805D01C0895CF80180836901B3
:101290007A01C114D104E104F10431F7B801C301AA
:1012A0000E94F308A1960FB6F894DEBF0FBECDBF23
:1012B000DF91CF911F910F91FF90EF90DF90CF9032
:1012C000BF90AF909F908F907F906F905F900895A8
:1012D000CF92DF92EF92FF920F931F93CF93DF9302
:1012E000EC016A017B012115310579F4E881F9816E
:1012F0000190F081E02D642FDF91CF911F910F912C
:10130000FF90EF90DF90CF9009942A30310519F4C7
:1013100077FD0EC02AE0B701A601CE01DF91CF9183
:101320001F910F91FF90EF90DF90CF900C940C09DC
:101330006DE20E9405098C0144275527BA014C191A
:101340005D096E097F092AE0CE010E940C099C010B
:10135000200F311FC901DF91CF911F910F91FF9095
:10136000EF90DF90CF9008959A01AB01662757FD6B
:101370006095762F0C9468094F925F926F927F92DE
:101380008F929F92AF92BF92CF92DF92EF92FF9295
:101390000F931F93CF933C014A015B01C22F20E0C2
:1013A00030E0A901C501B4010E94480D87FF0AC0C1
:1013B0006DE2C3010E9405092C01B7FAB094B7F899
:1013C000B09402C0412C512C10E060E070E080E04D
:1013D0009FE307C020E030E040E251E40E944C0D62
:1013E0001F5F1C13F7CF262F372F482F592FC5010A
:1013F000B4010E94E40C962EA72EB82EC92E0E948E
:10140000B90DD62EE72EF82E192F0E94E50D9B015F
:10141000AC01692D7A2D8B2D9C2D0E94E30CC62EDC
:10142000B72EA82E992E2AE04D2D5E2D6F2D712FEF
:10143000C3010E940C098C01040D151DCC23B9F1C8
:1014400066EF71E0C3010E94F308080F191F2FC057
:1014500020E030E040E251E46C2D7B2D8A2D992D67
:101460000E94E00E4B015C01792D9B2D0E94B40D72
:101470006B01EE24D7FCE094FE2C2AE030E0B701AB
:10148000A601C3010E946809080F191FC701B60110
:101490000E94E70D9B01AC01682D792D8A2D9B2DB3
:1014A0000E94E30CC62EB72EA82E992EC150C11152
:1014B000CFCFC801CF911F910F91FF90EF90DF9098
:1014C000CF90BF90AF909F908F907F906F905F90E4
:1014D0004F9008950C94BC090F931F93CF93DF9303
:1014E000EC010E947605688779878A879B87E88167
:1014F000F9810680F781E02DCE0109959C0197FFC7
:1015000015C00E947605088519852A853B85601BD4
:10151000710B820B930B0C811D812E813F81601713
:1015200071078207930718F32FEF3FEFC901DF918F
:10153000CF911F910F910895FC01448355836683D9
:1015400077830895CF92DF92EF92FF920F931F93CC
:10155000CF93DF937C018B016A01C0E0D0E009C02A
:10156000C7010E946C0A97FD07C0F80181938F01A3
:101570002196CC15DD05A1F7CE01DF91CF911F910A
:101580000F91FF90EF90DF90CF900895CF93DF936E
:10159000EC0160E08E810E947F0681E090E00E9475
:1015A000D80561E08E810E947F0681E090E00E9474
:1015B000D80560E08E810E947F0684E690E0DF918E
:1015C000CF910C94D805CF92DF92EF92FF920F93B8
:1015D0001F93CF93DF937C01C0E0D0E0C62ED12CC7
:1015E00087010C0F1D1F61E0F80187810E944706EB
:1015F000B6010C2E02C0759567950A94E2F76170EA
:101600007727F80187810E947F062196C430D10593
:1016100039F7C701DF91CF911F910F91FF90EF90A4
:10162000DF90CF900C94C60ACF92DF92EF92FF9298
:101630000F931F93CF93DF937C01C0E0D0E0C62EC1
:10164000D12C87010C0F1D1F61E0F80187810E94DA
:101650004706B6010C2E02C0759567950A94E2F70D
:1016600061707727F80187810E947F062196C83034
:10167000D10539F7C701DF91CF911F910F91FF90ED
:10168000EF90DF90CF900C94C60A1F93CF93DF9317
:10169000EC01162F642F8C810E947F068D818F3F75
:1016A00019F060E00E947F068F85612F84FF06C0DD
:1016B000CE01DF91CF911F910C94140B70E084E068
:1016C000759567958A95E1F7CE010E94E30A612F2F
:1016D000CE01DF91CF911F910C94E30A41E00E946B
:1016E000450B81E090E0089540E00C94450BFC012F
:1016F0006089262F2460208B6C600C94740BCF9330
:10170000DF93CDB7DEB728970FB6F894DEBF0FBED4
:10171000CDBF28E0E7EBF1E0DE01119601900D92DC
:101720002A95E1F7FC012389421710F0422F41501E
:10173000E1E0F0E0EC0FFD1F22E0429FE00DF11D23
:1017400011242081260F2068622F28960FB6F89466
:10175000DEBF0FBECDBFDF91CF910C94740B61E063
:101760000E94740B80ED97E00C94D805CF93DF9323
:10177000EC01423018F08F8588608F874B8B1C8A74
:10178000222329F0413019F48F8584608F8780E50A
:1017900093EC0E94D80560E08C810E947F0660E097
:1017A0008E810E947F068D818F3F19F060E00E943C
:1017B0007F066F8564FD1DC063E0CE010E94E30AD1
:1017C00084E991E10E94D80563E0CE010E94E30A1A
:1017D00084E991E10E94D80563E0CE010E94E30A0A
:1017E00086E990E00E94D80562E0CE010E94E30AFB
:1017F00016C06062CE010E94740B84E991E10E94E0
:10180000D8056F856062CE010E94740B86E990E076
:101810000E94D8056F856062CE010E94740B6F85AF
:101820006062CE010E94740B84E0888BCE010E941E
:10183000770BCE010E94AF0B82E0898B66E0CE0170
:10184000DF91CF910C94740B6F927F928F92AF9235
:10185000CF92EF920F931F93CF93DF93CDB7DEB765
:101860003C01162F842F5D854E853F859889F301B5
:10187000848325830683E782C086A1868286538778
:1018800044873587968761E00E944706F30185818A
:101890008F3F19F061E00E94470661E0F301868105
:1018A0000E944706112319F0F301178603C080E157
:1018B000F301878720E041E060E1C301DF91CF9130
:1018C0001F910F91EF90CF90AF908F907F906F907E
:1018D0000C94B60B8F92AF92CF92EF920F93DC01E4
:1018E00013961C921E921297ECEFF1E0ED93FC938D
:1018F0001F921F921F921F928A2CAC2CCE2CE02E8E
:10190000022F242F462F61E00E94240C0F900F908D
:101910000F900F900F91EF90CF90AF908F90089510
:10192000662777270C94430FF8940C948B11911130
:1019300021C4803219F089508550D0F70895FB01F9
:10194000DC018D91019080190110D9F3990B089554
:10195000FB0151915523A9F0BF01DC014D914517C1
:101960004111E1F759F4CD010190002049F04D916A
:1019700040154111C9F3FB014111EFCF81E090E027
:1019800001970895FB019F01E8944230C4F045326D
:10199000B4F44A3029F497FB1EF4909581959F4F3B
:1019A000642F77270E941811805D8A330CF0895DBF
:1019B0008193CB010097A1F716F45DE25193108259
:1019C000C9010C94D5105058BB27AA270ED075C159
:1019D00066D130F06BD120F031F49F3F11F41EF44A
:1019E0005BC10EF4E095E7FB51C1E92F77D180F39D
:1019F000BA17620773078407950718F071F49EF50C
:101A00008FC10EF4E0950B2EBA2FA02D0B01B9015A
:101A100090010C01CA01A0011124FF27591B99F064
:101A2000593F50F4503E68F11A16F040A22F232F70
:101A3000342F4427585FF3CF469537952795A795C0
:101A4000F0405395C9F77EF41F16BA0B620B730B67
:101A5000840BBAF09150A1F0FF0FBB1F661F771FD8
:101A6000881FC2F70EC0BA0F621F731F841F48F48D
:101A7000879577956795B795F7959E3F08F0B3CF13
:101A80009395880F08F09927EE0F979587950895FD
:101A9000D9D008F481E008950CD00FC107D140F0EF
:101AA000FED030F021F45F3F19F0F0C0511139C180
:101AB000F3C014D198F39923C9F35523B1F3951BBF
:101AC000550BBB27AA2762177307840738F09F5F5F
:101AD0005F4F220F331F441FAA1FA9F333D00E2ECE
:101AE0003AF0E0E830D091505040E695001CCAF73B
:101AF00029D0FE2F27D0660F771F881FBB1F261700
:101B000037074807AB07B0E809F0BB0B802DBF01D2
:101B1000FF2793585F4F2AF09E3F510568F0B6C0EB
:101B200000C15F3FECF3983EDCF3869577956795AF
:101B3000B795F7959F5FC9F7880F911D9695879583
:101B400097F90895E1E0660F771F881FBB1F6217A2
:101B500073078407BA0720F0621B730B840BBA0B60
:101B6000EE1F88F7E095089504D06894B111D9C0AC
:101B70000895BCD088F09F5790F0B92F9927B7519E
:101B8000A0F0D1F0660F771F881F991F1AF0BA9541
:101B9000C9F712C0B13081F0C3D0B1E00895C0C020
:101BA000672F782F8827B85F39F0B93FCCF3869537
:101BB00077956795B395D9F73EF490958095709594
:101BC00061957F4F8F4F9F4F0895E89409C097FB11
:101BD0003EF490958095709561957F4F8F4F9F4F04
:101BE0009923A9F0F92F96E9BB279395F695879548
:101BF00077956795B795F111F8CFFAF4BB0F11F40B
:101C000060FF1BC06F5F7F4F8F4F9F4F16C08823B1
:101C100011F096E911C0772321F09EE8872F762FE7
:101C200005C0662371F096E8862F70E060E02AF028
:101C30009A95660F771F881FDAF7880F9695879514
:101C400097F90895990F0008550FAA0BE0E8FEEFE9
:101C500016161706E807F907C0F012161306E40770
:101C6000F50798F0621B730B840B950B39F40A2669
:101C700061F0232B242B252B21F408950A2609F447
:101C8000A140A6958FEF811D811D089597F99F674B
:101C900080E870E060E008959FEF80EC08950024F4
:101CA0000A941616170618060906089500240A94C1
:101CB00012161306140605060895092E0394000C47
:101CC00011F4882352F0BB0F40F4BF2B11F460FFD6
:101CD00004C06F5F7F4F8F4F9F4F089557FD9058FF
:101CE000440F551F59F05F3F71F04795880F97FBE0
:101CF000991F61F09F3F79F087950895121613069A
:101D00001406551FF2CF4695F1DF08C016161706C8
:101D10001806991FF1CF86957105610508940895FD
:101D2000E894BB2766277727CB0197F908958ADFC8
:101D300008F48FEF08950EF048C2AECF6894A6CF96
:101D4000D5DFC8F39923D1F3C6F3DF93CF931F9365
:101D50000F93FF92C92FDD2788232AF02197660F62
:101D6000771F881FDAF720E030E040E85FEB9FE361
:101D7000883920F0803E30F021968F7725DEE8E626
:101D8000F0E003C021DEE5E9F0E02DD28B01BE01D9
:101D9000EC01FB2E6F5771097595771F880B990B16
:101DA00016DF28E132E741E35FE316D0AF2D98015B
:101DB000AE01FF900F911F91CF91DF9116DE7DCF85
:101DC0000BD07BCF6CDF28F071DF18F0952309F082
:101DD0005DCF62CF1124A5CF81DFA0F3959FD1F312
:101DE000950F50E0551F629FF001729FBB27F00DC9
:101DF000B11D639FAA27F00DB11DAA1F649F66271E
:101E0000B00DA11D661F829F2227B00DA11D621F6C
:101E1000739FB00DA11D621F839FA00D611D221F26
:101E2000749F3327A00D611D231F849F600D211D0A
:101E3000822F762F6A2F11249F5750408AF0E1F0AD
:101E400088234AF0EE0FFF1FBB1F661F771F881FF6
:101E500091505040A9F79E3F510570F017CF61CFC8
:101E60005F3FECF3983EDCF3869577956795B795E1
:101E7000F795E7959F5FC1F7FE2B880F911D96950B
:101E8000879597F90895A1E0B0E0E9E4FFE00C94AC
:101E900052115B016115710521F0DB018C931196E4
:101EA0009C93482F592F6A01F601E1906F018F0131
:101EB0008E2D90E00E94970C0097B1F7FE2DFD3219
:101EC00029F4D601ED908D0121E007C0BE2DBB3273
:101ED00019F4F601E1908F0120E068010894C1082F
:101EE000D108C6016CE171E043E050E029830E9413
:101EF000BD102981009711F572E0E72EF12CE00E5C
:101F0000F11EC7016FE171E045E050E00E94BD1095
:101F10002981009729F467E0E62EF12CE00EF11EEE
:101F2000A114B10421F0D5011196FC92EE9220FF8C
:101F30000FC130E020E090E88FEF12C1C60164E2EB
:101F400071E043E050E029830E94BD102981009791
:101F500031F060E070E0CB01662477240AC0A11460
:101F6000B10409F4F9C00E5F1F4FF501118300831E
:101F7000F3C03E2D30533A30A0F52260E22FF0E05E
:101F8000AF014870507022FF07C04115510571F52F
:101F90000894611C711C2AC04115510519F0089460
:101FA000610871086B017C0152E0CC0CDD1CEE1C59
:101FB000FF1C5A95D1F76C0D7D1D8E1D9F1D660F60
:101FC000771F881F991F630F711D811D911D68392F
:101FD000F9E97F07F9E98F07F9E19F0738F02460F5
:101FE00005C03E3F39F423FD3FC02860D801ED9085
:101FF0008D01BFCF353311F03531B1F5F801319195
:102000003D3211F4206102C03B3241F4D8011196F7
:102010003C911197319642E050E002C041E050E01F
:1020200030533A3020F08F01041B150B1DC040E0E7
:1020300050E0BCE040385B075CF4DA01AA0FBB1F3C
:10204000AA0FBB1F4A0F5B1F440F551F430F511DA3
:10205000319130538F013A3060F324FF03C0509523
:1020600041955F4F640E751EC22EDD2421FF08C00E
:10207000A114B10429F001501040F501118300832F
:102080000E94E50D7B018C01F3E0CF22DD2433E0DB
:10209000C316D10421F417FB109517F91095C80148
:1020A000B70120E030E0A9010E94480D882309F41F
:1020B0004AC077FE09C04BE3C42E41E0D42E709491
:1020C00061947108739404C033E5C32E31E0D32EBC
:1020D00026E0822E912C90E2A92EB12C0FC0F601A1
:1020E0002591359145915491C801B7010E94E00EA8
:1020F000E62EF72E082F192F6A187B086A147B0426
:1021000074F7B594A79408948108910881149104F8
:1021100029F08CEF9FEFC80ED91EF0CFB701C80190
:10212000282F220F292F221F2F3F39F020E030E0E7
:10213000A9010E94480D882331F482E290E0909337
:10214000D6028093D5023E2D2F2D902F812F08C0CF
:1021500030E020E090E803C030E020E090EC8FE732
:10216000F901AC016F2F722F852F942F2196EEE08D
:102170000C946E11992788270895FB01DC014150CA
:10218000504088F08D9181341CF08B350CF4805ECA
:10219000659161341CF06B350CF4605E861B611137
:1021A00071F3990B0895881BFCCFDC01FC01672FAC
:1021B00071917723E1F7329704C07C916D9370831E
:1021C0006291AE17BF07C8F308959F3F31F0915059
:1021D00020F4879577956795B795880F911D96950B
:1021E000879597F90895DF93CF931F930F93FF92ED
:1021F000EF92DF927B018C01689405C0DA2EEF012B
:10220000EBDDFE01E894A59125913591459155911D
:10221000AEF3EF01EADBFE019701A801DA9479F74A
:10222000DF90EF90FF900F911F91CF91DF91089574
:10223000AA1BBB1B51E107C0AA1FBB1FA617B707EC
:1022400010F0A61BB70B881F991F5A95A9F7809508
:102250009095BC01CD010895A1E21A2EAA1BBB1BCB
:10226000FD010DC0AA1FBB1FEE1FFF1FA217B30762
:10227000E407F50720F0A21BB30BE40BF50B661F78
:10228000771F881F991F1A9469F76095709580953C
:1022900090959B01AC01BD01CF0108952F923F9213
:1022A0004F925F926F927F928F929F92AF92BF9266
:1022B000CF92DF92EF92FF920F931F93CF93DF9312
:1022C000CDB7DEB7CA1BDB0B0FB6F894DEBF0FBE6F
:1022D000CDBF09942A88398848885F846E847D84BC
:1022E0008C849B84AA84B984C884DF80EE80FD80BE
:1022F0000C811B81AA81B981CE0FD11D0FB6F89434
:10230000DEBF0FBECDBFED010895EE0FFF1F05909C
:0A231000F491E02D0994F894FFCF3A
:10231A0041637475616C3A2000206F0020002A2AFC
:10232A002A2A48454154204F46462A2A2A2A005337
:10233A0065743A202020200052544D502D2D2D2D09
:10234A002D0061545352544D500054544D50002D99
:10235A002D2D2D2D0061545354544D50005354418A
:10236A00540061545353544154002D2D2D2D0031E6
:10237A002D2D2D2D0061545353544154312D2D2DA3
:10238A002D00302D2D2D2D006154535354415430BE
:10239A002D2D2D2D0052454C412D2D2D2D2D006119
:1023AA00545352454C4100303030303030303030A8
:1023BA0000100006000800110007000D000000A030
:1023CA0041430000803E0100004000140054000018
:1023DA000000000A00000064000000E8030000108A
:1023EA00270000A086010040420F00809698000056
:1023FA00E1F505545300000000004207CB08DF0650
:10240A000E07F20630072E00000000006E0BCB0804
:00000001FF
