:100000000C94AE000C94D6000C94D6000C94D60040
:100010000C94D6000C94D6000C94D6000C94D60008
:100020000C94D6000C94D6000C94D6000C94D600F8
:100030000C94D6000C94D6000C94D6000C94D600E8
:100040000C940F050C94D6000C945D070C94990742
:100050000C94D6000C94D6000C94D6000C94D600C8
:100060000C94D6000C94D60008000000BE922449DF
:10007000123EABAAAA2ABECDCCCC4C3E00000080DA
:10008000BEABAAAAAA3E00000000BF000000803F4D
:100090000000000000084178D3BB4387D1133D190D
:1000A0000E3CC3BD4282AD2B3E68EC8276BED98F3A
:1000B000E1A93E4C80EFFFBE01C4FF7F3F0000007E
:1000C0000000000000070002010000030406000019
:1000D000000000000000010204081020408001021E
:1000E000040810200102040810200404040404047D
:1000F00004040202020202020303030303030000DA
:100100000000230026002900000000002500280030
:100110002B0000000000240027002A00494E464919
:100120004E4954594E414E000020410000C8420043
:10013000401C4620BCBE4CCA1B0E5AAEC59D74CD99
:10014000CCCC3D0AD7233C17B7D13877CC2B32958E
:1001500095E6241FB14F0A00D704540811241FBE8E
:10016000CFEFD8E0DEBFCDBF11E0A0E0B1E0E2EC20
:10017000F2E202C005900D92AE3DB107D9F712E050
:10018000AEEDB1E001C01D92A53BB107E1F711E072
:10019000CCE5D1E004C02297FE010E945B11C83576
:1001A000D107C9F70E94A4080C94710C0C940000AC
:1001B000CF93DF9320E044E162E08AEE91E00E9479
:1001C000930B61E0809113010E942A0660E0809108
:1001D00011010E942A06CFE0D1E061E088810E94EF
:1001E0002A0661E088810E94620660E080910D012C
:1001F0000E942A0660E080910B010E942A06C9E055
:10020000D1E061E088810E942A0661E088810E9435
:1002100062068AEE91E00E948C0B40E855E260E0B5
:1002200070E08CE092E0DF91CF910C94D407682FBE
:10023000809109010E9462061092E7011092E60186
:100240000895EF92FF920F931F93CF93DF938091C6
:10025000DF01811136C0809111010E9499068C0145
:1002600080910D010E9499067C018091FF0190917F
:1002700000020817190739F4209101023091020297
:10028000E216F30699F0892B89F40130110571F417
:10029000C0910102D0910202D195C195D109CC0F34
:1002A000DD1F219681E00E94170102C0C0E0D0E06E
:1002B000109300020093FF01F0920202E09201020B
:1002C00002C0C0E0D0E0CE01DF91CF911F910F912D
:1002D000FF90EF9008958091E8010E94EE04BC0128
:1002E000882777FD8095982F0E94C40D9B01AC0153
:1002F00060E071E284E097E40E94290D20E030E0A4
:1003000044E052E40E94C00C20E030E044E052E4BB
:100310000E94290D0E947D0E2AEE38E94BE551E43A
:100320000E94C10C9B01AC0160E070EA8FE795E48C
:100330000E94290D20E030E848E853E40E94C00CF8
:1003400008954F925F926F927F928F929F92AF9299
:10035000BF92CF92DF92EF92FF928091DF018111E5
:100360003DC0C090E001D090E101E090E201F0904A
:10037000E3018090050190900601A0900701B090E4
:1003800008014090000150900101609002017090BE
:100390000301A3019201C501B4010E94C00C9B019D
:1003A000AC01C701B6010E94250D87FF09C061E0BD
:1003B000809113010E94620681E08093DE0115C0E6
:1003C000A3019201C501B4010E94C10C9B01AC01C3
:1003D000C701B6010E94740E18163CF460E08091CB
:1003E00013010E9462061092DE01FF90EF90DF90F1
:1003F000CF90BF90AF909F908F907F906F905F90C5
:100400004F90089520910401233491F020E030E0D2
:1004100040E151E40E94BD0E20E030E040EA50E4AB
:100420000E94290D20E030E040E052E40E94C10C1F
:10043000089540E060E08AEE91E00E945F0B62E484
:1004400071E08AEE91E00E94E9086091E00170910C
:10045000E1018091E2019091E3010E940202AB016F
:10046000BC0122E030E08AEE91E00E944A0A6BE48F
:1004700071E08AEE91E00E94E908609104018AEE41
:1004800091E00E94EB0866E671E08AEE91E00E943E
:10049000E90841E060E08AEE91E00E945F0B809104
:1004A000DF01882319F06EE471E026C06FE571E08A
:1004B0008AEE91E00E94E9086091050170910601C1
:1004C00080910701909108010E940202AB01BC01DA
:1004D00022E030E08AEE91E00E944A0A6BE471E08B
:1004E0008AEE91E00E94E908609104018AEE91E0B1
:1004F0000E94EB0866E671E08AEE91E00C94E90850
:100500000E946B016093E0017093E1018093E2012E
:100510009093E30180910B010E949906892B91F041
:1005200081E00E94170181E09091DF01911180E04C
:100530008093DF010E94190264EF71E080E090E097
:100540000E9495050E942101BC01882777FD8095B6
:10055000982F0E94C40D20E030E040E05FE30E944D
:10056000BD0E9B01AC016091050170910601809167
:100570000701909108010E94C10C609305017093DE
:10058000060180930701909308018091E401909106
:10059000E501883E9340D9F48091E6019091E7010E
:1005A0008436910519F480E00E9417018091E601DC
:1005B0009091E70101969093E7018093E6010E94F4
:1005C00019020E94A1011092E5011092E4018091AC
:1005D000E4019091E50101969093E5018093E40197
:1005E00008954F925F926F927F928F929F92AF92F7
:1005F000BF92CF92DF92EF92FF920F931F93CF9310
:10060000DF93CDB7DEB7A4970FB6F894DEBF0FBE69
:10061000CDBF6C014A015B01890184E2E6E1F1E0B2
:10062000DE01119601900D928A95E1F7CB01BA0196
:100630000E94910D3B012C014AE050E0B601C3013C
:100640000E949F0C9601F9012F5F3F4F808181111D
:10065000FACF8EE281937F01B301C2010E94C40DE3
:100660009B01AC01C501B4010E94C00C4B015C01AF
:10067000F801EE0FFF1FEE0FFF1FEC0FFD1F618152
:100680007281838194810E94C40D9B01AC01C501DC
:10069000B4010E94BD0E24E13EEA47E45FE30E94FC
:1006A000C10C0E94910D8B019C0137FF07C0309552
:1006B0002095109501951F4F2F4F3F4F4AE050E076
:1006C000B701C8010E949F0CC601A4960FB6F8940A
:1006D000DEBF0FBECDBFDF91CF911F910F91FF9075
:1006E000EF90DF90CF90BF90AF909F908F907F90D2
:1006F0006F905F904F900895CF92DF92EF92FF92AC
:10070000CF93DF93CDB7DEB7A3970FB6F894DEBFD4
:100710000FBECDBF48EE53E060E070E08CE092E0A9
:100720000E947C0A4CE050E0BE016F5F7F4F8CE07E
:1007300092E00E94820A0C970CF42CC11D868981DC
:10074000813609F027C119A21AA21BA28A8189A3A6
:100750008B818AA360EC71E0CE0181960E947C0CB3
:10076000009709F017C119A2FE013496DE015896D0
:10077000CE010D9621912D93E817F907D9F768E678
:1007800071E0CE0148960E94850C892BE1F18AE048
:10079000E6EBF1E0DE011E9601900D928A95E1F7FD
:1007A0004091E0015091E1016091E2017091E3011B
:1007B0007E018EE0E80EF11C22E030E0C7010E94CD
:1007C000F102F70101900020E9F7C7018E1B9F0B92
:1007D0000696181619065CF01B8A62E771E08CE039
:1007E00092E00E94E908BE01625F7F4FCFC0FE0128
:1007F000749620E030E04DE242932F5F3F4F281780
:100800003907D1F7E9CF6DE771E0CE0148960E9434
:10081000850C892B09F44FC07E01EEE0EE0EF11C31
:1008200086E0F70111928A95E9F78C8D8E878D8D80
:100830008F878E8D888B8F8D898B88A18A8B68EAB4
:1008400071E0C7010E94850C892B09F01FC0C70108
:100850000E946D0C6B017C0120E030E040E251E42D
:100860000E94740E181694F420E030E040EF51E43A
:10087000C701B6010E94250D87FF08C0C09205017F
:10088000D0920601E0920701F09208016AE771E058
:100890008CE092E00E94E908409105015091060128
:1008A000609107017091080122E030E08CE092E055
:1008B0000E944A0A6FC065E871E0CE0148960E9426
:1008C000850C892B09F44BC07E01FEE0EF0EF11C74
:1008D00086E0F70111928A95E9F78C8D8E878D8DD0
:1008E0008F878E8D888B8F8D898B88A18A8B68EA04
:1008F00071E0C7010E94850C892BC1F062E871E0AC
:100900008CE092E00E94E9088091DF014AE050E02B
:10091000882319F060E070E002C061E070E08CE0D4
:1009200092E00E94990969EA71E030C061E971E0E2
:10093000C7010E94850C892B29F01092DF016AE81B
:1009400071E024C06EE971E0C7010E94850C892B1B
:1009500009F181E08093DF0167E971E017C064EA83
:1009600071E0CE0148960E94850C892B99F06EEAC1
:1009700071E08CE092E00E94E9088091DE0188231A
:1009800019F061E971E002C06EE971E08CE092E07B
:100990000E94E908A3960FB6F894DEBF0FBECDBF44
:1009A000DF91CF91FF90EF90DF90CF900895AF92BD
:1009B000CF92EF920F9322E0A22E33E0C32E44E0B9
:1009C000E42E05E02AE04BE06CE08AEE91E00E9424
:1009D000470C0F91EF90CF90AF9008958E3008F0B4
:1009E0008E5087702091150140E4249F90011124BE
:1009F000822B80937C0080917A00806480937A00BF
:100A000080917A0086FDFCCF2091780030917900AA
:100A1000932F80E0AC01422B9A01C90108951F92E7
:100A20000F920FB60F9211242F933F938F939F93A2
:100A3000AF93BF938091030290910402A0910502AD
:100A4000B091060230910B02232F2D5F2D3720F439
:100A50000196A11DB11D05C0232F2A570296A11D85
:100A6000B11D20930B028093030290930402A09384
:100A70000502B09306028091070290910802A091AE
:100A80000902B0910A020196A11DB11D80930702CF
:100A900090930802A0930902B0930A02BF91AF910C
:100AA0009F918F913F912F910F900FBE0F901F90AC
:100AB00018950F931F938FB7F8940091030210912C
:100AC000040220910502309106028FBFB801C901CE
:100AD0001F910F9108950F931F939FB7F894009162
:100AE0000702109108022091090230910A0286B58E
:100AF000A89B06C08F3F21F00F5F1F4F2F4F3F4F26
:100B00009FBF322F212F102F0027080F111D211DED
:100B1000311D42E0000F111F221F331F4A95D1F7EC
:100B2000B801C9011F910F910895CF92DF92EF9202
:100B3000FF92CF93DF936B017C010E946B05EB0169
:100B40000EC00E946B056C1B7D0B683E734038F035
:100B500081E0C81AD108E108F108C851DC4FC1147E
:100B6000D104E104F10469F7DF91CF91FF90EF9098
:100B7000DF90CF900895019739F0880F991F880F63
:100B8000991F02970197F1F70895789484B58260D0
:100B900084BD84B5816084BD85B5826085BD85B521
:100BA000816085BDEEE6F0E0808181608083E1E8D0
:100BB000F0E0108280818260808380818160808308
:100BC000E0E8F0E0808181608083E1EBF0E080810B
:100BD00084608083E0EBF0E0808181608083EAE7DD
:100BE000F0E0808184608083808182608083808166
:100BF000816080838081806880831092C100089525
:100C0000833069F028F48130A1F0823011F514C0EE
:100C10008630B1F08730C1F08430D9F404C08091BF
:100C200080008F7703C0809180008F7D809380004B
:100C3000089584B58F7702C084B58F7D84BD0895F3
:100C40008091B0008F7703C08091B0008F7D80933A
:100C5000B0000895CF93DF9390E0FC01EA52FF4F7C
:100C60004491FC01E651FF4F8491882341F190E0CB
:100C7000880F991FFC01EE5EFE4F25913491D9013A
:100C8000885F9E4FFC0185919491C82FD92F9FB703
:100C9000F8948C91611106C0409584238C938881CF
:100CA000842308C0623041F4242F209582238C9342
:100CB0008881842B888302C0842B8C939FBFDF9113
:100CC000CF9108950F931F93CF93DF931F92CDB7CA
:100CD000DEB7282F30E0F901EE53FF4F8491F90180
:100CE000EA52FF4F1491F901E651FF4F049100239E
:100CF000D1F0882321F069830E9400066981E02FEA
:100D0000F0E0EE0FFF1FE85FFE4F85919491DC014C
:100D10009FB7F8948C91611103C01095812301C095
:100D2000812B8C939FBF0F90DF91CF911F910F91DB
:100D30000895CF93DF93282F30E0F901EE53FF4F52
:100D40008491F901EA52FF4FD491F901E651FF4F26
:100D5000C491CC2389F081110E940006EC2FF0E0B1
:100D6000EE0FFF1FE250FF4F85919491DC018C91B3
:100D70008D2321E030E011F420E030E0C901DF9163
:100D8000CF910895FC0184859585FC01E05CFF4FBF
:100D900020813181FC01EE5BFF4F80819181281B16
:100DA000390B2F733327C9010895FC01848595857C
:100DB000FC01E05CFF4F40815181FC01EE5BFF4F85
:100DC000208131814217530741F00190F081E02DDD
:100DD000E80FF91F208130E002C02FEF3FEFC9017B
:100DE0000895FC0184859585FC01E05CFF4F4081FE
:100DF0005181FC01EE5BFF4F208131814217530787
:100E000081F0A081B181A80FB91F8C91208131811F
:100E10002F5F3F4F2F73332731832083282F30E0FC
:100E200002C02FEF3FEFC9010895FC018685978529
:100E3000FC01E05CFF4FDC01AE5BBF4F40815181A4
:100E40002D913C91119742175307C1F70895CF9305
:100E5000DF93FC0186859785DC01A05CBF4F2D9157
:100E60003C9111972F5F3F4F2F733327EC01CE5BDF
:100E7000DF4F4881598124173507D9F30D90BC9174
:100E8000A02DA80FB91F6C93A685B785A05CBF4F96
:100E900011963C932E93A689B7892C9181E090E01E
:100EA000058C02C0880F991F0A94E2F7282B2C9317
:100EB00081E090E0DF91CF9108951F920F920FB6DD
:100EC0000F9211242F933F934F938F939F93EF9300
:100ED000FF934091C6008091AF029091B0020196BD
:100EE0008F7399272091B1023091B2028217930734
:100EF00059F0E091AF02F091B002E159FD4F40830B
:100F00009093B0028093AF02FF91EF919F918F91E8
:100F10004F913F912F910F900FBE0F901F901895FA
:100F20008CE092E00E94C206892B11F00C947C03A5
:100F300008951F920F920FB60F9211242F933F9393
:100F40008F939F93EF93FF9320916B0230916C02EC
:100F500080916D0290916E022817390731F48091CB
:100F6000C1008F7D8093C10014C0E0916D02F091AB
:100F70006E02E55DFD4F208180916D0290916E02C1
:100F800001968F73992790936E0280936D02209340
:100F9000C600FF91EF919F918F913F912F910F90FC
:100FA0000FBE0F901F901895CF92DF92EF92FF9295
:100FB000CF93DF93EC016A017B01411581EE580765
:100FC00061057105F9F0EC89FD8981E090E00E8CF6
:100FD00002C0880F991F0A94E2F7808360E079E0ED
:100FE0008DE390E0A70196010E94F4102150310991
:100FF000410951095695479537952795211580E167
:10100000380798F0EC89FD89108260E874E88EE179
:1010100090E0A70196010E94F41021503109410986
:1010200051095695479537952795E889F989308371
:10103000EA89FB892083EE89FF89408181E090E085
:101040009C010A8C02C0220F331F0A94E2F7422B44
:101050004083EE89FF8940819C010B8C02C0220FE6
:10106000331F0A94E2F7422B4083EE89FF894081C7
:101070009C010C8C02C0220F331F0A94E2F7422B12
:101080004083EE89FF8920810D8C02C0880F991F53
:101090000A94E2F7809582238083DF91CF91FF90BD
:1010A000EF90DF90CF90089510920F0210920E02F1
:1010B00088EE93E0A0E0B0E08093100290931102DC
:1010C000A0931202B093130287EC91E090930D026B
:1010D00080930C028FE692E090931902809318029D
:1010E0008BE292E090931B0280931A0285EC90E0D1
:1010F00090931D0280931C0284EC90E090931F0259
:1011000080931E0280EC90E0909321028093200255
:1011100081EC90E0909323028093220286EC90E091
:10112000909325028093240284E08093260283E03A
:101130008093270287E08093280285E0809329022C
:1011400081E080932A0208950E94C5050E94D8007C
:10115000C0E9D7E00E9480022097E1F30E94900747
:10116000F9CFCF92DF92EF92FF920F931F93CF931D
:10117000DF936C01EB017A01E60EF71E00E010E050
:101180000BC06991D601ED91FC910190F081E02DA9
:10119000C6010995080F191FCE15DF0591F7C80183
:1011A000DF91CF911F910F91FF90EF90DF90CF9043
:1011B0000895DB010D900020E9F7AD014150510980
:1011C000461B570BDC01ED91FC910280F381E02D71
:1011D00009940C94D908DC01ED91FC910190F08107
:1011E000E02D09944F925F926F927F929F92AF92FF
:1011F000BF92CF92DF92EF92FF920F931F93CF9304
:10120000DF93CDB7DEB7A1970FB6F894DEBF0FBE60
:10121000CDBF5C016A017B01922E19A281E0821789
:1012200010F08AE0982E8E010F5D1F4F492C512C33
:10123000612C712CC701B601A30192010E94F41028
:101240008C2D929E80191124015011098A3014F4BA
:10125000805D01C0895CF801808369017A01C11455
:10126000D104E104F10431F7B801C5010E94D908A5
:10127000A1960FB6F894DEBF0FBECDBFDF91CF9120
:101280001F910F91FF90EF90DF90CF90BF90AF90A4
:101290009F907F906F905F904F900895CF92DF92D4
:1012A000EF92FF920F931F93CF93DF93EC016A01AC
:1012B0007B012115310579F4E881F9810190F081F4
:1012C000E02D642FDF91CF911F910F91FF90EF9050
:1012D000DF90CF9009942A30310519F477FD0EC0C4
:1012E0002AE0B701A601CE01DF91CF911F910F91A6
:1012F000FF90EF90DF90CF900C94F2086DE20E9487
:10130000EB088C0144275527BA014C195D096E0979
:101310007F092AE0CE010E94F208080F191FC801B8
:10132000DF91CF911F910F91FF90EF90DF90CF90C1
:1013300008959A01AB01662757FD6095762F0C94AE
:101340004E097F928F929F92AF92BF92CF92DF927F
:10135000EF92FF920F931F93CF93DF938C014A017B
:101360005B01F22E20E030E0A901C501B4010E942A
:10137000250D87FF0AC06DE2C8010E94EB08EC0151
:10138000B7FAB094B7F8B09402C0C0E0D0E0E12C56
:1013900060E070E080E09FE307C020E030E040E2E2
:1013A00051E40E94290DE394EF10F7CF262F372F39
:1013B000482F592FC501B4010E94C10C762E872EEB
:1013C000982EA92E0E94960DB62EC72ED82EE92E45
:1013D0000E94C20D9B01AC01672D782D892D9A2D9D
:1013E0000E94C00CA62E972E882E792E2AE04B2D17
:1013F0005C2D6D2D7E2DC8010E94F208C80FD91FEB
:10140000FF20B9F163ED71E0C8010E94D908C80F4F
:10141000D91F2FC020E030E040E251E46A2D792D41
:10142000882D972D0E94BD0E762EC72ED82EE92E20
:101430000E94910D4B01AA2497FCA094BA2C2AE09B
:1014400030E0B501A401C8010E944E09C80FD91FA0
:10145000C501B4010E94C40D9B01AC01672D7C2D18
:101460008D2D9E2D0E94C00CA62E972E882E792E93
:10147000FA94F110CFCFCE01DF91CF911F910F9150
:10148000FF90EF90DF90CF90BF90AF909F908F90A4
:101490007F9008950C94A1090F931F93CF93DF932E
:1014A000EC010E945905688779878A879B87E881C4
:1014B000F9810680F781E02DCE0109959C0197FF07
:1014C00015C00E945905088519852A853B85601B32
:1014D000710B820B930B0C811D812E813F81601754
:1014E00071078207930718F32FEF3FEFC901DF91D0
:1014F000CF911F910F910895FC014483558366831A
:1015000077830895CF92DF92EF92FF920F931F930C
:10151000CF93DF937C018B016A01C0E0D0E009C06A
:10152000C7010E944C0A97FD07C0F80181938F0103
:101530002196CC15DD05A1F7CE01DF91CF911F914A
:101540000F91FF90EF90DF90CF900895CF93DF93AE
:10155000EC0160E08E810E94620681E090E00E94D2
:10156000BB0561E08E810E94620681E090E00E94EE
:10157000BB0560E08E810E94620684E690E0DF9108
:10158000CF910C94BB05CF92DF92EF92FF920F9315
:101590001F93CF93DF937C01C0E0D0E0C62ED12C07
:1015A00087010C0F1D1F61E0F80187810E942A0648
:1015B000B6010C2E02C0759567950A94E2F761702A
:1015C0007727F80187810E9462062196C430D105F1
:1015D00039F7C701DF91CF911F910F91FF90EF90E5
:1015E000DF90CF900C94A60ACF92DF92EF92FF92F9
:1015F0000F931F93CF93DF937C01C0E0D0E0C62E02
:10160000D12C87010C0F1D1F61E0F80187810E941A
:101610002A06B6010C2E02C0759567950A94E2F76A
:1016200061707727F80187810E9462062196C83091
:10163000D10539F7C701DF91CF911F910F91FF902D
:10164000EF90DF90CF900C94A60A1F93CF93DF9377
:10165000EC01162F642F8C810E9462068D818F3FD2
:1016600019F060E00E9462068F85612F84FF06C03A
:10167000CE01DF91CF911F910C94F40A70E084E0C9
:10168000759567958A95E1F7CE010E94C30A612F8F
:10169000CE01DF91CF911F910C94C30A41E00E94CB
:1016A000250B81E090E0089540E00C94250BFC01AF
:1016B0006089262F2460208B6C600C94540BCF9390
:1016C000DF93CDB7DEB728970FB6F894DEBF0FBE15
:1016D000CDBF28E0EAE3F1E0DE01119601900D9222
:1016E0002A95E1F7FC012389421710F0422F41505F
:1016F000FE013196E40FF11DE40FF11D2081260F4C
:101700002068622F28960FB6F894DEBF0FBECDBFBB
:10171000DF91CF910C94540B61E00E94540B80ED4B
:1017200097E00C94BB05CF93DF93EC01423018F0A7
:101730008F8588608F874B8B1C8A222329F041304C
:1017400019F48F8584608F8780E593EC0E94BB0538
:1017500060E08C810E94620660E08E810E946206D9
:101760008D818F3F19F060E00E9462066F8564FDF5
:101770001DC063E0CE010E94C30A84E991E10E948A
:10178000BB0563E0CE010E94C30A84E991E10E9497
:10179000BB0563E0CE010E94C30A86E990E00E9487
:1017A000BB0562E0CE010E94C30A16C06062CE0192
:1017B0000E94540B84E991E10E94BB056F85606231
:1017C000CE010E94540B86E990E00E94BB056F8514
:1017D0006062CE010E94540B6F856062CE010E9450
:1017E000540B84E0888BCE010E94570BCE010E94DF
:1017F0008C0B82E0898B66E0CE01DF91CF910C9457
:10180000540B6F927F928F92AF92CF92EF920F9381
:101810001F93CF93DF93CDB7DEB73C01162F842FF4
:101820005D854E853F859889F301848325830683F2
:10183000E782C086A186828653874487358796874C
:1018400061E00E942A06F30185818F3F19F061E073
:101850000E942A0661E0F30186810E942A06112374
:1018600019F0F301178603C080E1F301878720E0B8
:1018700041E060E1C301DF91CF911F910F91EF90A3
:10188000CF90AF908F907F906F900C94930B8F922E
:10189000AF92CF92EF920F93DC0113961C921E929F
:1018A0001297E9EDF1E0ED93FC931F921F921F92C6
:1018B0001F928A2CAC2CCE2CE02E022F242F462FE8
:1018C00061E00E94010C0F900F900F900F900F910C
:1018D000EF90CF90AF908F900895662777270C9464
:1018E000200FF8940C945F11911101C4803219F00B
:1018F00089508550D0F70895FB01DC018D9101904E
:1019000080190110D9F3990B0895FB0151915523CA
:10191000A9F0BF01DC014D9145174111E1F759F4E0
:10192000CD010190002049F04D9140154111C9F3BE
:10193000FB014111EFCF81E090E001970895FB0199
:101940009F01E8944230C4F04532B4F44A3029F49F
:1019500097FB1EF4909581959F4F642F77270E94E7
:10196000E010805D8A330CF0895D8193CB01009794
:10197000A1F716F45DE251931082C9010C94921004
:101980005058BB27AA270ED075C166D130F06BD155
:1019900020F031F49F3F11F41EF45BC10EF4E0958A
:1019A000E7FB51C1E92F77D180F3BA1762077307BC
:1019B0008407950718F071F49EF58FC10EF4E09539
:1019C0000B2EBA2FA02D0B01B90190010C01CA01F9
:1019D000A0011124FF27591B99F0593F50F4503EA4
:1019E00068F11A16F040A22F232F342F4427585F96
:1019F000F3CF469537952795A795F0405395C9F7AE
:101A00007EF41F16BA0B620B730B840BBAF0915065
:101A1000A1F0FF0FBB1F661F771F881FC2F70EC004
:101A2000BA0F621F731F841F48F4879577956795D7
:101A3000B795F7959E3F08F0B3CF9395880F08F0C0
:101A40009927EE0F979587950895D9D008F481E0EE
:101A500008950CD00FC107D140F0FED030F021F432
:101A60005F3F19F0F0C0511139C1F3C014D198F3A0
:101A70009923C9F35523B1F3951B550BBB27AA270F
:101A800062177307840738F09F5F5F4F220F331F81
:101A9000441FAA1FA9F333D00E2E3AF0E0E830D04D
:101AA00091505040E695001CCAF729D0FE2F27D050
:101AB000660F771F881FBB1F261737074807AB071E
:101AC000B0E809F0BB0B802DBF01FF2793585F4F93
:101AD0002AF09E3F510568F0B6C000C15F3FECF3AD
:101AE000983EDCF3869577956795B795F7959F5F58
:101AF000C9F7880F911D9695879597F90895E1E0AC
:101B0000660F771F881FBB1F621773078407BA070A
:101B100020F0621B730B840BBA0BEE1F88F7E09565
:101B2000089504D06894B111D9C00895BCD088F04C
:101B30009F5790F0B92F9927B751A0F0D1F0660FB9
:101B4000771F881F991F1AF0BA95C9F712C0B130D4
:101B500081F0C3D0B1E00895C0C0672F782F8827E7
:101B6000B85F39F0B93FCCF3869577956795B39513
:101B7000D9F73EF490958095709561957F4F8F4F82
:101B80009F4F0895E89409C097FB3EF49095809587
:101B9000709561957F4F8F4F9F4F9923A9F0F92F33
:101BA00096E9BB279395F695879577956795B795B1
:101BB000F111F8CFFAF4BB0F11F460FF1BC06F5F97
:101BC0007F4F8F4F9F4F16C0882311F096E911C0A9
:101BD000772321F09EE8872F762F05C0662371F0CA
:101BE00096E8862F70E060E02AF09A95660F771FDE
:101BF000881FDAF7880F9695879597F90895990FBA
:101C00000008550FAA0BE0E8FEEF16161706E807C6
:101C1000F907C0F012161306E407F50798F0621BE7
:101C2000730B840B950B39F40A2661F0232B242BBC
:101C3000252B21F408950A2609F4A140A6958FEFDB
:101C4000811D811D089597F99F6780E870E060E02D
:101C500008959FEF80EC089500240A941616170645
:101C600018060906089500240A941216130614068D
:101C700005060895092E0394000C11F4882352F0F0
:101C8000BB0F40F4BF2B11F460FF04C06F5F7F4FA8
:101C90008F4F9F4F089557FD9058440F551F59F08F
:101CA0005F3F71F04795880F97FB991F61F09F3F49
:101CB00079F087950895121613061406551FF2CF72
:101CC0004695F1DF08C0161617061806991FF1CFC2
:101CD00086957105610508940895E894BB276627E9
:101CE0007727CB0197F908958ADF08F48FEF0895DD
:101CF0000EF028C2AECF6894A6CFD5DFC8F39923E3
:101D0000D1F3C6F3DF93CF931F930F93FF92C92FA5
:101D1000DD2788232AF02197660F771F881FDAF7BF
:101D200020E030E040E85FEB9FE3883920F0803E20
:101D300030F021968F7725DEE8E6F0E003C021DE63
:101D4000E5E9F0E00DD28B01BE01EC01FB2E6F57EF
:101D500071097595771F880B990B16DF28E132E71B
:101D600041E35FE316D0AF2D9801AE01FF900F91D4
:101D70001F91CF91DF9116DE7DCF0BD07BCF6CDF33
:101D800028F071DF18F0952309F05DCF62CF1124A0
:101D9000A5CF81DFA0F3959FD1F3950F50E0551F9C
:101DA000629FF001729FBB27F00DB11D639FAA27B0
:101DB000F00DB11DAA1F649F6627B00DA11D661FFF
:101DC000829F2227B00DA11D621F739FB00DA11D20
:101DD000621F839FA00D611D221F749F3327A00DDA
:101DE000611D231F849F600D211D822F762F6A2F76
:101DF00011249F5750408AF0E1F088234AF0EE0FFB
:101E0000FF1FBB1F661F771F881F91505040A9F707
:101E10009E3F510570F017CF61CF5F3FECF3983EC6
:101E2000DCF3869577956795B795F795E7959F5F6E
:101E3000C1F7FE2B880F911D9695879597F9089508
:101E4000A0E0B0E0E6E2FFE00C941C118B0161150C
:101E5000710519F0FB01808391837C01F701C1902A
:101E60007F01EF018C2D90E00E94740C892BB1F75B
:101E7000FDE2CF1204C0C990DD24D39405C02BE24B
:101E8000C21201C0C990D12C7E0141E0E41AF108D0
:101E900043E050E06CE171E0C7010E947A10892BA9
:101EA000E9F47E0182E0E80EF11C45E050E06FE1CC
:101EB00071E0C7010E947A10892B21F47E01E7E0CE
:101EC000EE0EF11C0115110519F0F801F182E08206
:101ED00010E0D0E0C0E8D110FBC0FFC043E050E00C
:101EE00064E271E0C7010E947A10892B49F4011560
:101EF000110509F4EFC02296F801D183C083EAC02E
:101F000060E070E0CB01E12CF12CEC2DE053EA30E5
:101F100048F5FD2DF2602D2D2870D2FE06C021114E
:101F200027C02FEFE21AF20A23C0222319F041E062
:101F3000E41AF108A5E0B0E09B01AC010E94D510C5
:101F4000660F771F881F991F6E0F711D811D911DD0
:101F50006839E9E97E078E07E9E19E0748F0FD2D23
:101F6000F66006C0EE3F39F4D3FC3DC0FD2DF860AD
:101F7000C990DF2ECACFE53311F0E531A1F5A88174
:101F8000AD3219F4F0E1DF2A06C0AB3221F0219620
:101F900021E030E004C0A981229622E030E0A05385
:101FA000AA3018F0C21BD30B1EC0FE0120E030E0A7
:101FB00020384CE034075CF4A901440F551F440F4E
:101FC000551F240F351F220F331F2A0F311DA191DA
:101FD000A053EF01AA3060F3D4FE03C031952195E0
:101FE0003109E20EF31ED1FE07C00115110521F0E3
:101FF0002197F801D183C0830E94C20D2D2D23703B
:10200000233029F0162FD72FC82F092F07C0DC0146
:10201000CB01B058182FD92FCA2F0B2F20E030E05A
:10202000A901612F7D2F8C2F902F0E94250D8823D1
:1020300009F454C0F7FE08C0F194E194F10833E5C7
:10204000C32E31E0D32E04C02BE3C22E21E0D22ECA
:102050004601F8E18F1A910890E2A92EB12C15C023
:10206000F6014591559165917491242F352F462F96
:10207000572F612F7D2F8C2F902F0E94BD0E162F72
:10208000D72FC82F092FEA18FB08EA14FB0444F7DE
:1020900024E0C21AD108B594A794C814D904A9F7AA
:1020A000612F7D2F8C2F902F282F220F292F221F59
:1020B0002F3F39F020E030E0A9010E94250D811169
:1020C0000DC082E290E09093B4028093B30206C008
:1020D0000FEF04C010E0D0E0C0EC0FE7612F7D2FC0
:1020E0008C2F902FCDB7DEB7ECE00C9438119927E8
:1020F00088270895FB01DC014150504088F08D9104
:1021000081341CF08B350CF4805E659161341CF0D9
:102110006B350CF4605E861B611171F3990B0895A9
:10212000881BFCCFDC01FC01672F71917723E1F75D
:10213000329704C07C916D9370836291AE17BF0794
:10214000C8F308959F3F31F0915020F4879577951B
:102150006795B795880F911D9695879597F908957E
:10216000DF93CF931F930F93FF92EF92DF927B0148
:102170008C01689405C0DA2EEF010BDEFE01E894B5
:10218000A5912591359145915591AEF3EF010ADC6A
:10219000FE019701A801DA9479F7DF90EF90FF90A4
:1021A0000F911F91CF91DF9108950E944D11A59F2E
:1021B000900DB49F900DA49F800D911D1124089542
:1021C000AA1BBB1B51E107C0AA1FBB1FA617B7075D
:1021D00010F0A61BB70B881F991F5A95A9F7809579
:1021E0009095BC01CD010895A1E21A2EAA1BBB1B3C
:1021F000FD010DC0AA1FBB1FEE1FFF1FA217B307D3
:10220000E407F50720F0A21BB30BE40BF50B661FE8
:10221000771F881F991F1A9469F7609570958095AC
:1022200090959B01AC01BD01CF0108952F923F9283
:102230004F925F926F927F928F929F92AF92BF92D6
:10224000CF92DF92EF92FF920F931F93CF93DF9382
:10225000CDB7DEB7CA1BDB0B0FB6F894DEBF0FBEDF
:10226000CDBF09942A88398848885F846E847D842C
:102270008C849B84AA84B984C884DF80EE80FD802E
:102280000C811B81AA81B981CE0FD11D0FB6F894A4
:10229000DEBF0FBECDBFED010895A29FB001B39F79
:1022A000C001A39F01D0B29F700D811D1124911D0B
:1022B0000895EE0FFF1F0590F491E02D0994F89416
:0222C000FFCF4E
:1022C2000000803E430000A0410D000700110008FD
:1022D200000600100001000000000A000000640077
:1022E2000000E803000010270000A0860100404221
:1022F2000F008096980000E1F505000040001400F0
:10230200540041637475616C3A2000206F002A2AE0
:102312002A2A48454154204F46462A2A2A2A00534F
:1023220065743A202020200052544D502D2D2D2D21
:102332002D0061545352544D500061545354544D26
:102342005000615453535441540061545353544107
:1023520054312D2D2D2D0061545353544154302DA1
:102362002D2D2D0052454C412D2D2D2D2D0061542A
:102372005352454C41003030303030303030300034
:10238200545300000000002707B108C206F106D529
:0E2392000615072E00000000004E0BB10800DB
:00000001FF
