:100000000C9490000C94B8000C94B8000C94B800B8
:100010000C94B8000C94B8000C94B8000C94B80080
:100020000C94B8000C94B8000C94B8000C94B80070
:100030000C94B8000C94B8000C94B8000C94B80060
:100040000C94CE030C94B8000C9408060C9444064F
:100050000C94B8000C94B8000C94B8000C94B80040
:100060000C94B8000C94B80008000000BE9224491B
:10007000123EABAAAA2ABECDCCCC4C3E00000080DA
:10008000BEABAAAAAA3E00000000BF000000803F4D
:100090000000000000084178D3BB4387D1133D190D
:1000A0000E3CC3BD4282AD2B3E68EC8276BED98F3A
:1000B000E1A93E4C80EFFFBE01C4FF7F3F0000007E
:1000C0000000000000070002010000030406000019
:1000D000000000000000010204081020408001021E
:1000E000040810200102040810200404040404047D
:1000F00004040202020202020303030303030000DA
:100100000000230026002900000000002500280030
:100110002B0000000000240027002A009603FF06A1
:1001200011241FBECFEFD8E0DEBFCDBF11E0A0E0AD
:10013000B1E0E0EBFBE102C005900D92AE39B107F2
:10014000D9F712E0AEE9B1E001C01D92AB3AB107B8
:10015000E1F711E0C0E2D1E004C02297FE010E9465
:10016000D20DCC31D107C9F70E944F070C940F0B69
:100170000C940000CF93DF9320E044E162E082EE34
:1001800091E00E94350A61E0809113010E94D7043A
:1001900060E0809111010E94D704CFE0D1E061E0DE
:1001A00088810E94D70461E088810E940F0560E089
:1001B00080910D010E94D70460E080910B010E94A4
:1001C000D704C9E0D1E061E088810E94D70461E0F2
:1001D00088810E940F0582EE91E00E942E0A40E87D
:1001E00055E260E070E084E092E0DF91CF910C9402
:1001F0007F06682F809109010E940F051092DF0190
:100200001092DE010895EF92FF920F931F93CF9308
:10021000DF938091A001811136C0809111010E946D
:1002200046058C0180910D010E9446057C0180915C
:10023000F7019091F8010817190739F42091F90195
:100240003091FA01E216F30699F0892B89F4013016
:10025000110571F4C091F901D091FA01D195C195C0
:10026000D109CC0FDD1F219681E00E94F90002C068
:10027000C0E0D0E01093F8010093F701F092FA018A
:10028000E092F90102C0C0E0D0E0CE01DF91CF9151
:100290001F910F91FF90EF9008958091E0010E94CF
:1002A000AD03BC01882777FD8095982F0E941F0C15
:1002B0009B01AC0160E071E284E097E40E94840B52
:1002C00020E030E044E052E40E941B0B20E030E0EC
:1002D00044E052E40E94840B0E94D80C2AEE38E9D4
:1002E0004BE551E40E941C0B9B01AC0160E070EAFD
:1002F0008FE795E40E94840B20E030E848E853E45F
:100300000E941B0B08954F925F926F927F928F9283
:100310009F92AF92BF92CF92DF92EF92FF92809125
:10032000A00181113DC0C090A101D090A201E09038
:10033000A301F090A4018090050190900601A09087
:100340000701B090080140900001509001016090B9
:10035000020170900301A3019201C501B4010E9442
:100360001B0B9B01AC01C701B6010E94800B87FFEC
:1003700009C061E0809113010E940F0581E0809324
:100380009F0115C0A3019201C501B4010E941C0B7D
:100390009B01AC01C701B6010E94CF0C18163CF4BA
:1003A00060E0809113010E940F0510929F01FF9061
:1003B000EF90DF90CF90BF90AF909F908F907F9005
:1003C0006F905F904F90089520910401233491F035
:1003D00020E030E040E151E40E94180D20E030E0E0
:1003E00040EA50E40E94840B20E030E040E052E418
:1003F0000E941C0B089540E060E082EE91E00E94B4
:10040000FE096EE171E082EE91E00E949407609136
:10041000A1017091A2018091A3019091A4010E9479
:10042000E401AB01BC0122E030E082EE91E00E94E9
:10043000430967E271E082EE91E00E9494076091C7
:10044000040182EE91E00E94960762E471E082EE80
:1004500091E00E94940741E060E082EE91E00E940A
:10046000FE098091A001882319F06AE271E026C09C
:100470006BE371E082EE91E00E94940760910501C8
:100480007091060180910701909108010E94E4019A
:10049000AB01BC0122E030E082EE91E00E94430912
:1004A00067E271E082EE91E00E949407609104019E
:1004B00082EE91E00E94960762E471E082EE91E0A4
:1004C0000C94940710929E0128C084E092E00E9450
:1004D0009E058093A5018D3071F41092D901109280
:1004E000D80166EA71E084E092E00E94B30781E0FF
:1004F00080939E0119C02091D8013091D901F90152
:10050000EA55FE4F8083C90101969093D9018093EB
:10051000D801FC01EA55FE4F108284E092E00E946F
:100520006F05181619068CF280919E01882309F137
:1005300064E471E086EA91E00E94120B009741F4B6
:100540001092A00169E471E084E092E00E94B30798
:100550006CE471E086EA91E00E94120B009749F486
:1005600081E08093A00161E571E084E092E00C9469
:10057000B30708950E9462020E944D016093A10199
:100580007093A2018093A3019093A40180910B0129
:100590000E944605892B91F081E00E94F90081E0DC
:1005A0009091A001911180E08093A0010E94FB0135
:1005B00064EF71E080E090E00E9442040E94030139
:1005C000BC01882777FD8095982F0E941F0C20E0A2
:1005D00030E040E05FE30E94180D9B01AC016091A8
:1005E00005017091060180910701909108010E9418
:1005F0001C0B609305017093060180930701909393
:1006000008018091DC019091DD01883E934009F062
:1006100083C08091DE019091DF018436910509F05D
:100620006AC080E00E94F9008091DA019091DB01BC
:10063000449709F057C01092DB011092DA0165E58A
:1006400071E084E092E00E9494076CE571E084E040
:1006500092E00E94940766E671E084E092E00E94D6
:1006600094074091A1015091A2016091A301709162
:10067000A40122E030E084E092E00E9443098091EE
:10068000A001811123C06DE671E084E092E00E9438
:100690009407409105015091060160910701709106
:1006A000080122E030E084E092E00E94430963E721
:1006B00071E084E092E00E9494074AE050E060918B
:1006C0009F0184E092E00E94300806C06AE771E072
:1006D00084E092E00E94B30762E871E084E092E077
:1006E0000E9494078091DA019091DB01019690932A
:1006F000DB018093DA018091DE019091DF010196A8
:100700009093DF018093DE010E94FB010E94830130
:100710001092DD011092DC018091DC019091DD01ED
:1007200001969093DD018093DC010895AF92CF9202
:10073000EF920F9392E0A92E23E0C22E34E0E32E35
:1007400005E02AE04BE06CE082EE91E00E94E90ACD
:100750000F91EF90CF90AF9008958E3008F08E50AB
:1007600087702091150140E4249F90011124822B71
:1007700080937C0080917A00806480937A008091DD
:100780007A0086FDFCCF2091780030917900932F7C
:1007900080E0AC01422B9A01C90108951F920F928B
:1007A0000FB60F9211242F933F938F939F93AF9384
:1007B000BF938091FB019091FC01A091FD01B0914C
:1007C000FE0130910302232F2D5F2D3720F4019677
:1007D000A11DB11D05C0232F2A570296A11DB11DD1
:1007E000209303028093FB019093FC01A093FD01F1
:1007F000B093FE018091FF0190910002A09101024F
:10080000B09102020196A11DB11D8093FF0190934A
:100810000002A0930102B0930202BF91AF919F9199
:100820008F913F912F910F900FBE0F901F901895B1
:100830000F931F939FB7F8940091FF01109100024E
:10084000209101023091020286B5A89B06C08F3F1D
:1008500021F00F5F1F4F2F4F3F4F9FBF322F212F90
:10086000102F0027080F111D211D311D42E0000F20
:10087000111F221F331F4A95D1F7B801C9011F91DB
:100880000F910895CF92DF92EF92FF92CF93DF9373
:100890006B017C010E941804EB010EC00E94180439
:1008A0006C1B7D0B683E734038F081E0C81AD1089C
:1008B000E108F108C851DC4FC114D104E104F1048E
:1008C00069F7DF91CF91FF90EF90DF90CF9008957F
:1008D000019739F0880F991F880F991F0297019788
:1008E000F1F70895789484B5826084BD84B5816001
:1008F00084BD85B5826085BD85B5816085BDEEE628
:10090000F0E0808181608083E1E8F0E01082808106
:1009100082608083808181608083E0E8F0E0808174
:1009200081608083E1EBF0E0808184608083E0EB94
:10093000F0E0808181608083EAE7F0E0808184607C
:1009400080838081826080838081816080838081D8
:10095000806880831092C1000895833069F028F484
:100960008130A1F0823011F514C08630B1F08730AB
:10097000C1F08430D9F404C0809180008F7703C027
:10098000809180008F7D80938000089584B58F775B
:1009900002C084B58F7D84BD08958091B0008F77AB
:1009A00003C08091B0008F7D8093B0000895CF93F5
:1009B000DF9390E0FC01EA52FF4F4491FC01E651C5
:1009C000FF4F8491882341F190E0880F991FFC012B
:1009D000EE5EFE4F25913491D901885F9E4FFC0158
:1009E00085919491C82FD92F9FB7F8948C9161115C
:1009F00006C0409584238C938881842308C062308C
:100A000041F4242F209582238C938881842B888322
:100A100002C0842B8C939FBFDF91CF9108950F93D9
:100A20001F93CF93DF931F92CDB7DEB7282F30E00F
:100A3000F901EE53FF4F8491F901EA52FF4F1491EF
:100A4000F901E651FF4F04910023D1F0882321F0F2
:100A500069830E94AD046981E02FF0E0EE0FFF1F73
:100A6000E85FFE4F85919491DC019FB7F8948C91DB
:100A7000611103C01095812301C0812B8C939FBF0E
:100A80000F90DF91CF911F910F910895CF93DF9336
:100A9000282F30E0F901EE53FF4F8491F901EA521B
:100AA000FF4FD491F901E651FF4FC491CC2389F057
:100AB00081110E94AD04EC2FF0E0EE0FFF1FE25019
:100AC000FF4F85919491DC018C918D2321E030E0E2
:100AD00011F420E030E0C901DF91CF910895FC01CD
:100AE00084859585FC01E05CFF4F20813181FC010C
:100AF000EE5BFF4F80819181281B390B2F733327C9
:100B0000C9010895FC0184859585FC01E05CFF4FD7
:100B100040815181FC01EE5BFF4F20813181421702
:100B2000530741F00190F081E02DE80FF91F20817B
:100B300030E002C02FEF3FEFC9010895FC0184852A
:100B40009585FC01E05CFF4F40815181FC01EE5B2B
:100B5000FF4F208131814217530771F0A081B1818D
:100B6000A80FB91F2C918081918101968F739927CD
:100B70009183808330E002C02FEF3FEFC9010895D9
:100B8000FC0186859785FC01E05CFF4FDC01AE5BD4
:100B9000BF4F408151812D913C91119742175307CE
:100BA000C1F70895CF93DF93FC0126853785D901DE
:100BB000A05CBF4F8D919C91119701968F739927DF
:100BC000E901CE5BDF4F4881598184179507D9F33E
:100BD0000D90BC91A02DA20FB31F6C93A685B78575
:100BE000A05CBF4F11969C938E93A689B7892C91D8
:100BF00081E090E0058C02C0880F991F0A94E2F70B
:100C0000282B2C9381E090E0DF91CF9108950895F7
:100C10001F920F920FB60F9211242F933F934F9371
:100C20008F939F93EF93FF934091C6008091A7020B
:100C30009091A80201968F7399272091A902309173
:100C4000AA028217930759F0E091A702F091A80237
:100C5000E959FD4F40839093A8028093A702FF912A
:100C6000EF919F918F914F913F912F910F900FBED8
:100C70000F901F90189584E092E00E946F05892BD9
:100C800011F00C94070608951F920F920FB60F9261
:100C900011242F933F938F939F93EF93FF93209172
:100CA0006302309164028091650290916602281778
:100CB000390731F48091C1008F7D8093C10014C049
:100CC000E0916502F0916602ED5DFD4F208180911B
:100CD00065029091660201968F7399279093660240
:100CE000809365022093C600FF91EF919F918F91B1
:100CF0003F912F910F900FBE0F901F901895CF929C
:100D0000DF92EF92FF92CF93DF93EC016A017B01B8
:100D1000411581EE580761057105F9F0EC89FD89EF
:100D200081E090E00E8C02C0880F991F0A94E2F7D0
:100D3000808360E079E08DE390E0A70196010E9456
:100D4000AE0D215031094109510956954795379506
:100D50002795211580E1380798F0EC89FD891082EC
:100D600060E874E88EE190E0A70196010E94AE0D64
:100D700021503109410951095695479537952795D5
:100D8000E889F9893083EA89FB892083EE89FF8924
:100D9000408181E090E09C010A8C02C0220F331F49
:100DA0000A94E2F7422B4083EE89FF8940819C013F
:100DB0000B8C02C0220F331F0A94E2F7422B4083B0
:100DC000EE89FF8940819C010C8C02C0220F331FE9
:100DD0000A94E2F7422B4083EE89FF8920810D8C33
:100DE00002C0880F991F0A94E2F7809582238083BE
:100DF000DF91CF91FF90EF90DF90CF900895109208
:100E000007021092060288EE93E0A0E0B0E0809323
:100E1000080290930902A0930A02B0930B0288E89B
:100E200091E0909305028093040287E692E090930C
:100E300011028093100283E292E090931302809358
:100E4000120285EC90E0909315028093140284ECDA
:100E500090E0909317028093160280EC90E09093BC
:100E600019028093180281EC90E090931B0280930A
:100E70001A0286EC90E090931D0280931C0284E09D
:100E800080931E0283E080931F0287E080932002FC
:100E900085E08093210281E08093220208950E94E0
:100EA00072040E94BA00CBE3D6E00E94BA022097F7
:100EB000E1F30E943B06F9CFCF92DF92EF92FF92CF
:100EC0000F931F93CF93DF936C01EB017A01E60E32
:100ED000F71E00E010E00BC06991D601ED91FC9186
:100EE0000190F081E02DC6010995080F191FCE155C
:100EF000DF0591F7C801DF91CF911F910F91FF900E
:100F0000EF90DF90CF900895DB010D900020E9F77E
:100F1000AD0141505109461B570BDC01ED91FC918D
:100F20000280F381E02D09940C948407DC01ED919B
:100F3000FC910190F081E02D09940F931F93CF93C2
:100F4000DF93EC016DE00E9496078C016AE0CE0110
:100F50000E9496079C01200F311FC901DF91CF919C
:100F60001F910F9108950F931F93CF93DF93EC017F
:100F70000E9484078C01CE010E949D079801280FD2
:100F8000391FC901DF91CF911F910F9108955F9291
:100F90006F927F928F929F92AF92BF92CF92DF9289
:100FA000EF92FF920F931F93CF93DF93CDB7DEB7EE
:100FB000A1970FB6F894DEBF0FBECDBF3C016A010A
:100FC0007B01522E19A281E0821710F08AE0582E80
:100FD0008E010F5D1F4F852C912CA12CB12CC701C8
:100FE000B601A50194010E94AE0D8C2D529E801970
:100FF0001124015011098A3014F4805D01C0895C0C
:10100000F801808369017A01C114D104E104F1047B
:1010100031F7B801C3010E948407A1960FB6F89476
:10102000DEBF0FBECDBFDF91CF911F910F91FF901B
:10103000EF90DF90CF90BF90AF909F908F907F9078
:101040006F905F9008952115310541F4DC01ED9119
:10105000FC910190F081E02D642F09940C94C70756
:101060000F931F93CF93DF93EC019A01462F50E02B
:1010700060E070E00E9423088C01CE010E949D0771
:101080009801280F391FC901DF91CF911F910F914E
:101090000895CF92DF92EF92FF920F931F93CF9319
:1010A000DF93EC016A017B012115310579F4E881B8
:1010B000F9810190F081E02D642FDF91CF911F9194
:1010C0000F91FF90EF90DF90CF9009942A30310577
:1010D00019F477FD0EC02AE0B701A601CE01DF9119
:1010E000CF911F910F91FF90EF90DF90CF900C94D4
:1010F000C7076DE20E9496078C0144275527BA0165
:101100004C195D096E097F092AE0CE010E94C707CC
:101110009C01200F311FC901DF91CF911F910F91C9
:10112000FF90EF90DF90CF9008954F925F926F9273
:101130007F928F929F92AF92BF92CF92DF92EF9267
:10114000FF920F931F93CF933C014A015B01C22F83
:1011500020E030E0A901C501B4010E94800B87FFA7
:101160000AC06DE2C3010E9496072C01B7FAB09441
:10117000B7F8B09402C0412C512C10E060E070E050
:1011800080E09FE307C020E030E040E251E40E94AD
:10119000840B1F5F1C13F7CF262F372F482F592F93
:1011A000C501B4010E941C0B962EA72EB82EC92E85
:1011B0000E94F10BD62EE72EF82E192F0E941D0C3F
:1011C0009B01AC01692D7A2D8B2D9C2D0E941B0B50
:1011D000C62EB72EA82E992E2AE04D2D5E2D6F2DEE
:1011E000712FC3010E94C7078C01040D151DCC236C
:1011F000B9F164E971E0C3010E948407080F191F67
:101200002FC020E030E040E251E46C2D7B2D8A2D90
:10121000992D0E94180D4B015C01792D9B2D0E9488
:10122000EC0B6B01EE24D7FCE094FE2C2AE030E0BE
:10123000B701A601C3010E944908080F191FC70181
:10124000B6010E941F0C9B01AC01682D792D8A2DDF
:101250009B2D0E941B0BC62EB72EA82E992EC15077
:10126000C111CFCFC801CF911F910F91FF90EF9087
:10127000DF90CF90BF90AF909F908F907F906F90B6
:101280005F904F9008950C949508CF93DF93EC01F5
:1012900060E08E810E940F0581E090E00E9468046A
:1012A00061E08E810E940F0581E090E00E94680459
:1012B00060E08E810E940F0584E690E0DF91CF917F
:1012C0000C946804CF92DF92EF92FF920F931F93DA
:1012D000CF93DF937C01C0E0D0E0C62ED12C8701F4
:1012E0000C0F1D1F61E0F80187810E94D704B60131
:1012F0000C2E02C0759567950A94E2F76170772706
:10130000F80187810E940F052196C430D10539F775
:10131000C701DF91CF911F910F91FF90EF90DF9068
:10132000CF900C944509CF92DF92EF92FF920F93EA
:101330001F93CF93DF937C01C0E0D0E0C62ED12C69
:1013400087010C0F1D1F61E0F80187810E94D704FF
:10135000B6010C2E02C0759567950A94E2F761708C
:101360007727F80187810E940F052196C830D105A3
:1013700039F7C701DF91CF911F910F91FF90EF9047
:10138000DF90CF900C9445091F93CF93DF93EC012E
:10139000162F642F8C810E940F058D818F3F19F0CD
:1013A00060E00E940F058F85612F84FF06C0CE018B
:1013B000DF91CF911F910C94930970E084E07595B3
:1013C00067958A95E1F7CE010E946209612FCE01EF
:1013D000DF91CF911F910C94620941E00E94C409F2
:1013E00081E090E0089540E00C94C409FC0160891C
:1013F000262F2460208B6C600C94F309CF93DF932D
:10140000CDB7DEB728970FB6F894DEBF0FBECDBFBD
:1014100028E0E6E1F1E0DE01119601900D922A95B7
:10142000E1F7FC012389421710F0422F4150E1E01F
:10143000F0E0EC0FFD1F22E0429FE00DF11D1124B2
:101440002081260F2068622F28960FB6F894DEBF01
:101450000FBECDBFDF91CF910C94F30961E00E94E4
:10146000F30980ED97E00C946804CF93DF93EC01CF
:10147000423018F08F8588608F874B8B1C8A22231F
:1014800029F0413019F48F8584608F8780E593ECD3
:101490000E94680460E08C810E940F0560E08E81EC
:1014A0000E940F058D818F3F19F060E00E940F05AB
:1014B0006F8564FD1DC063E0CE010E94620984E96E
:1014C00091E10E94680463E0CE010E94620984E910
:1014D00091E10E94680463E0CE010E94620986E9FE
:1014E00090E00E94680462E0CE010E94620916C08A
:1014F0006062CE010E94F30984E991E10E946804D0
:101500006F856062CE010E94F30986E990E00E9437
:1015100068046F856062CE010E94F3096F85606286
:10152000CE010E94F30984E0888BCE010E94F60967
:10153000CE010E942E0A82E0898B66E0CE01DF9107
:10154000CF910C94F3096F927F928F92AF92CF92CA
:10155000EF920F931F93CF93DF93CDB7DEB73C018C
:10156000162F842F5D854E853F859889F3018483EE
:1015700025830683E782C086A186828653874487B7
:101580003587968761E00E94D704F30185818F3FFC
:1015900019F061E00E94D70461E0F30186810E94A6
:1015A000D704112319F0F301178603C080E1F3017A
:1015B000878720E041E060E1C301DF91CF911F9177
:1015C0000F91EF90CF90AF908F907F906F900C9491
:1015D000350A8F92AF92CF92EF920F93DC01139660
:1015E0001C921E921297EAE9F1E0ED93FC931F9290
:1015F0001F921F921F928A2CAC2CCE2CE02E022F11
:10160000242F462F61E00E94A30A0F900F900F90A5
:101610000F900F91EF90CF90AF908F900895F89426
:101620000C94D60DFB01DC018D9101908019011005
:10163000D9F3990B08955058BB27AA270ED075C12E
:1016400066D130F06BD120F031F49F3F11F41EF4DD
:101650005BC10EF4E095E7FB51C1E92F77D180F330
:10166000BA17620773078407950718F071F49EF59F
:101670008FC10EF4E0950B2EBA2FA02D0B01B901EE
:1016800090010C01CA01A0011124FF27591B99F0F8
:10169000593F50F4503E68F11A16F040A22F232F04
:1016A000342F4427585FF3CF469537952795A79554
:1016B000F0405395C9F77EF41F16BA0B620B730BFB
:1016C000840BBAF09150A1F0FF0FBB1F661F771F6C
:1016D000881FC2F70EC0BA0F621F731F841F48F421
:1016E000879577956795B795F7959E3F08F0B3CFA7
:1016F0009395880F08F09927EE0F97958795089591
:10170000D9D008F481E008950CD00FC107D140F082
:10171000FED030F021F45F3F19F0F0C0511139C113
:10172000F3C014D198F39923C9F35523B1F3951B52
:10173000550BBB27AA2762177307840738F09F5FF2
:101740005F4F220F331F441FAA1FA9F333D00E2E61
:101750003AF0E0E830D091505040E695001CCAF7CE
:1017600029D0FE2F27D0660F771F881FBB1F261793
:1017700037074807AB07B0E809F0BB0B802DBF0166
:10178000FF2793585F4F2AF09E3F510568F0B6C07F
:1017900000C15F3FECF3983EDCF386957795679543
:1017A000B795F7959F5FC9F7880F911D9695879517
:1017B00097F90895E1E0660F771F881FBB1F621736
:1017C00073078407BA0720F0621B730B840BBA0BF4
:1017D000EE1F88F7E095089504D06894B111D9C040
:1017E0000895BCD088F09F5790F0B92F9927B75132
:1017F000A0F0D1F0660F771F881F991F1AF0BA95D5
:10180000C9F712C0B13081F0C3D0B1E00895C0C0B3
:10181000672F782F8827B85F39F0B93FCCF38695CA
:1018200077956795B395D9F73EF490958095709527
:1018300061957F4F8F4F9F4F0895E89409C097FBA4
:101840003EF490958095709561957F4F8F4F9F4F97
:101850009923A9F0F92F96E9BB279395F6958795DB
:1018600077956795B795F111F8CFFAF4BB0F11F49E
:1018700060FF1BC06F5F7F4F8F4F9F4F16C0882345
:1018800011F096E911C0772321F09EE8872F762F7B
:1018900005C0662371F096E8862F70E060E02AF0BC
:1018A0009A95660F771F881FDAF7880F96958795A8
:1018B00097F90895990F0008550FAA0BE0E8FEEF7D
:1018C00016161706E807F907C0F012161306E40704
:1018D000F50798F0621B730B840B950B39F40A26FD
:1018E00061F0232B242B252B21F408950A2609F4DB
:1018F000A140A6958FEF811D811D089597F99F67DF
:1019000080E870E060E008959FEF80EC0895002487
:101910000A941616170618060906089500240A9454
:1019200012161306140605060895092E0394000CDA
:1019300011F4882352F0BB0F40F4BF2B11F460FF69
:1019400004C06F5F7F4F8F4F9F4F089557FD905892
:10195000440F551F59F05F3F71F04795880F97FB73
:10196000991F61F09F3F79F087950895121613062D
:101970001406551FF2CF4695F1DF08C0161617065C
:101980001806991FF1CF8695710561050894089591
:10199000E894BB2766277727CB0197F908958ADF5C
:1019A00008F48FEF08950EF0A6C0AECF6894A6CFCE
:1019B000D5DFC8F39923D1F3C6F3DF93CF931F93F9
:1019C0000F93FF92C92FDD2788232AF02197660FF6
:1019D000771F881FDAF720E030E040E85FEB9FE3F5
:1019E000883920F0803E30F021968F7725DEE8E6BA
:1019F000F0E003C021DEE5E9F0E08BD08B01BE0111
:101A0000EC01FB2E6F5771097595771F880B990BA9
:101A100016DF28E132E741E35FE316D0AF2D9801EE
:101A2000AE01FF900F911F91CF91DF9116DE7DCF18
:101A30000BD07BCF6CDF28F071DF18F0952309F015
:101A40005DCF62CF1124A5CF81DFA0F3959FD1F3A5
:101A5000950F50E0551F629FF001729FBB27F00D5C
:101A6000B11D639FAA27F00DB11DAA1F649F6627B1
:101A7000B00DA11D661F829F2227B00DA11D621F00
:101A8000739FB00DA11D621F839FA00D611D221FBA
:101A9000749F3327A00D611D231F849F600D211D9E
:101AA000822F762F6A2F11249F5750408AF0E1F041
:101AB00088234AF0EE0FFF1FBB1F661F771F881F8A
:101AC00091505040A9F79E3F510570F017CF61CF5C
:101AD0005F3FECF3983EDCF3869577956795B79575
:101AE000F795E7959F5FC1F7FE2B880F911D96959F
:101AF000879597F908959F3F31F0915020F487958D
:101B000077956795B795880F911D9695879597F965
:101B10000895DF93CF931F930F93FF92EF92DF927D
:101B20007B018C01689405C0DA2EEF018DDFFE0188
:101B3000E894A5912591359145915591AEF3EF012A
:101B40008CDDFE019701A801DA9479F7DF90EF9020
:101B5000FF900F911F91CF91DF910895A1E21A2E6E
:101B6000AA1BBB1BFD010DC0AA1FBB1FEE1FFF1F41
:101B7000A217B307E407F50720F0A21BB30BE40B91
:101B8000F50B661F771F881F991F1A9469F76095D8
:101B90007095809590959B01AC01BD01CF01089592
:101BA000EE0FFF1F0590F491E02D0994F894FFCFFC
:101BB0000000803E430000A0410D00070011000816
:101BC00000060010000100004000140054004163B2
:101BD0007475616C3A2000206F002A2A2A2A484531
:101BE0004154204F46462A2A2A2A005365743A2037
:101BF0002020200068656174004F4E00636F6C64A4
:101C0000004F464600746F3A303031002C66726FD8
:101C10006D3A303032002C74656D703A002C73656B
:101C2000743A002C686561743A002C737461743ADC
:101C300030000A0000000000D2055C076F059E0519
:0E1C40008205C0052E0000000000ED095C07C3
:00000001FF
