:100000000C9496000C94BE000C94BE000C94BE00A0
:100010000C94BE000C94BE000C94BE000C94BE0068
:100020000C94BE000C94BE000C94BE000C94BE0058
:100030000C94BE000C94BE000C94BE000C94BE0048
:100040000C943C040C94BE000C9487060C94C306DC
:100050000C94BE000C94BE000C94BE000C94BE0028
:100060000C94BE000C94BE0008000000BE9224490F
:10007000123EABAAAA2ABECDCCCC4C3E00000080DA
:10008000BEABAAAAAA3E00000000BF000000803F4D
:100090000000000000084178D3BB4387D1133D190D
:1000A0000E3CC3BD4282AD2B3E68EC8276BED98F3A
:1000B000E1A93E4C80EFFFBE01C4FF7F3F0000007E
:1000C0000000000000070002010000030406000019
:1000D000000000000000010204081020408001021E
:1000E000040810200102040810200404040404047D
:1000F00004040202020202020303030303030000DA
:100100000000230026002900000000002500280030
:100110002B0000000000240027002A006364696EA1
:100120006F70737578585B0004047E0711241FBE3E
:10013000CFEFD8E0DEBFCDBF11E0A0E0B1E0E2E458
:10014000F4E202C005900D92A23BB107D9F712E08C
:10015000A2EBB1E001C01D92A738B107E1F711E0B1
:10016000CCE2D1E004C02297FE010E941B12C832EB
:10017000D107C9F70E94CE070C94A00B0C94000085
:10018000CF93DF9320E044E162E08EEB91E00E94A8
:10019000C60A61E0809113010E94570560E08091DA
:1001A00011010E945705CFE0D1E061E088810E94F3
:1001B000570561E088810E948F0560E080910D0104
:1001C0000E94570560E080910B010E945705C9E02D
:1001D000D1E061E088810E94570561E088810E943A
:1001E0008F058EEB91E00E94BF0A40E855E260E087
:1001F00070E080EE91E0DF91CF910C94FE06682FC5
:10020000809109010E948F051092BB011092BA01E2
:100210000895EF92FF920F931F93CF93DF938091F6
:10022000B301811136C0809111010E94C6058C0175
:1002300080910D010E94C6057C018091D3019091AF
:10024000D4010817190739F42091D5013091D6014E
:10025000E216F30699F0892B89F40130110571F447
:10026000C091D501D091D601D195C195D109CC0FBE
:10027000DD1F219681E00E94FF0002C0C0E0D0E0B7
:100280001093D4010093D301F092D601E092D501EE
:1002900002C0C0E0D0E0CE01DF91CF911F910F915D
:1002A000FF90EF9008958091BC010E941B04BC0157
:1002B000882777FD8095982F0E94ED0C9B01AC015B
:1002C00060E071E284E097E40E94520C20E030E0AC
:1002D00044E052E40E94E90B20E030E044E052E4C4
:1002E0000E94520C0E94A60D2AEE38E94BE551E41B
:1002F0000E94EA0B9B01AC0160E070EA8FE795E495
:100300000E94520C20E030E848E853E40E94E90BD8
:1003100008954F925F926F927F928F929F92AF92C9
:10032000BF92CF92DF92EF92FF928091B301811141
:100330003DC0C090B401D090B501E090B601F090FE
:10034000B7018090050190900601A0900701B09040
:1003500008014090000150900101609002017090EE
:100360000301A3019201C501B4010E94E90B9B01A5
:10037000AC01C701B6010E944E0C87FF09C061E0C5
:10038000809113010E948F0581E08093B20115C016
:10039000A3019201C501B4010E94EA0B9B01AC01CB
:1003A000C701B6010E949D0D18163CF460E08091D3
:1003B00013010E948F051092B201FF90EF90DF9021
:1003C000CF90BF90AF909F908F907F906F905F90F5
:1003D0004F90089520910401233491F020E030E003
:1003E00040E151E40E94E60D20E030E040EA50E4B4
:1003F0000E94520C20E030E040E052E40E94EA0B00
:10040000089540E060E08EEB91E00E948F0A6EE17B
:1004100071E08EEB91E00E9413086091B40170913D
:10042000B5018091B6019091B7010E94EA01AB013C
:10043000BC0122E030E08EEB91E00E947A0967E295
:1004400071E08EEB91E00E941308609104018EEB45
:1004500091E00E94150862E471E08EEB91E00E9449
:10046000130841E060E08EEB91E00E948F0A8091DA
:10047000B301882319F06AE271E026C06BE371E0F2
:100480008EEB91E00E9413086091050170910601C6
:1004900080910701909108010E94EA01AB01BC0123
:1004A00022E030E08EEB91E00E947A0967E271E091
:1004B0008EEB91E00E941308609104018EEB91E0B5
:1004C0000E94150862E471E08EEB91E00C94130831
:1004D0000E9453016093B4017093B5018093B601FB
:1004E0009093B70180910B010E94C605892B91F072
:1004F00081E00E94FF0081E09091B301911180E0C2
:100500008093B3010E94010264EF71E080E090E00B
:100510000E94C2040E940901BC01882777FD8095D2
:10052000982F0E94ED0C20E030E040E05FE30E9455
:10053000E60D9B01AC01609105017091060180916F
:100540000701909108010E94EA0B609305017093E6
:10055000060180930701909308018091B801909162
:10056000B901883E9340D9F48091BA019091BB01C2
:100570008436910519F480E00E94FF008091BA0151
:100580009091BB0101969093BB018093BA010E94A8
:1005900001020E9489011092B9011092B801809164
:1005A000B8019091B90101969093B9018093B80177
:1005B00008950F931F93CF93DF93CDB7DEB76F9757
:1005C0000FB6F894DEBF0FBECDBF48EE53E060E03B
:1005D00070E080EE91E00E94AC094CE050E0BE017A
:1005E0006F5F7F4F80EE91E00E94B2090C970CF490
:1005F00000C11D868981813609F4FBC01D8E1E8EC7
:100600001F8E8A818D8F8B818E8F65E971E0CE017F
:100610004D960E94AB0B009709F0EBC01F8AFE01BC
:100620003496DE011E96CE010D9621912D93E8178A
:10063000F907D9F764E471E0CE010E960E94B40B7D
:10064000892B79F06EE471E080EE91E00E9413084E
:100650004091B4015091B5016091B6017091B7011C
:1006600030C069E571E0CE010E960E94B40B892B73
:1006700009F455C08E01095E1F4F86E0F801119202
:100680008A95E9F78A898F8B8B89888F8C89898FE6
:100690008D898A8F8E898B8F67E871E0C8010E94EF
:1006A000AB0B0097A9F066E571E080EE91E00E9447
:1006B0001308409105015091060160910701709166
:1006C000080122E030E080EE91E00E947A0991C0BA
:1006D00085E091E09F938F938EE591E09F938F93B8
:1006E0001F930F930E94CE0B66E571E080EE91E0C0
:1006F0000E94130840910501509106016091070185
:100700007091080122E030E080EE91E00E947A09C9
:100710000F900F900F900F900F900F906AC064E6AB
:1007200071E0CE010E960E94B40B892B09F44AC0E9
:100730008E01095E1F4F86E0F80111928A95E9F754
:100740008A898F8B8B89888F8C89898F8D898A8FF5
:100750008E898B8F67E871E0C8010E94AB0B009710
:10076000C1F061E671E080EE91E00E941308809193
:10077000B3014AE050E0882319F060E070E002C065
:1007800061E070E080EE91E00E94C40868E871E0EA
:100790002CC060E771E0C8010E94B40B892B29F0DE
:1007A0001092B30169E671E020C06DE771E0C80105
:1007B0000E94B40B892BE9F081E08093B30166E7D6
:1007C00071E013C063E871E0CE010E960E94B40B95
:1007D000892B79F06DE871E080EE91E00E941308BA
:1007E00081E08093B20160E771E080EE91E00E94C9
:1007F00013086F960FB6F894DEBF0FBECDBFDF9122
:10080000CF911F910F910895AF92CF92EF920F93D6
:1008100092E0A92E23E0C22E34E0E32E05E02AE088
:100820004BE06CE08EEB91E00E947A0B0F91EF9021
:10083000CF90AF9008958E3008F08E508770209141
:10084000150140E4249F90011124822B80937C00A9
:1008500080917A00806480937A0080917A0086FD8E
:10086000FCCF2091780030917900932F80E0AC018B
:10087000422B9A01C90108951F920F920FB60F9251
:1008800011242F933F938F939F93AF93BF938091A6
:10089000D7019091D801A091D901B091DA0130919E
:1008A000DF01232F2D5F2D3720F40196A11DB11DEF
:1008B00005C0232F2A570296A11DB11D2093DF01E9
:1008C0008093D7019093D801A093D901B093DA0116
:1008D0008091DB019091DC01A091DD01B091DE01FE
:1008E0000196A11DB11D8093DB019093DC01A093C3
:1008F000DD01B093DE01BF91AF919F918F913F9148
:100900002F910F900FBE0F901F9018950F931F936C
:100910008FB7F8940091D7011091D8012091D90197
:100920003091DA018FBFB801C9011F910F9108956D
:100930000F931F939FB7F8940091DB011091DC0196
:100940002091DD013091DE0186B5A89B06C08F3F66
:1009500021F00F5F1F4F2F4F3F4F9FBF322F212F8F
:10096000102F0027080F111D211D311D42E0000F1F
:10097000111F221F331F4A95D1F7B801C9011F91DA
:100980000F910895CF92DF92EF92FF92CF93DF9372
:100990006B017C010E949804EB010EC00E94980438
:1009A0006C1B7D0B683E734038F081E0C81AD1089B
:1009B000E108F108C851DC4FC114D104E104F1048D
:1009C00069F7DF91CF91FF90EF90DF90CF9008957E
:1009D000019739F0880F991F880F991F0297019787
:1009E000F1F70895789484B5826084BD84B5816000
:1009F00084BD85B5826085BD85B5816085BDEEE627
:100A0000F0E0808181608083E1E8F0E01082808105
:100A100082608083808181608083E0E8F0E0808173
:100A200081608083E1EBF0E0808184608083E0EB93
:100A3000F0E0808181608083EAE7F0E0808184607B
:100A400080838081826080838081816080838081D7
:100A5000806880831092C1000895833069F028F483
:100A60008130A1F0823011F514C08630B1F08730AA
:100A7000C1F08430D9F404C0809180008F7703C026
:100A8000809180008F7D80938000089584B58F775A
:100A900002C084B58F7D84BD08958091B0008F77AA
:100AA00003C08091B0008F7D8093B0000895CF93F4
:100AB000DF9390E0FC01EA52FF4F4491FC01E651C4
:100AC000FF4F8491882341F190E0880F991FFC012A
:100AD000EE5EFE4F25913491D901885F9E4FFC0157
:100AE00085919491C82FD92F9FB7F8948C9161115B
:100AF00006C0409584238C938881842308C062308B
:100B000041F4242F209582238C938881842B888321
:100B100002C0842B8C939FBFDF91CF9108950F93D8
:100B20001F93CF93DF931F92CDB7DEB7282F30E00E
:100B3000F901EE53FF4F8491F901EA52FF4F1491EE
:100B4000F901E651FF4F04910023D1F0882321F0F1
:100B500069830E942D056981E02FF0E0EE0FFF1FF1
:100B6000E85FFE4F85919491DC019FB7F8948C91DA
:100B7000611103C01095812301C0812B8C939FBF0D
:100B80000F90DF91CF911F910F910895CF93DF9335
:100B9000282F30E0F901EE53FF4F8491F901EA521A
:100BA000FF4FD491F901E651FF4FC491CC2389F056
:100BB00081110E942D05EC2FF0E0EE0FFF1FE25097
:100BC000FF4F85919491DC018C918D2321E030E0E1
:100BD00011F420E030E0C901DF91CF910895FC01CC
:100BE00084859585FC01E05CFF4F20813181FC010B
:100BF000EE5BFF4F80819181281B390B2F733327C8
:100C0000C9010895FC0184859585FC01E05CFF4FD6
:100C100040815181FC01EE5BFF4F20813181421701
:100C2000530741F00190F081E02DE80FF91F20817A
:100C300030E002C02FEF3FEFC9010895FC01848529
:100C40009585FC01E05CFF4F40815181FC01EE5B2A
:100C5000FF4F208131814217530771F0A081B1818C
:100C6000A80FB91F2C918081918101968F739927CC
:100C70009183808330E002C02FEF3FEFC9010895D8
:100C8000FC0186859785FC01E05CFF4FDC01AE5BD3
:100C9000BF4F408151812D913C91119742175307CD
:100CA000C1F70895CF93DF93FC0126853785D901DD
:100CB000A05CBF4F8D919C91119701968F739927DE
:100CC000E901CE5BDF4F4881598184179507D9F33D
:100CD0000D90BC91A02DA20FB31F6C93A685B78574
:100CE000A05CBF4F11969C938E93A689B7892C91D7
:100CF00081E090E0058C02C0880F991F0A94E2F70A
:100D0000282B2C9381E090E0DF91CF9108951F92E2
:100D10000F920FB60F9211242F933F934F938F93FF
:100D20009F93EF93FF934091C6008091830290912F
:100D3000840201968F739927209185023091860253
:100D40008217930759F0E0918302F0918402ED5BE2
:100D5000FD4F40839093840280938302FF91EF9133
:100D60009F918F914F913F912F910F900FBE0F90B8
:100D70001F90189580EE91E00E94EF05892B11F0ED
:100D80000C94D90208951F920F920FB60F9211245E
:100D90002F933F938F939F93EF93FF9320913F0265
:100DA0003091400280914102909142022817390708
:100DB00031F48091C1008F7D8093C10014C0E09117
:100DC0004102F0914202E150FE4F208180914102A8
:100DD0009091420201968F739927909342028093DB
:100DE00041022093C600FF91EF919F918F913F9117
:100DF0002F910F900FBE0F901F901895CF92DF92FA
:100E0000EF92FF92CF93DF93EC016A017B014115D2
:100E100081EE580761057105F9F0EC89FD8981E0E3
:100E200090E00E8C02C0880F991F0A94E2F780832D
:100E300060E079E08DE390E0A70196010E94C01187
:100E40002150310941095109569547953795279504
:100E5000211580E1380798F0EC89FD89108260E85F
:100E600074E88EE190E0A70196010E94C011215024
:100E70003109410951095695479537952795E889D4
:100E8000F9893083EA89FB892083EE89FF894081D3
:100E900081E090E09C010A8C02C0220F331F0A946B
:100EA000E2F7422B4083EE89FF8940819C010B8C45
:100EB00002C0220F331F0A94E2F7422B4083EE89CF
:100EC000FF8940819C010C8C02C0220F331F0A94C1
:100ED000E2F7422B4083EE89FF8920810D8C02C00E
:100EE000880F991F0A94E2F7809582238083DF910F
:100EF000CF91FF90EF90DF90CF9008951092E30193
:100F00001092E20188EE93E0A0E0B0E08093E4016B
:100F10009093E501A093E601B093E7018CE991E09D
:100F20009093E1018093E00183E492E09093ED01DE
:100F30008093EC018FEF91E09093EF018093EE01AD
:100F400085EC90E09093F1018093F00184EC90E0C7
:100F50009093F3018093F20180EC90E09093F5017F
:100F60008093F40181EC90E09093F7018093F60177
:100F700086EC90E09093F9018093F80184E08093EF
:100F8000FA0183E08093FB0187E08093FC0185E018
:100F90008093FD0181E08093FE0108950E94F20498
:100FA0000E94C000CAEBD6E00E9468022097E1F3DD
:100FB0000E94BA06F9CFCF92DF92EF92FF920F9381
:100FC0001F93CF93DF936C01EB017A01E60EF71EBE
:100FD00000E010E00BC06991D601ED91FC91019009
:100FE000F081E02DC6010995080F191FCE15DF0508
:100FF00091F7C801DF91CF911F910F91FF90EF9072
:10100000DF90CF900895DB010D900020E9F7AD014E
:1010100041505109461B570BDC01ED91FC910280B8
:10102000F381E02D09940C940308DC01ED91FC910F
:101030000190F081E02D09945F926F927F928F92E0
:101040009F92AF92BF92CF92DF92EF92FF920F9357
:101050001F93CF93DF93CDB7DEB7A1970FB6F89468
:10106000DEBF0FBECDBF3C016A017B01522E19A22B
:1010700081E0821710F08AE0582E8E010F5D1F4F1D
:10108000852C912CA12CB12CC701B601A50194018E
:101090000E94C0118C2D529E8019112401501109FB
:1010A0008A3014F4805D01C0895CF8018083690195
:1010B0007A01C114D104E104F10431F7B801C3018C
:1010C0000E940308A1960FB6F894DEBF0FBECDBFF5
:1010D000DF91CF911F910F91FF90EF90DF90CF9014
:1010E000BF90AF909F908F907F906F905F9008958A
:1010F000CF92DF92EF92FF920F931F93CF93DF93E4
:10110000EC016A017B012115310579F4E881F9814F
:101110000190F081E02D642FDF91CF911F910F910D
:10112000FF90EF90DF90CF9009942A30310519F4A9
:1011300077FD0EC02AE0B701A601CE01DF91CF9165
:101140001F910F91FF90EF90DF90CF900C941C08AF
:101150006DE20E9415088C0144275527BA014C19ED
:101160005D096E097F092AE0CE010E941C089C01DE
:10117000200F311FC901DF91CF911F910F91FF9077
:10118000EF90DF90CF9008959A01AB01662757FD4D
:101190006095762F0C9478084F925F926F927F92B1
:1011A0008F929F92AF92BF92CF92DF92EF92FF9277
:1011B0000F931F93CF933C014A015B01C22F20E0A4
:1011C00030E0A901C501B4010E944E0C87FF0AC09E
:1011D0006DE2C3010E9415082C01B7FAB094B7F86C
:1011E000B09402C0412C512C10E060E070E080E02F
:1011F0009FE307C020E030E040E251E40E94520C3F
:101200001F5F1C13F7CF262F372F482F592FC501EB
:10121000B4010E94EA0B962EA72EB82EC92E0E946A
:10122000BF0CD62EE72EF82E192F0E94EB0C9B0137
:10123000AC01692D7A2D8B2D9C2D0E94E90BC62EB9
:10124000B72EA82E992E2AE04D2D5E2D6F2D712FD1
:10125000C3010E941C088C01040D151DCC23B9F19B
:1012600068EA71E0C3010E940308080F191F2FC02C
:1012700020E030E040E251E46C2D7B2D8A2D992D49
:101280000E94E60D4B015C01792D9B2D0E94BA0C4A
:101290006B01EE24D7FCE094FE2C2AE030E0B7018D
:1012A000A601C3010E947808080F191FC701B601E3
:1012B0000E94ED0C9B01AC01682D792D8A2D9B2D90
:1012C0000E94E90BC62EB72EA82E992EC150C1112F
:1012D000CFCFC801CF911F910F91FF90EF90DF907A
:1012E000CF90BF90AF909F908F907F906F905F90C6
:1012F0004F9008950C94CC080F931F93CF93DF93D6
:10130000EC010E948604688779878A879B87E88139
:10131000F9810680F781E02DCE0109959C0197FFA8
:1013200015C00E948604088519852A853B85601BA7
:10133000710B820B930B0C811D812E813F816017F5
:1013400071078207930718F32FEF3FEFC901DF9171
:10135000CF911F910F910895FC01448355836683BB
:1013600077830895CF92DF92EF92FF920F931F93AE
:10137000CF93DF937C018B016A01C0E0D0E009C00C
:10138000C7010E947C0997FD07C0F80181938F0176
:101390002196CC15DD05A1F7CE01DF91CF911F91EC
:1013A0000F91FF90EF90DF90CF900895CF93DF9350
:1013B000EC0160E08E810E948F0581E090E00E9448
:1013C000E80461E08E810E948F0581E090E00E9438
:1013D000E80460E08E810E948F0584E690E0DF9152
:1013E000CF910C94E804CF92DF92EF92FF920F938B
:1013F0001F93CF93DF937C01C0E0D0E0C62ED12CA9
:1014000087010C0F1D1F61E0F80187810E945705BD
:10141000B6010C2E02C0759567950A94E2F76170CB
:101420007727F80187810E948F052196C430D10566
:1014300039F7C701DF91CF911F910F91FF90EF9086
:10144000DF90CF900C94D609CF92DF92EF92FF926B
:101450000F931F93CF93DF937C01C0E0D0E0C62EA3
:10146000D12C87010C0F1D1F61E0F80187810E94BC
:101470005705B6010C2E02C0759567950A94E2F7E0
:1014800061707727F80187810E948F052196C83007
:10149000D10539F7C701DF91CF911F910F91FF90CF
:1014A000EF90DF90CF900C94D6091F93CF93DF93EA
:1014B000EC01162F642F8C810E948F058D818F3F48
:1014C00019F060E00E948F058F85612F84FF06C0B0
:1014D000CE01DF91CF911F910C94240A70E084E03B
:1014E000759567958A95E1F7CE010E94F309612F02
:1014F000CE01DF91CF911F910C94F30941E00E943E
:10150000550A81E090E0089540E00C94550AFC01F2
:101510006089262F2460208B6C600C94840ACF9302
:10152000DF93CDB7DEB728970FB6F894DEBF0FBEB6
:10153000CDBF28E0E6E1F1E0DE01119601900D92C9
:101540002A95E1F7FC012389421710F0422F415000
:10155000E1E0F0E0EC0FFD1F22E0429FE00DF11D05
:1015600011242081260F2068622F28960FB6F89448
:10157000DEBF0FBECDBFDF91CF910C94840A61E036
:101580000E94840A80ED97E00C94E804CF93DF93E7
:10159000EC01423018F08F8588608F874B8B1C8A56
:1015A000222329F0413019F48F8584608F8780E5EC
:1015B00093EC0E94E80460E08C810E948F0560E05B
:1015C0008E810E948F058D818F3F19F060E00E940F
:1015D0008F056F8564FD1DC063E0CE010E94F30995
:1015E00084E991E10E94E80463E0CE010E94F309DE
:1015F00084E991E10E94E80463E0CE010E94F309CE
:1016000086E990E00E94E80462E0CE010E94F309BE
:1016100016C06062CE010E94840A84E991E10E94B2
:10162000E8046F856062CE010E94840A86E990E03A
:101630000E94E8046F856062CE010E94840A6F8573
:101640006062CE010E94840A84E0888BCE010E94F1
:10165000870ACE010E94BF0A82E0898B66E0CE0134
:10166000DF91CF910C94840A6F927F928F92AF9208
:10167000CF92EF920F931F93CF93DF93CDB7DEB747
:101680003C01162F842F5D854E853F859889F30197
:10169000848325830683E782C086A186828653875A
:1016A00044873587968761E00E945705F30185815D
:1016B0008F3F19F061E00E94570561E0F3018681D8
:1016C0000E945705112319F0F301178603C080E12A
:1016D000F301878720E041E060E1C301DF91CF9112
:1016E0001F910F91EF90CF90AF908F907F906F9060
:1016F0000C94C60A8F92AF92CF92EF920F93DC01B7
:1017000013961C921E921297EEEAF1E0ED93FC9371
:101710001F921F921F921F928A2CAC2CCE2CE02E6F
:10172000022F242F462F61E00E94340B0F900F9060
:101730000F900F900F91EF90CF90AF908F900895F2
:10174000F8940C941F1291117FC5803219F08950C2
:101750008550D0F70895FB01DC018D91019080192F
:101760000110D9F3990B0895FB0151915523A9F06C
:10177000BF01DC014D9145174111E1F759F4CD014D
:101780000190002049F04D9140154111C9F3FB0132
:101790004111EFCF81E090E001970895A0E1B0E022
:1017A000E4EDFBE00C94F21185E08C838D899E8939
:1017B0009A838983AE01475E5F4F588B4F876F894D
:1017C000788DCE0101960E94F60F6096E2E00C94AF
:1017D0000E125058BB27AA270ED075C166D130F023
:1017E0006BD120F031F49F3F11F41EF45BC10EF475
:1017F000E095E7FB51C1E92F77D180F3BA17620773
:1018000073078407950718F071F49EF58FC10EF4E5
:10181000E0950B2EBA2FA02D0B01B90190010C0100
:10182000CA01A0011124FF27591B99F0593F50F418
:10183000503E68F11A16F040A22F232F342F442770
:10184000585FF3CF469537952795A795F040539568
:10185000C9F77EF41F16BA0B620B730B840BBAF038
:101860009150A1F0FF0FBB1F661F771F881FC2F7A3
:101870000EC0BA0F621F731F841F48F487957795B7
:101880006795B795F7959E3F08F0B3CF9395880F6E
:1018900008F09927EE0F979587950895D9D008F409
:1018A00081E008950CD00FC107D140F0FED030F098
:1018B00021F45F3F19F0F0C0511139C1F3C014D1C8
:1018C00098F39923C9F35523B1F3951B550BBB2707
:1018D000AA2762177307840738F09F5F5F4F220FB4
:1018E000331F441FAA1FA9F333D00E2E3AF0E0E8AD
:1018F00030D091505040E695001CCAF729D0FE2FF9
:1019000027D0660F771F881FBB1F2617370748078A
:10191000AB07B0E809F0BB0B802DBF01FF27935840
:101920005F4F2AF09E3F510568F0B6C000C15F3F8F
:10193000ECF3983EDCF3869577956795B795F79528
:101940009F5FC9F7880F911D9695879597F9089520
:10195000E1E0660F771F881FBB1F621773078407BC
:10196000BA0720F0621B730B840BBA0BEE1F88F7CB
:10197000E095089504D06894B111D9C00895BCD001
:1019800088F09F5790F0B92F9927B751A0F0D1F068
:10199000660F771F881F991F1AF0BA95C9F712C0F2
:1019A000B13081F0C3D0B1E00895C0C0672F782F67
:1019B0008827B85F39F0B93FCCF38695779567955E
:1019C000B395D9F73EF490958095709561957F4FCA
:1019D0008F4F9F4F0895E89409C097FB3EF4909570
:1019E0008095709561957F4F8F4F9F4F9923A9F0F8
:1019F000F92F96E9BB279395F69587957795679587
:101A0000B795F111F8CFFAF4BB0F11F460FF1BC0CA
:101A10006F5F7F4F8F4F9F4F16C0882311F096E95D
:101A200011C0772321F09EE8872F762F05C066230B
:101A300071F096E8862F70E060E02AF09A95660FC4
:101A4000771F881FDAF7880F9695879597F908957D
:101A5000990F0008550FAA0BE0E8FEEF16161706BF
:101A6000E807F907C0F012161306E407F50798F027
:101A7000621B730B840B950B39F40A2661F0232B40
:101A8000242B252B21F408950A2609F4A140A695BC
:101A90008FEF811D811D089597F99F6780E870E0A1
:101AA00060E008959FEF80EC089500240A941616D4
:101AB000170618060906089500240A94121613063C
:101AC000140605060895092E0394000C11F48823CA
:101AD00052F0BB0F40F4BF2B11F460FF04C06F5FE6
:101AE0007F4F8F4F9F4F089557FD9058440F551FBC
:101AF00059F05F3F71F04795880F97FB991F61F090
:101B00009F3F79F087950895121613061406551F06
:101B1000F2CF4695F1DF08C0161617061806991F72
:101B2000F1CF86957105610508940895E894BB2767
:101B300066277727CB0197F908958ADF08F48FEF9E
:101B400008950EF0EAC3AECF6894A6CFD5DFC8F3F0
:101B50009923D1F3C6F3DF93CF931F930F93FF9293
:101B6000C92FDD2788232AF02197660F771F881F4A
:101B7000DAF720E030E040E85FEB9FE3883920F0BF
:101B8000803E30F021968F7725DEE8E6F0E003C056
:101B900021DEE5E9F0E0CFD38B01BE01EC01FB2EA5
:101BA0006F5771097595771F880B990B16DF28E120
:101BB00032E741E35FE316D0AF2D9801AE01FF900D
:101BC0000F911F91CF91DF9116DE7DCF0BD07BCF90
:101BD0006CDF28F071DF18F0952309F05DCF62CF3C
:101BE0001124A5CF81DFA0F3959FD1F3950F50E08D
:101BF000551F629FF001729FBB27F00DB11D639FBF
:101C0000AA27F00DB11DAA1F649F6627B00DA11D64
:101C1000661F829F2227B00DA11D621F739FB00D0A
:101C2000A11D621F839FA00D611D221F749F33277A
:101C3000A00D611D231F849F600D211D822F762F13
:101C40006A2F11249F5750408AF0E1F088234AF010
:101C5000EE0FFF1FBB1F661F771F881F915050405C
:101C6000A9F79E3F510570F017CF61CF5F3FECF3AE
:101C7000983EDCF3869577956795B795F795E79548
:101C80009F5FC1F7FE2B880F911D9695879597F959
:101C9000089520FD09C0FC0123FD05C022FF02C0FC
:101CA00073836283518340830895CF92DF92EF92D2
:101CB000FF920F931F9344FD10C046FD10C0DB013F
:101CC000FC01AA0FBB1FEE1FFF1F1094D1F76A0F74
:101CD0007B1F8E1F9F1F31E003C033E001C034E043
:101CE000660F771F881F991F3150D1F76B017C0158
:101CF000C20ED11CE11CF11C97018601B601C9017D
:101D00001F910F91FF90EF90DF90CF9008950F9368
:101D10001F93CF93DF938C01C8010E943211EC0115
:101D200097FD08C00E94A30B892BB1F7B801CE0123
:101D30000E947211CE01DF91CF911F910F910895F2
:101D40008F929F92AF92CF92DF92EF92FF920F937A
:101D50001F93CF93DF93EC01A62E4A01022F0E941E
:101D60003211FC01FF27EB32F10519F0BD9751F458
:101D70000068AA9411F480E063C0CE010E94321181
:101D800097FDF9CF102F1D7F302F3073E1F4803392
:101D9000D1F4AA9409F440C0CE010E94321197FDFB
:101DA0003BC0883711F0883549F41264AA94A1F138
:101DB000CE010E94321197FF06C02EC006FF02C05E
:101DC000126001C01261C12CD12C7601282F205342
:101DD000283080F014FF04C0BE010E94721119C0A7
:101DE0002A3040F016FFF8CF2F7D322F3151363098
:101DF00098F72750412FC701B6010E94550E6B017D
:101E00007C011260AA9459F0CE010E94321197FF12
:101E1000DDCF11FD04C0AFCFC12CD12C760117FF4F
:101E200008C0F094E094D094C094C11CD11CE11C73
:101E3000F11C212FB701A601C4010E94490E81E0C7
:101E4000DF91CF911F910F91FF90EF90DF90CF9096
:101E5000AF909F908F9008956F927F929F92AF92D4
:101E6000BF92CF92DF92EF92FF920F931F93CF9387
:101E7000DF93CDB7DEB7A1970FB6F894DEBF0FBEE4
:101E8000CDBF6C017A018901FE01319680E2DF014C
:101E90001D928A95E9F7D60113969C9020E030E0D8
:101EA000A12CA0E0B12CCF0141E050E0F80193FC5F
:101EB000759193FE71918F01711103C000E010E0E4
:101EC00080C07E3519F42115310559F1EB2DF0E074
:101ED000E217F3073CF47D3569F17D3219F4AA234A
:101EE00019F103C0A11101C0A72EE72FE695E695D1
:101EF000E6953C016E0E711CF301A72FA7703A0105
:101F000002C0660C771CAA95E2F7D301B081BA2B08
:101F1000B0837A1559F07A1510F47F5FE6CF7150CF
:101F2000E4CFBB24B39403C0A1E001C0A0E02F5FC5
:101F30003F4FBCCFAA2319F08E8180628E83B110EF
:101F400003C0BB24B3940BC0FE013196CE01819631
:101F5000208120952193E817F907D1F7F2CFC60128
:101F600069A30E94321169A197FD24C0282F2695EC
:101F700026952695E1E0F0E0EC0FFD1FE20FF11D44
:101F8000208130E0AC014770552702C03595279578
:101F90004A95E2F720FD04C0B6010E9472110AC002
:101FA000E114F10419F0D7018D937D016150B12C3A
:101FB000B1F602C0B11082CFE114F10411F0F701C3
:101FC0001082C801A1960FB6F894DEBF0FBECDBF38
:101FD000DF91CF911F910F91FF90EF90DF90CF9005
:101FE000BF90AF909F907F906F9008954F925F92B7
:101FF0007F928F929F92AF92BF92CF92DF92EF9299
:10200000FF920F931F93CF93DF931F92CDB7DEB74D
:102010008C012B015A01FC0117821682812CF0C021
:102020008E2D90E00E94A30B892B21F0C8010E9405
:10203000870EE6C0F5E2EF120AC0F201F3FC35911B
:10204000F3FE31912F01353271F455E2E52EC801CE
:102050000E94321197FDDFC0E81609F4D1C0B80123
:102060000E947211DAC03A3241F4F3FC3591F3FE6A
:1020700031912F019924939401C0912C712C10C09F
:10208000F2E09F2A672D70E080E090E040E20E943D
:10209000550E762EF201F3FC3591F3FE31912F01AE
:1020A000232F20532A3060F391FE03C0711003C028
:1020B000B4C077247A94383619F03C3699F40AC0C3
:1020C000F201F3FC3591F3FE31912F01383651F4D2
:1020D000F8E09F2A84E0982AF201F3FC3591F3FEA0
:1020E00031912F01332309F498C0632F70E08CE104
:1020F00091E039830E9427113981892B09F48DC021
:1021000090FC07C0F501E080F18082E0A80EB11CD0
:1021100002C0E12CF12C3E3651F4F8014681578182
:1021200060E070E0292DC7010E94490E69C0333676
:1021300091F491FC02C077247394C8010E9432117B
:1021400097FD69C0E114F10419F0F70181937F0153
:102150007A9499F753C03B3559F49201A701672D42
:10216000C8010E942C0F2C01009709F047C041C004
:10217000C80139830E94870E398197FD4CC03F36D4
:1021800059F128F4343629F1393649F52AC0333764
:1021900019F0353721F51DC0C8010E9432116C01BC
:1021A00097FD11C00E94A30B892B29F0B801C6012D
:1021B0000E94721108C0E114F10419F0F701C192F4
:1021C0007F017A9449F7E114F104C1F0F70110821C
:1021D00015C0F0E29F2A05C080E1982A02C090E471
:1021E000992A292DA701672DC8010E94A00E8111EF
:1021F00005C0F8018381807371F40FC090FE839451
:10220000F801F380F201F3FCE590F3FEE1902F0179
:10221000E11006CF02C0882019F0282D30E002C05E
:102220002FEF3FEFC9010F90DF91CF911F910F91D9
:10223000FF90EF90DF90CF90BF90AF909F908F90E6
:102240007F905F904F900895992788270895FC010B
:102250000590061621F00020D9F7C00108953197A6
:10226000CF010895CF93DF93EC013B8130FF34C061
:1022700036FF0AC03F7B3B838E819F8101969F83FF
:102280008E832A8130E02AC032FF0FC0E881F981B5
:102290008081992787FD9095009719F430623B83E0
:1022A0001BC03196F983E8830EC0EA85FB8509954A
:1022B00097FF09C02B81019611F480E101C080E2F3
:1022C000822B8B8309C02E813F812F5F3F4F3F833D
:1022D0002E839C01332702C02FEF3FEFC901DF910E
:1022E000CF910895FB01238120FF13C026FD11C06B
:1022F0008F3F3FEF930769F082832F7D2064238314
:102300002681378121503109378326839C01332769
:1023100002C02FEF3FEFC90108959F3F31F0915068
:1023200020F4879577956795B795880F911D9695B9
:10233000879597F90895DF93CF931F930F93FF929B
:10234000EF92DF927B018C01689405C0DA2EEF01D9
:1023500049DCFE01E894A59125913591459155916F
:10236000AEF3EF0148DAFE019701A801DA9479F79C
:10237000DF90EF90FF900F911F91CF91DF91089523
:10238000A1E21A2EAA1BBB1BFD010DC0AA1FBB1F79
:10239000EE1FFF1FA217B307E407F50720F0A21BEB
:1023A000B30BE40BF50B661F771F881F991F1A9458
:1023B00069F760957095809590959B01AC01BD0182
:1023C000CF0108952F923F924F925F926F927F922A
:1023D0008F929F92AF92BF92CF92DF92EF92FF9235
:1023E0000F931F93CF93DF93CDB7DEB7CA1BDB0BE1
:1023F0000FB6F894DEBF0FBECDBF09942A88398886
:1024000048885F846E847D848C849B84AA84B9848C
:10241000C884DF80EE80FD800C811B81AA81B98198
:10242000CE0FD11D0FB6F894DEBF0FBECDBFED01AC
:102430000895EE0FFF1F0590F491E02D0994F89494
:02244000FFCFCC
:102442000000803E430000A0410D0007001100087B
:102452000006001000010000400014005400416317
:102462007475616C3A2000206F002A2A2A2A484596
:102472004154204F46462A2A2A2A005365743A209C
:102482002020200052544D502D2D2D2D2D00615411
:102492005352544D500061545354544D50002566CC
:1024A20000615453535441540061545353544154A2
:1024B200312D2D2D2D0061545353544154302D2D67
:1024C2002D2D0052454C412D2D2D2D2D00615453A3
:1024D20052454C4100545300000000005206DB07F5
:1024E200EF051E06020640062E00000000007E0ACE
:0224F200DB0706
:00000001FF
