:100000000C94C2000C94EA000C94EA000C94EA00F0
:100010000C94EA000C94EA000C94EA000C94EA00B8
:100020000C94EA000C94EA000C94EA000C94EA00A8
:100030000C94EA000C94EA000C94EA000C94EA0098
:100040000C9419050C94EA000C9467070C94A30710
:100050000C94EA000C94EA000C94EA000C94EA0078
:100060000C94EA000C94EA0008000000BE922449B7
:10007000123EABAAAA2ABECDCCCC4C3E00000080DA
:10008000BEABAAAAAA3E00000000BF000000803F4D
:100090000000000000084178D3BB4387D1133D190D
:1000A0000E3CC3BD4282AD2B3E68EC8276BED98F3A
:1000B000E1A93E4C80EFFFBE01C4FF7F3F0000007E
:1000C000000007634236B79BD8A71A39685618AEA6
:1000D000BAAB558C1D3CB7CC5763BD6DEDFD753E7D
:1000E000F6177231BF000000803F000000070002D9
:1000F00001000003040600000000000000000102EF
:1001000004081020408001020408102001020408A5
:100110001020040404040404040402020202020283
:10012000030303030303000000002300260029004B
:1001300000000000250028002B0000000000240023
:1001400027002A00494E46494E4954594E414ECD4A
:10015000CCCC3D0AD7233C17B7D13877CC2B32957E
:1001600095E6241FB14F0A000020410000C842005C
:10017000401C4620BCBE4CCA1B0E5AAEC59D740026
:10018000E1045E0811241FBECFEFD8E0DEBFCDBF73
:1001900011E0A0E0B1E0E4EEF4E202C005900D92BF
:1001A000A23DB107D9F712E0A2EDB1E001C01D9266
:1001B000A93AB107E1F711E0C4E8D1E004C0229701
:1001C000FE010E946C12C038D107C9F70E94AE0828
:1001D0000C947B0C0C940000CF93DF93C2EDD1E024
:1001E000CE0162E044E120E00E949D0B80919701E6
:1001F00061E00E9434068091990160E00E9434061B
:1002000080919B0161E00E94340680919B0161E036
:100210000E946C0680919D0160E00E9434068091EE
:100220009F0160E00E9434068091A10161E00E947C
:1002300034068091A10161E00E946C06CE010E940B
:10024000960B80E092E040E855E260E070E00E94AA
:10025000DE07DF91CF910895682F8091A1010E9460
:100260006C061092EA011092E9010895EF92FF9254
:100270000F931F93CF93DF938091F1018823B1F502
:10028000809199010E94A3068C0180919D010E949A
:10029000A3067C018091F5019091F60108171907DA
:1002A00039F42091F3013091F401E216F30699F04C
:1002B000009789F40130110571F4C091F301D091D8
:1002C000F401D095C195DF4FCC0FDD1F219681E061
:1002D0000E942C0102C0C0E0D0E01093F601009310
:1002E000F501F092F401E092F30102C0C0E0D0E029
:1002F000CE01DF91CF911F910F91FF90EF90089564
:100300008091E7010E94F8049C01B901882777FDDC
:100310008095982F0E94B80D9B01AC0160E071E2BE
:1003200084E097E40E941D0D20E030E044E052E4B8
:100330000E94B40C20E030E044E052E40E941D0D25
:100340000E94CA0E2AEE38E94BE551E40E94B50C32
:100350009B01AC0160E070EA8FE795E40E941D0DFF
:1003600020E030E848E853E40E94B40C08956F920E
:100370007F928F929F92AF92BF92CF92DF92EF9235
:10038000FF920F931F938091F1018823E9F560900C
:10039000ED017090EE018090EF019090F001E090FF
:1003A000A301F090A4010091A5011091A601A090D5
:1003B000A801B090A901C090AA01D090AB01C801DA
:1003C000B701A60195010E94B40C9B01AC01C401C8
:1003D000B3010E94190D87FF09C08091970161E068
:1003E0000E946C0681E08093F20115C0C801B7013C
:1003F000A60195010E94B50C9B01AC01C401B3019B
:100400000E94BB0E18163CF48091970160E00E9498
:100410006C061092F2011F910F91FF90EF90DF9008
:10042000CF90BF90AF909F908F907F906F900895E6
:100430002091A701233491F020E030E040E151E425
:100440000E940A0F20E030E040EA50E40E941D0DB7
:1004500020E030E040E052E40E94B50C089582EDC7
:1004600091E060E040E00E94690B82ED91E060E085
:1004700071E00E94F3086091ED017091EE018091AE
:10048000EF019091F0010E941802AB01BC0182EDD6
:1004900091E022E030E00E94540A82ED91E069E0B0
:1004A00071E00E94F30882ED91E06091A7010E9443
:1004B000F50882ED91E06CE071E00E94F30882EDB6
:1004C00091E060E041E00E94690B8091F101882396
:1004D00029F082ED91E06EE071E028C082ED91E0BC
:1004E0006FE171E00E94F3086091A3017091A40193
:1004F0008091A5019091A6010E941802AB01BC0158
:1005000082ED91E022E030E00E94540A82ED91E019
:1005100069E071E00E94F30882ED91E06091A7012B
:100520000E94F50882ED91E06CE071E00E94F30812
:1005300008950E9480016093ED017093EE01809315
:10054000EF019093F00180919F010E94A306009714
:1005500091F081E00E942C0181E09091F1019111D4
:1005600080E08093F1010E942F0264EF71E080E04F
:1005700090E00E949F050E9436019C01B9018827E6
:1005800077FD8095982F0E94B80D20E030E040E084
:100590005FE30E940A0F9B01AC016091A30170917F
:1005A000A4018091A5019091A6010E94B50C6093D1
:1005B000A3017093A4018093A5019093A60180915B
:1005C000EB019091EC0133E0883E9307D9F48091E0
:1005D000E9019091EA018436910519F480E00E94C6
:1005E0002C018091E9019091EA0101969093EA0132
:1005F0008093E9010E942F020E94B7011092EC0142
:100600001092EB018091EB019091EC010196909397
:10061000EC018093EB0108955F926F927F928F922D
:100620009F92AF92BF92CF92DF92EF92FF920F9381
:100630001F93CF93DF93EC01142F052FF62EE72E97
:10064000A8019701652F742F832F922F0E94BF0E50
:100650000E94850D6B019EE2592E4DC0B601882780
:1006600077FD8095982F0E94B80D9B01AC0160E04A
:1006700070E080E291E40E946D0FB62EA72E782ED6
:10068000692EA8019701652F702F832F9E2DD5010C
:10069000F3012B2F3A2F4F2F5E2F0E941D0D0E942A
:1006A000F30D0E94850D4B01B401882777FD8095DD
:1006B000982F0E94B80DD501F3012B2F3A2F4F2F01
:1006C0005E2F0E940A0F9B01AC01D801F7016B2F2E
:1006D000702F8F2F9E2D0E94B40C162F072FF82EEF
:1006E000E92E882D805D8993C114D10409F45992B3
:1006F0000894C108D108A8019701652F702F832F96
:100700009E2D27E137EB41ED58E30E94BB0E1816F2
:100710000CF4A4CF1882DF91CF911F910F91FF901D
:10072000EF90DF90CF90BF90AF909F908F907F9091
:100730006F905F900895EF92FF920F931F93DF9356
:10074000CF93CDB7DEB7A3970FB6F894DEBF0FBE39
:10075000CDBF80E092E048EE53E060E070E00E94A0
:10076000860A80E092E0BE01695E7F4F4CE050E077
:100770000E948C0A8C3091050CF416C11BA28F8943
:10078000813609F011C1CE01019623E0FC011192DE
:100790002A95E9F7288D2983298D2A8365EB71E055
:1007A0000E94910C009709F0FFC01D86FE017A9609
:1007B000DE011496CE01839621912D93E817F90757
:1007C000D9F78E010C5F1F4FC80168E271E00E94EB
:1007D0009A0C0097F1F08E01035F1F4F4091ED01DD
:1007E0005091EE016091EF017091F001C8010E94FB
:1007F0000C03C80162E371E00E94860C1A8A80E053
:1008000092E067E371E00E94F30880E092E0B801B3
:10081000C9C0C8016FE371E00E949A0C009709F407
:100820004DC08E01035F1F4F86E0F80111928A953B
:10083000E9F788858D8789858E878A858F878B855F
:10084000888B8C85898BC80164E471E00E949A0CC6
:100850000097F9F4C8010E94770C7B018C0120E01D
:1008600030E040E251E40E94BB0E181694F4C80137
:10087000B70120E030E040EF51E40E94190D87FFFE
:1008800008C0E092A301F092A4010093A501109387
:10089000A60180E092E06AE471E00E94F3084091D2
:1008A000A3015091A4016091A5017091A60180E07F
:1008B00092E022E030E00E94540A76C0C80162E56E
:1008C00071E00E949A0C009709F452C08E01035FF8
:1008D0001F4F86E0F80111928A95E9F788858D8788
:1008E00089858E878A858F878B85888B8C85898B78
:1008F000C80164E471E00E949A0C0097E1F080E086
:1009000092E067E571E00E94F3088091F10188238D
:1009100029F080E092E060E070E004C080E092E0C6
:1009200061E070E04AE050E00E94A30980E092E0BC
:1009300062E371E037C0C8016FE571E00E949A0C74
:10094000009739F01092F10180E092E065E671E0E5
:1009500029C0C80162E771E00E949A0C009721F15A
:1009600081E08093F10180E092E068E771E01AC0D5
:10097000C80165E871E00E949A0C0097A9F080E038
:1009800092E06FE871E00E94F3088091F201882301
:1009900029F080E092E06FE571E004C080E092E031
:1009A00062E771E00E94F308A3960FB6F894DEBFE9
:1009B0000FBECDBFCF91DF911F910F91FF90EF90B0
:1009C0000895AF92CF92EF920F9382ED91E06CE099
:1009D0004BE02AE005E074E0E72E53E0C52E32E05C
:1009E000A32E0E94510C0F91EF90CF90AF900895DD
:1009F0008E3008F08E5087702091AC0140E4249F27
:100A000090011124822B80937C0080917A00806475
:100A100080937A0080917A0086FDFCCF2091780047
:100A200030917900932F80E0AC01422B9A01C901EB
:100A300008951F920F920FB60F9211242F933F9398
:100A40008F939F93AF93BF938091F7019091F8019B
:100A5000A091F901B091FA013091FF01232F2D5F90
:100A60002D3720F40196A11DB11D05C0232F2A5753
:100A70000296A11DB11D2093FF018093F701909371
:100A8000F801A093F901B093FA018091FB019091D4
:100A9000FC01A091FD01B091FE010196A11DB11DC7
:100AA0008093FB019093FC01A093FD01B093FE01A4
:100AB000BF91AF919F918F913F912F910F900FBE5A
:100AC0000F901F9018950F931F938FB7F894009174
:100AD000F7011091F8012091F9013091FA018FBFCF
:100AE000B801C9011F910F9108950F931F939FB7EC
:100AF000F8940091FB011091FC012091FD013091CF
:100B0000FE0186B5A89B06C08F3F21F00F5F1F4FE7
:100B10002F4F3F4F9FBF322F212F102F0027080F3D
:100B2000111D211D311D42E0000F111F221F331F17
:100B30004A95D1F7B801C9011F910F910895CF923D
:100B4000DF92EF92FF92CF93DF936B017C010E94C3
:100B50007505EB010EC00E9475056C1B7D0B683E90
:100B6000734038F081E0C81AD108E108F108C85193
:100B7000DC4FC114D104E104F10469F7DF91CF9196
:100B8000FF90EF90DF90CF900895019739F0880F94
:100B9000991F880F991F02970197F1F7089578948C
:100BA00084B5826084BD84B5816084BD85B5826072
:100BB00085BD85B5816085BDEEE6F0E08081816010
:100BC0008083E1E8F0E01082808182608083808110
:100BD00081608083E0E8F0E0808181608083E1EBE8
:100BE000F0E0808184608083E0EBF0E080818160D0
:100BF0008083EAE7F0E08081846080838081826086
:100C0000808380818160808380818068808310926E
:100C1000C1000895833069F028F48130A1F082305A
:100C200011F514C08630B1F08730C1F08430D9F4AA
:100C300004C0809180008F7703C0809180008F7DF9
:100C400080938000089584B58F7702C084B58F7D2E
:100C500084BD08958091B0008F7703C08091B0006B
:100C60008F7D8093B0000895CF93DF9390E0FC01D7
:100C7000E250FF4F4491FC01EE5EFE4F84918823C9
:100C800041F190E0880F991FFC01E65CFE4F259131
:100C90003491D901805D9E4FFC0185919491C82FBC
:100CA000D92F9FB7F8948C91611106C04095842389
:100CB0008C938881842308C0623041F4242F2095CE
:100CC00082238C938881842B888302C0842B8C930D
:100CD0009FBFDF91CF9108950F931F93CF93DF9321
:100CE0001F92CDB7DEB7282F30E0F901E651FF4F54
:100CF0008491F901E250FF4F1491F901EE5EFE4F2D
:100D000004910023D1F0882321F069830E940A0610
:100D10006981E02FF0E0EE0FFF1FE05DFE4F85914F
:100D20009491DC019FB7F8948C91611103C01095E8
:100D3000812301C0812B8C939FBF0F90DF91CF91B6
:100D40001F910F910895CF93DF93282F30E0F90181
:100D5000E651FF4F8491F901E250FF4FD491F90120
:100D6000EE5EFE4FC491CC2389F081110E940A06E9
:100D7000EC2FF0E0EE0FFF1FEA5DFE4F859194919E
:100D8000DC018C918D2321E030E011F420E030E093
:100D9000C901DF91CF910895FC0184859585FC01FF
:100DA000E05CFF4F20813181FC01EE5BFF4F8081D1
:100DB0009181281B390B2F733327C9010895FC013A
:100DC00084859585FC01E05CFF4F40815181FC01E9
:100DD000EE5BFF4F208131814217530741F00190B4
:100DE000F081E02DE80FF91F208130E002C02FEFE5
:100DF0003FEFC9010895FC0184859585FC01E05C05
:100E0000FF4F40815181FC01EE5BFF4F208131811A
:100E10004217530781F0A081B181A80FB91F8C91AF
:100E2000208131812F5F3F4F2F7333273183208300
:100E3000282F30E002C02FEF3FEFC9010895FC01D9
:100E400086859785FC01E05CFF4FDC01AE5BBF4F00
:100E5000408151812D913C91119742175307C1F761
:100E60000895CF93DF93FC0186859785DC01A05C14
:100E7000BF4F2D913C9111972F5F3F4F2F73332719
:100E8000EC01CE5BDF4F4881598124173507D9F338
:100E90000D90BC91A02DA80FB91F6C93A685B785A6
:100EA000A05CBF4F11963C932E93A689B7892C91D5
:100EB00081E090E0058C02C0880F991F0A94E2F748
:100EC000282B2C9381E090E0DF91CF9108951F9221
:100ED0000F920FB60F9211242F933F934F938F933E
:100EE0009F93EF93FF934091C6008091A30290914E
:100EF000A40201968F7399272091A5023091A60232
:100F00008217930759F0E091A302F091A402ED59E2
:100F1000FD4F40839093A4028093A302FF91EF9131
:100F20009F918F914F913F912F910F900FBE0F90F6
:100F30001F90189580E092E00E94CC06892B11F05A
:100F40000C949B0308951F920F920FB60F921124D9
:100F50002F933F938F939F93EF93FF9320915F0283
:100F600030916002809161029091620228173907E6
:100F700031F48091C1008F7D8093C10014C0E09155
:100F80006102F0916202E15EFD4F20818091610279
:100F90009091620201968F739927909362028093D9
:100FA00061022093C600FF91EF919F918F913F9135
:100FB0002F910F900FBE0F901F901895CF92DF9238
:100FC000EF92FF92CF93DF93EC016A017B01411511
:100FD00081EE580761057105F9F0EC89FD8981E022
:100FE00090E00E8C02C0880F991F0A94E2F780836C
:100FF00060E079E08DE390E0A70196010E94111274
:101000002150310941095109569547953795279542
:10101000211580E1380798F0EC89FD89108260E89D
:1010200074E88EE190E0A70196010E941112215010
:101030003109410951095695479537952795E88912
:10104000F9893083EA89FB892083EE89FF89408111
:1010500081E090E09C010A8C02C0220F331F0A94A9
:10106000E2F7422B4083EE89FF8940819C010B8C83
:1010700002C0220F331F0A94E2F7422B4083EE890D
:10108000FF8940819C010C8C02C0220F331F0A94FF
:10109000E2F7422B4083EE89FF8920810D8C02C04C
:1010A000880F991F0A94E2F7809582238083DF914D
:1010B000CF91FF90EF90DF90CF90089510920302B0
:1010C0001092020288EE93E0A0E0B0E08093040268
:1010D00090930502A0930602B09307028CEB91E077
:1010E000909301028093000283E692E090930D02B8
:1010F00080930C028FE192E090930F0280930E0296
:1011000085EC90E0909311028093100284EC90E0C3
:10111000909313028093120280EC90E0909315025A
:101120008093140281EC90E0909317028093160252
:1011300086EC90E0909319028093180284E08093EB
:101140001A0283E080931B0287E080931C0285E0F3
:1011500080931D0281E080931E0208950E94CF05B6
:101160000E94EC00CAE9D7E00E9499022097E1F3BF
:101170000E949A07F9CFCF92DF92EF92FF920F93DE
:101180001F93CF93DF936C01EB017A01E60EF71EFC
:1011900000E010E00BC06991D601ED91FC91019047
:1011A000F081E02DC6010995080F191FCE15DF0546
:1011B00091F7C801DF91CF911F910F91FF90EF90B0
:1011C000DF90CF900895DB010D900020E9F7AD018D
:1011D00041505109461B570BDC01ED91FC910280F7
:1011E000F381E02D09940C94E308DC01ED91FC916E
:1011F0000190F081E02D09944F925F926F927F925F
:101200009F92AF92BF92CF92DF92EF92FF920F9395
:101210001F93CF93DF93CDB7DEB7A1970FB6F894A6
:10122000DEBF0FBECDBF5C016A017B01922E19A209
:1012300081E0821710F08AE0982E8E010F5D1F4F1B
:10124000492C512C612C712CC701B601A3019201CC
:101250000E9411128C2D929E8019112401501109A7
:101260008A3014F4805D01C0895CF80180836901D3
:101270007A01C114D104E104F10431F7B801C501C8
:101280000E94E308A1960FB6F894DEBF0FBECDBF53
:10129000DF91CF911F910F91FF90EF90DF90CF9052
:1012A000BF90AF909F907F906F905F904F90089508
:1012B000CF92DF92EF92FF920F931F93CF93DF9322
:1012C000EC016A017B012115310579F4E881F9818E
:1012D0000190F081E02D642FDF91CF911F910F914C
:1012E000FF90EF90DF90CF9009942A30310519F4E8
:1012F00077FD0EC02AE0B701A601CE01DF91CF91A4
:101300001F910F91FF90EF90DF90CF900C94FC080D
:101310006DE20E94F5088C0144275527BA014C194B
:101320005D096E097F092AE0CE010E94FC08080FC2
:10133000191FC801DF91CF911F910F91FF90EF907E
:10134000DF90CF9008959A01AB01662757FD609515
:10135000762F0C9458097F928F929F92AF92BF92F2
:10136000CF92DF92EF92FF920F931F93CF93DF9371
:101370008C014A015B01F22E20E030E0A901C50199
:10138000B4010E94190D87FF0AC06DE2C8010E94D6
:10139000F508EC01B7FAB094B7F8B09402C0C0E019
:1013A000D0E0E12C60E070E080E09FE307C020E047
:1013B00030E040E251E40E941D0DE394EF10F7CFBE
:1013C000262F372F482F592FC501B4010E94B50C85
:1013D000762E872E982EA92E0E948A0DB62EC72E05
:1013E000D82EE92E0E94B60D9B01AC01672D782DF9
:1013F000892D9A2D0E94B40CA62E972E882E792E18
:101400002AE04B2D5C2D6D2D7E2DC8010E94FC081D
:10141000C80FD91FFF20B9F168EC71E0C8010E9424
:10142000E308C80FD91F2FC020E030E040E251E4AC
:101430006A2D792D882D972D0E940A0F762EC72EA2
:10144000D82EE92E0E94850D4B01AA2497FCA0946A
:10145000BA2C2AE030E0B501A401C8010E94580965
:10146000C80FD91FC501B4010E94B80D9B01AC0182
:10147000672D7C2D8D2D9E2D0E94B40CA62E972EAF
:10148000882E792EFA94F110CFCFCE01DF91CF9133
:101490001F910F91FF90EF90DF90CF90BF90AF9092
:1014A0009F908F907F9008950C94AB090F931F939A
:1014B000CF93DF93EC010E946305688779878A8761
:1014C0009B87E881F9810680F781E02DCE0109959F
:1014D0009C0197FF15C00E946305088519852A8520
:1014E0003B85601B710B820B930B0C811D812E8140
:1014F0003F81601771078207930718F32FEF3FEFC3
:10150000C901DF91CF911F910F910895FC01448390
:101510005583668377830895CF92DF92EF92FF928F
:101520000F931F93CF93DF937C018B016A01C0E07F
:10153000D0E009C0C7010E94560A97FD07C0F80114
:1015400081938F012196CC15DD05A1F7CE01DF91A6
:10155000CF911F910F91FF90EF90DF90CF90089562
:10156000CF93DF93EC0160E08E810E946C0681E0F6
:1015700090E00E94C50561E08E810E946C0681E0CA
:1015800090E00E94C50560E08E810E946C0684E6B2
:1015900090E0DF91CF910C94C505CF92DF92EF924E
:1015A000FF920F931F93CF93DF937C01C0E0D0E0B5
:1015B000C62ED12C87010C0F1D1F61E0F801878119
:1015C0000E943406B6010C2E02C0759567950A94E8
:1015D000E2F761707727F80187810E946C062196F7
:1015E000C430D10539F7C701DF91CF911F910F9119
:1015F000FF90EF90DF90CF900C94B00ACF92DF92E3
:10160000EF92FF920F931F93CF93DF937C01C0E083
:10161000D0E0C62ED12C87010C0F1D1F61E0F80110
:1016200087810E943406B6010C2E02C0759567951D
:101630000A94E2F761707727F80187810E946C06AF
:101640002196C830D10539F7C701DF91CF911F919D
:101650000F91FF90EF90DF90CF900C94B00A1F9302
:10166000CF93DF93EC01162F642F8C810E946C06C0
:101670008D818F3F19F060E00E946C068F85612F8D
:1016800084FF06C0CE01DF91CF911F910C94FE0A1A
:1016900070E084E0759567958A95E1F7CE010E9428
:1016A000CD0A612FCE01DF91CF911F910C94CD0A0D
:1016B00041E00E942F0B81E090E0089540E00C94FF
:1016C0002F0BFC016089262F2460208B6C600C940A
:1016D0005E0BCF93DF93CDB7DEB728970FB6F894A4
:1016E000DEBF0FBECDBF28E0EDEAF1E0DE011196CE
:1016F00001900D922A95E1F7FC012389421710F021
:10170000422F4150FE013196E40FF11DE40FF11D0F
:101710002081260F2068622F28960FB6F894DEBF2E
:101720000FBECDBFDF91CF910C945E0B61E00E94A4
:101730005E0B80ED97E00C94C505CF93DF93EC0131
:10174000423018F08F8588608F874B8B1C8A22234C
:1017500029F0413019F48F8584608F8780E593EC00
:101760000E94C50560E08C810E946C0660E08E815D
:101770000E946C068D818F3F19F060E00E946C061C
:101780006F8564FD1DC063E0CE010E94CD0A84E92F
:1017900091E10E94C50563E0CE010E94CD0A84E973
:1017A00091E10E94C50563E0CE010E94CD0A86E961
:1017B00090E00E94C50562E0CE010E94CD0A16C0ED
:1017C0006062CE010E945E0B84E991E10E94C50532
:1017D0006F856062CE010E945E0B86E990E00E94F8
:1017E000C5056F856062CE010E945E0B6F856062E9
:1017F000CE010E945E0B84E0888BCE010E94610BBB
:10180000CE010E94960B82E0898B66E0CE01DF91CB
:10181000CF910C945E0B6F927F928F92AF92CF928A
:10182000EF920F931F93CF93DF93CDB7DEB73C01B9
:10183000162F842F5D854E853F859889F30184831B
:1018400025830683E782C086A186828653874487E4
:101850003587968761E00E943406F30185818F3FCA
:1018600019F061E00E94340661E0F30186810E9474
:101870003406112319F0F301178603C080E1F30148
:10188000878720E041E060E1C301DF91CF911F91A4
:101890000F91EF90CF90AF908F907F906F900C94BE
:1018A0009D0B8F92AF92CF92EF920F93DC01139624
:1018B0001C921E921297EEECF1E0ED93FC931F92B6
:1018C0001F921F921F928A2CAC2CCE2CE02E022F3E
:1018D000242F462F61E00E940B0C0F900F900F9069
:1018E0000F900F91EF90CF90AF908F900895662753
:1018F00077270C94B90FF8940C9470129111B0C41E
:10190000803219F089508550D0F70895FB01DC0131
:101910000D900020E9F7119701900D920020E1F75A
:101920000895FB01DC018D91019080190110D9F31C
:10193000990B0895FB0151915523A9F0BF01DC01DA
:101940004D9145174111E1F759F4CD010190002067
:1019500049F04D9140154111C9F3FB014111EFCF01
:1019600081E090E0019708955058BB27AA270ED038
:10197000B1C1A2D130F0A7D120F031F49F3F11F4D2
:101980001EF497C10EF4E095E7FB64C1E92FB3D1D3
:1019900080F3BA17620773078407950718F071F48C
:1019A0009EF5E2C10EF4E0950B2EBA2FA02D0B018F
:1019B000B90190010C01CA01A0011124FF27591B94
:1019C00099F0593F50F4503E68F11A16F040A22F9A
:1019D000232F342F4427585FF3CF4695379527950B
:1019E000A795F0405395C9F77EF41F16BA0B620B0A
:1019F000730B840BBAF09150A1F0FF0FBB1F661F51
:101A0000771F881FC2F70EC0BA0F621F731F841F93
:101A100048F4879577956795B795F7959E3F08F0B9
:101A2000B3CF9395880F08F09927EE0F9795879578
:101A30000895ECD008F481E008950CD04BC143D157
:101A400040F03AD130F021F45F3F19F003C1511159
:101A50008CC12FC150D198F39923C9F35523B1F309
:101A6000951B550BBB27AA2762177307840738F00D
:101A70009F5F5F4F220F331F441FAA1FA9F333D06C
:101A80000E2E3AF0E0E830D091505040E695001C20
:101A9000CAF729D0FE2F27D0660F771F881FBB1FDC
:101AA000261737074807AB07B0E809F0BB0B802DB6
:101AB000BF01FF2793585F4F2AF09E3F510568F002
:101AC000C9C053C15F3FECF3983EDCF38695779530
:101AD0006795B795F7959F5FC9F7880F911D969504
:101AE000879597F90895E1E0660F771F881FBB1F60
:101AF000621773078407BA0720F0621B730B840B0D
:101B0000BA0BEE1F88F7E095089504D06894B111E0
:101B10002CC10895F8D088F09F5790F0B92F9927DD
:101B2000B751A0F0D1F0660F771F881F991F1AF0E8
:101B3000BA95C9F712C0B13081F016D1B1E008955D
:101B400013C1672F782F8827B85F39F0B93FCCF3DE
:101B5000869577956795B395D9F73EF490958095DE
:101B6000709561957F4F8F4F9F4F0895E89409C0FE
:101B700097FB3EF490958095709561957F4F8F4FC0
:101B80009F4F9923A9F0F92F96E9BB279395F695D6
:101B9000879577956795B795F111F8CFFAF4BB0F54
:101BA00011F460FF1BC06F5F7F4F8F4F9F4F16C0B8
:101BB000882311F096E911C0772321F09EE8872F42
:101BC000762F05C0662371F096E8862F70E060E0FE
:101BD0002AF09A95660F771F881FDAF7880F969577
:101BE000879597F90895A9D080F09F3740F4911117
:101BF0000EF0BBC060E070E080E89FEB089526F433
:101C00001B16611D711D811D2BC045C0990F000859
:101C1000550FAA0BE0E8FEEF16161706E807F907BE
:101C2000C0F012161306E407F50798F0621B730B59
:101C3000840B950B39F40A2661F0232B242B252BDA
:101C400021F408950A2609F4A140A6958FEF811D7D
:101C5000811D089597F99F6780E870E060E008951E
:101C6000882371F4772321F09850872B762F07C0B3
:101C7000662311F499270DC09051862B70E060E027
:101C80002AF09A95660F771F881FDAF7880F9695C6
:101C9000879597F908959F3F31F0915020F48795EB
:101CA00077956795B795880F911D9695879597F9C4
:101CB00008959FEF80EC089500240A9416161706E5
:101CC00018060906089500240A941216130614062D
:101CD00005060895092E0394000C11F4882352F090
:101CE000BB0F40F4BF2B11F460FF04C06F5F7F4F48
:101CF0008F4F9F4F089557FD9058440F551F59F02F
:101D00005F3F71F04795880F97FB991F61F09F3FE8
:101D100079F087950895121613061406551FF2CF11
:101D20004695F1DF08C0161617061806991FF1CF61
:101D300086957105610508940895E5DFA0F0BEE77A
:101D4000B91788F4BB279F3860F41616B11D672FAA
:101D5000782F8827985FF7CF869577956795B11D7F
:101D600093959639C8F30895E894BB27662777279B
:101D7000CB0197F908954ADF08F48FEF08950AD050
:101D800029ED3BE54EED5EE345C00EF084CF91CFEB
:101D9000689460CFB8DFC8F39923D1F3C6F3DF931B
:101DA000CF931F930F93FF92C92FDD2788232AF02B
:101DB0002197660F771F881FDAF720E030E040E8B0
:101DC0005FEB9FE3883920F0803E30F021968F77DB
:101DD000CCDDE8E6F0E003C0C8DDE5E9F0E08CD258
:101DE0008B01BE01EC01FB2E6F5771097595771FB2
:101DF000880B990BBDDE28E132E741E35FE316D0A3
:101E0000AF2D9801AE01FF900F911F91CF91DF91FF
:101E1000BDDD60CF0BD05ECF4FDF28F054DF18F070
:101E2000952309F017CF45CF11249FCF64DFA0F38E
:101E3000959FD1F3950F50E0551F629FF001729F5F
:101E4000BB27F00DB11D639FAA27F00DB11DAA1F7E
:101E5000649F6627B00DA11D661F829F2227B00DCB
:101E6000A11D621F739FB00DA11D621F839FA00D56
:101E7000611D221F749F3327A00D611D231F849FA6
:101E8000600D211D822F762F6A2F11249F575040FD
:101E90008AF0E1F088234AF0EE0FFF1FBB1F661F98
:101EA000771F881F91505040A9F79E3F510570F051
:101EB000D1CE5BCF5F3FECF3983EDCF38695779510
:101EC0006795B795F795E7959F5FC1F7FE2B880F4C
:101ED000911D9695879597F90895FA01EE0FFF1FCA
:101EE00030962105310599F16115710561F480384D
:101EF000BFE39B0749F168949038810561F0803811
:101F0000BFEF9B0741F0992342F5FF3FE105310503
:101F1000210511F1E8940894E795D901AA2329F441
:101F2000AB2FBE2FF85FD0F310C0FF5F70F4A69503
:101F3000E0F7F73950F019F0FF3A38F49F779F93A4
:101F40000CD00F9007FC905808953EF0B2CE60E0A0
:101F500070E080E89FE308954FE79F775F934F938A
:101F60003F932F9317DF2F913F914F915F9152DF56
:101F700097C1A1E0B0E0EFEBFFE00C9437125B01FA
:101F80006115710521F0DB018C9311969C93482F0C
:101F9000592F6A01F601E1906F018F018E2D90E0BB
:101FA0000E947E0C0097B1F7FE2DFD3229F4D60178
:101FB000ED908D0121E007C0BE2DBB3219F4F60172
:101FC000E1908F0120E068010894C108D108C601A2
:101FD00064E471E043E050E029830E9433112981D9
:101FE000009711F572E0E72EF12CE00EF11EC7010B
:101FF00067E471E045E050E00E94331129810097C9
:1020000029F467E0E62EF12CE00EF11EA114B104D4
:1020100021F0D5011196FC92EE9220FF0FC130E025
:1020200020E090E88FEF12C1C6016CE471E043E05C
:1020300050E029830E9433112981009731F060E03C
:1020400070E0CB01662477240AC0A114B10409F41E
:10205000F9C00E5F1F4FF50111830083F3C03E2DC1
:1020600030533A30A0F52260E22FF0E0AF01487023
:10207000507022FF07C04115510571F50894611C8D
:10208000711C2AC04115510519F0089461087108A6
:102090006B017C0152E0CC0CDD1CEE1CFF1C5A9540
:1020A000D1F76C0D7D1D8E1D9F1D660F771F881F3C
:1020B000991F630F711D811D911D6839F9E97F0713
:1020C000F9E98F07F9E19F0738F0246005C03E3F2A
:1020D00039F423FD3FC02860D801ED908D01BFCFBA
:1020E000353311F03531B1F5F80131913D3211F44C
:1020F000206102C03B3241F4D80111963C91119706
:10210000319642E050E002C041E050E030533A30B6
:1021100020F08F01041B150B1DC040E050E0BCE017
:1021200040385B075CF4DA01AA0FBB1FAA0FBB1F84
:102130004A0F5B1F440F551F430F511D3191305300
:102140008F013A3060F324FF03C0509541955F4FF3
:10215000640E751EC22EDD2421FF08C0A114B10437
:1021600029F001501040F501118300830E94B60D43
:102170007B018C01F3E0CF22DD2433E0C316D104D0
:1021800021F417FB109517F91095C801B70120E04D
:1021900030E0A9010E94190D882309F44AC077FE96
:1021A00009C043E6C42E41E0D42E709461947108B6
:1021B000739404C03BE7C32E31E0D32E26E0822E79
:1021C000912C90E2A92EB12C0FC0F60125913591EA
:1021D00045915491C801B7010E940A0FE62EF72ECF
:1021E000082F192F6A187B086A147B0474F7B594BA
:1021F000A7940894810891088114910429F08CEF28
:102200009FEFC80ED91EF0CFB701C801282F220FAB
:10221000292F221F2F3F39F020E030E0A9010E9432
:10222000190D882331F482E290E09093A802809304
:10223000A7023E2D2F2D902F812F08C030E020E0E7
:1022400090E803C030E020E090EC8FE7F901AC01AA
:102250006F2F722F852F942F2196EEE00C9453123E
:10226000992788270895FB01DC014150504088F0F0
:102270008D9181341CF08B350CF4805E6591613456
:102280001CF06B350CF4605E861B611171F3990BC9
:102290000895881BFCCF19F40EF0DCCC65CD09CD78
:1022A00032DDC8F39638C0F707F80F92E8942BE3B5
:1022B0003AEA48EB5FE7BCDD0F920F920F924DB701
:1022C0005EB70F927BD0E2ECF0E016D04F915F91B9
:1022D000EF91FF91E595EE1FFF1F49F0FE57E06873
:1022E0004427EE0F441FFA95E1F74195550B32D084
:1022F0000F9007FE26C00895DF93CF931F930F938F
:10230000FF92EF92DF927B018C01689405C0DA2E78
:10231000EF018CDDFE01E894A59125913591459161
:102320005591AEF3EF0132DBFE019701A801DA947B
:1023300079F7DF90EF90FF900F911F91CF91DF9190
:1023400008959B01AC0160E070E080E89FE375CBED
:1023500081CCA1CCD8DCE8F39923D9F3940F511D9B
:10236000BBF39150504094F059F0882332F0660F3F
:10237000771F881F91505040C1F79E3F510544F789
:10238000880F911D9695879597F908955F3FACF05A
:10239000983E9CF0BB27869577956795B79508F48E
:1023A000B1609395C1F7BB0F58F711F460FFE8CF08
:1023B0006F5F7F4F8F4F9F4FE3CFD7CCFA01DC0188
:1023C000AA0FBB1F9B01AC01BF5728F4222733275C
:1023D000442750781FC0B75188F4AB2F002446958E
:1023E00037952795011CA395D2F3002069F0220FA1
:1023F000331F441FB395DAF30DD0B6CA61307105AF
:10240000A0E88A07B94630F49B01AC01662777271C
:1024100088279078309621F020833183428353833C
:102420000895A1E21A2EAA1BBB1BFD010DC0AA1F15
:10243000BB1FEE1FFF1FA217B307E407F50720F02D
:10244000A21BB30BE40BF50B661F771F881F991FA8
:102450001A9469F760957095809590959B01AC01F1
:10246000BD01CF0108952F923F924F925F926F92DC
:102470007F928F929F92AF92BF92CF92DF92EF9214
:10248000FF920F931F93CF93DF93CDB7DEB7CA1B95
:10249000DB0B0FB6F894DEBF0FBECDBF09942A88C0
:1024A000398848885F846E847D848C849B84AA8468
:1024B000B984C884DF80EE80FD800C811B81AA81F5
:1024C000B981CE0FD11D0FB6F894DEBF0FBECDBFC0
:1024D000ED010895EE0FFF1F0590F491E02D099492
:0424E000F894FFCF9E
:1024E40041637475616C3A2000206F0020002A2A31
:1024F4002A2A48454154204F46462A2A2A2A00536C
:1025040065743A202020200052544D502D2D2D2D3D
:102514002D002D2D2D2D0061545352544D50005437
:10252400544D50002D2D2D2D2D0061545354544DD8
:102534005000535441540061545353544154003196
:102544002D2D2D2D0061545353544154312D2D2DD7
:102554002D00302D2D2D2D006154535354415430F2
:102564002D2D2D2D0052454C412D2D2D2D2D00614D
:10257400545352454C410010000600080011000756
:10258400000D000000A041430000803E0100004017
:102594000014005400545300000000003107BB082D
:1025A400CC06FB06DF061F072E0000000000580BB8
:0225B400BB0862
:00000001FF
